{
  "address": "0xA33cfb48338450AEcc3e7dA69E7F99AC923cfc28",
  "abi": [
    {
      "inputs": [],
      "stateMutability": "nonpayable",
      "type": "constructor"
    },
    {
      "inputs": [
        {
          "internalType": "address",
          "name": "_from",
          "type": "address"
        },
        {
          "internalType": "uint256",
          "name": "_id",
          "type": "uint256"
        }
      ],
      "name": "EarlyClaim",
      "type": "error"
    },
    {
      "inputs": [],
      "name": "EarlyWithdraw",
      "type": "error"
    },
    {
      "inputs": [],
      "name": "InvalidFinalValue",
      "type": "error"
    },
    {
      "inputs": [
        {
          "internalType": "uint256",
          "name": "_id",
          "type": "uint256"
        }
      ],
      "name": "NotRepaid",
      "type": "error"
    },
    {
      "inputs": [],
      "name": "ZeroBalanceClaim",
      "type": "error"
    },
    {
      "inputs": [
        {
          "internalType": "uint256",
          "name": "_id",
          "type": "uint256"
        }
      ],
      "name": "ZeroBalanceWithdraw",
      "type": "error"
    },
    {
      "anonymous": false,
      "inputs": [
        {
          "indexed": true,
          "internalType": "address",
          "name": "account",
          "type": "address"
        },
        {
          "indexed": true,
          "internalType": "address",
          "name": "operator",
          "type": "address"
        },
        {
          "indexed": false,
          "internalType": "bool",
          "name": "approved",
          "type": "bool"
        }
      ],
      "name": "ApprovalForAll",
      "type": "event"
    },
    {
      "anonymous": false,
      "inputs": [
        {
          "indexed": true,
          "internalType": "address",
          "name": "previousOwner",
          "type": "address"
        },
        {
          "indexed": true,
          "internalType": "address",
          "name": "newOwner",
          "type": "address"
        }
      ],
      "name": "OwnershipTransferred",
      "type": "event"
    },
    {
      "anonymous": false,
      "inputs": [
        {
          "indexed": false,
          "internalType": "address",
          "name": "account",
          "type": "address"
        }
      ],
      "name": "Paused",
      "type": "event"
    },
    {
      "anonymous": false,
      "inputs": [
        {
          "indexed": true,
          "internalType": "address",
          "name": "operator",
          "type": "address"
        },
        {
          "indexed": true,
          "internalType": "address",
          "name": "from",
          "type": "address"
        },
        {
          "indexed": true,
          "internalType": "address",
          "name": "to",
          "type": "address"
        },
        {
          "indexed": false,
          "internalType": "uint256[]",
          "name": "ids",
          "type": "uint256[]"
        },
        {
          "indexed": false,
          "internalType": "uint256[]",
          "name": "values",
          "type": "uint256[]"
        }
      ],
      "name": "TransferBatch",
      "type": "event"
    },
    {
      "anonymous": false,
      "inputs": [
        {
          "indexed": true,
          "internalType": "address",
          "name": "operator",
          "type": "address"
        },
        {
          "indexed": true,
          "internalType": "address",
          "name": "from",
          "type": "address"
        },
        {
          "indexed": true,
          "internalType": "address",
          "name": "to",
          "type": "address"
        },
        {
          "indexed": false,
          "internalType": "uint256",
          "name": "id",
          "type": "uint256"
        },
        {
          "indexed": false,
          "internalType": "uint256",
          "name": "value",
          "type": "uint256"
        }
      ],
      "name": "TransferSingle",
      "type": "event"
    },
    {
      "anonymous": false,
      "inputs": [
        {
          "indexed": false,
          "internalType": "string",
          "name": "value",
          "type": "string"
        },
        {
          "indexed": true,
          "internalType": "uint256",
          "name": "id",
          "type": "uint256"
        }
      ],
      "name": "URI",
      "type": "event"
    },
    {
      "anonymous": false,
      "inputs": [
        {
          "indexed": false,
          "internalType": "address",
          "name": "account",
          "type": "address"
        }
      ],
      "name": "Unpaused",
      "type": "event"
    },
    {
      "inputs": [
        {
          "internalType": "uint256",
          "name": "_initialSupply",
          "type": "uint256"
        },
        {
          "internalType": "address",
          "name": "_token",
          "type": "address"
        },
        {
          "internalType": "uint256",
          "name": "_value",
          "type": "uint256"
        },
        {
          "internalType": "string",
          "name": "_uri",
          "type": "string"
        },
        {
          "internalType": "uint64",
          "name": "_startTs",
          "type": "uint64"
        },
        {
          "internalType": "uint64",
          "name": "_endTs",
          "type": "uint64"
        }
      ],
      "name": "addProduct",
      "outputs": [],
      "stateMutability": "nonpayable",
      "type": "function"
    },
    {
      "inputs": [
        {
          "internalType": "address",
          "name": "account",
          "type": "address"
        },
        {
          "internalType": "uint256",
          "name": "id",
          "type": "uint256"
        }
      ],
      "name": "balanceOf",
      "outputs": [
        {
          "internalType": "uint256",
          "name": "",
          "type": "uint256"
        }
      ],
      "stateMutability": "view",
      "type": "function"
    },
    {
      "inputs": [
        {
          "internalType": "address[]",
          "name": "accounts",
          "type": "address[]"
        },
        {
          "internalType": "uint256[]",
          "name": "ids",
          "type": "uint256[]"
        }
      ],
      "name": "balanceOfBatch",
      "outputs": [
        {
          "internalType": "uint256[]",
          "name": "",
          "type": "uint256[]"
        }
      ],
      "stateMutability": "view",
      "type": "function"
    },
    {
      "inputs": [
        {
          "internalType": "address",
          "name": "account",
          "type": "address"
        },
        {
          "internalType": "uint256",
          "name": "id",
          "type": "uint256"
        },
        {
          "internalType": "uint256",
          "name": "value",
          "type": "uint256"
        }
      ],
      "name": "burn",
      "outputs": [],
      "stateMutability": "nonpayable",
      "type": "function"
    },
    {
      "inputs": [
        {
          "internalType": "address",
          "name": "account",
          "type": "address"
        },
        {
          "internalType": "uint256[]",
          "name": "ids",
          "type": "uint256[]"
        },
        {
          "internalType": "uint256[]",
          "name": "values",
          "type": "uint256[]"
        }
      ],
      "name": "burnBatch",
      "outputs": [],
      "stateMutability": "nonpayable",
      "type": "function"
    },
    {
      "inputs": [
        {
          "internalType": "address",
          "name": "_to",
          "type": "address"
        },
        {
          "internalType": "uint256",
          "name": "_id",
          "type": "uint256"
        }
      ],
      "name": "claim",
      "outputs": [],
      "stateMutability": "nonpayable",
      "type": "function"
    },
    {
      "inputs": [
        {
          "internalType": "uint256",
          "name": "id",
          "type": "uint256"
        }
      ],
      "name": "exists",
      "outputs": [
        {
          "internalType": "bool",
          "name": "",
          "type": "bool"
        }
      ],
      "stateMutability": "view",
      "type": "function"
    },
    {
      "inputs": [
        {
          "internalType": "address",
          "name": "account",
          "type": "address"
        },
        {
          "internalType": "address",
          "name": "operator",
          "type": "address"
        }
      ],
      "name": "isApprovedForAll",
      "outputs": [
        {
          "internalType": "bool",
          "name": "",
          "type": "bool"
        }
      ],
      "stateMutability": "view",
      "type": "function"
    },
    {
      "inputs": [],
      "name": "numProducts",
      "outputs": [
        {
          "internalType": "uint256",
          "name": "",
          "type": "uint256"
        }
      ],
      "stateMutability": "view",
      "type": "function"
    },
    {
      "inputs": [],
      "name": "owner",
      "outputs": [
        {
          "internalType": "address",
          "name": "",
          "type": "address"
        }
      ],
      "stateMutability": "view",
      "type": "function"
    },
    {
      "inputs": [],
      "name": "pause",
      "outputs": [],
      "stateMutability": "nonpayable",
      "type": "function"
    },
    {
      "inputs": [],
      "name": "paused",
      "outputs": [
        {
          "internalType": "bool",
          "name": "",
          "type": "bool"
        }
      ],
      "stateMutability": "view",
      "type": "function"
    },
    {
      "inputs": [
        {
          "internalType": "uint256",
          "name": "",
          "type": "uint256"
        }
      ],
      "name": "products",
      "outputs": [
        {
          "internalType": "address",
          "name": "token",
          "type": "address"
        },
        {
          "internalType": "uint256",
          "name": "value",
          "type": "uint256"
        },
        {
          "internalType": "uint256",
          "name": "finalValue",
          "type": "uint256"
        },
        {
          "internalType": "string",
          "name": "uri",
          "type": "string"
        },
        {
          "internalType": "uint64",
          "name": "startTs",
          "type": "uint64"
        },
        {
          "internalType": "uint64",
          "name": "endTs",
          "type": "uint64"
        }
      ],
      "stateMutability": "view",
      "type": "function"
    },
    {
      "inputs": [],
      "name": "renounceOwnership",
      "outputs": [],
      "stateMutability": "nonpayable",
      "type": "function"
    },
    {
      "inputs": [
        {
          "internalType": "uint256",
          "name": "_id",
          "type": "uint256"
        },
        {
          "internalType": "uint256",
          "name": "_finalValue",
          "type": "uint256"
        },
        {
          "internalType": "uint256",
          "name": "_totalFinalValue",
          "type": "uint256"
        }
      ],
      "name": "repay",
      "outputs": [],
      "stateMutability": "nonpayable",
      "type": "function"
    },
    {
      "inputs": [
        {
          "internalType": "address",
          "name": "from",
          "type": "address"
        },
        {
          "internalType": "address",
          "name": "to",
          "type": "address"
        },
        {
          "internalType": "uint256[]",
          "name": "ids",
          "type": "uint256[]"
        },
        {
          "internalType": "uint256[]",
          "name": "amounts",
          "type": "uint256[]"
        },
        {
          "internalType": "bytes",
          "name": "data",
          "type": "bytes"
        }
      ],
      "name": "safeBatchTransferFrom",
      "outputs": [],
      "stateMutability": "nonpayable",
      "type": "function"
    },
    {
      "inputs": [
        {
          "internalType": "address",
          "name": "from",
          "type": "address"
        },
        {
          "internalType": "address",
          "name": "to",
          "type": "address"
        },
        {
          "internalType": "uint256",
          "name": "id",
          "type": "uint256"
        },
        {
          "internalType": "uint256",
          "name": "amount",
          "type": "uint256"
        },
        {
          "internalType": "bytes",
          "name": "data",
          "type": "bytes"
        }
      ],
      "name": "safeTransferFrom",
      "outputs": [],
      "stateMutability": "nonpayable",
      "type": "function"
    },
    {
      "inputs": [
        {
          "internalType": "address",
          "name": "operator",
          "type": "address"
        },
        {
          "internalType": "bool",
          "name": "approved",
          "type": "bool"
        }
      ],
      "name": "setApprovalForAll",
      "outputs": [],
      "stateMutability": "nonpayable",
      "type": "function"
    },
    {
      "inputs": [
        {
          "internalType": "uint256",
          "name": "_id",
          "type": "uint256"
        },
        {
          "internalType": "string",
          "name": "_uri",
          "type": "string"
        }
      ],
      "name": "setURI",
      "outputs": [],
      "stateMutability": "nonpayable",
      "type": "function"
    },
    {
      "inputs": [
        {
          "internalType": "bytes4",
          "name": "interfaceId",
          "type": "bytes4"
        }
      ],
      "name": "supportsInterface",
      "outputs": [
        {
          "internalType": "bool",
          "name": "",
          "type": "bool"
        }
      ],
      "stateMutability": "view",
      "type": "function"
    },
    {
      "inputs": [
        {
          "internalType": "uint256",
          "name": "id",
          "type": "uint256"
        }
      ],
      "name": "totalSupply",
      "outputs": [
        {
          "internalType": "uint256",
          "name": "",
          "type": "uint256"
        }
      ],
      "stateMutability": "view",
      "type": "function"
    },
    {
      "inputs": [
        {
          "internalType": "address",
          "name": "newOwner",
          "type": "address"
        }
      ],
      "name": "transferOwnership",
      "outputs": [],
      "stateMutability": "nonpayable",
      "type": "function"
    },
    {
      "inputs": [],
      "name": "unpause",
      "outputs": [],
      "stateMutability": "nonpayable",
      "type": "function"
    },
    {
      "inputs": [
        {
          "internalType": "uint256",
          "name": "_id",
          "type": "uint256"
        }
      ],
      "name": "uri",
      "outputs": [
        {
          "internalType": "string",
          "name": "",
          "type": "string"
        }
      ],
      "stateMutability": "view",
      "type": "function"
    },
    {
      "inputs": [
        {
          "internalType": "uint256",
          "name": "_id",
          "type": "uint256"
        }
      ],
      "name": "withdrawResidue",
      "outputs": [],
      "stateMutability": "nonpayable",
      "type": "function"
    }
  ],
  "transactionHash": "0x12cecf9bd443fa269f492676fb3f86f6f2cc48a407b22e0925a4d5077736057b",
  "args": [],
  "numDeployments": 1,
  "solcInputHash": "3e5f478c98c91f48d507ba0a0fa208ba",
  "bytecode": "0x60806040523480156200001157600080fd5b506040518060200160405280600081525062000033816200007560201b60201c565b5062000054620000486200009160201b60201c565b6200009960201b60201c565b6000600460146101000a81548160ff02191690831515021790555062000274565b80600290805190602001906200008d9291906200015f565b5050565b600033905090565b6000600460009054906101000a900473ffffffffffffffffffffffffffffffffffffffff16905081600460006101000a81548173ffffffffffffffffffffffffffffffffffffffff021916908373ffffffffffffffffffffffffffffffffffffffff1602179055508173ffffffffffffffffffffffffffffffffffffffff168173ffffffffffffffffffffffffffffffffffffffff167f8be0079c531659141344cd1fd0a4f28419497f9722a3daafe3b4186f6b6457e060405160405180910390a35050565b8280546200016d906200023e565b90600052602060002090601f016020900481019282620001915760008555620001dd565b82601f10620001ac57805160ff1916838001178555620001dd565b82800160010185558215620001dd579182015b82811115620001dc578251825591602001919060010190620001bf565b5b509050620001ec9190620001f0565b5090565b5b808211156200020b576000816000905550600101620001f1565b5090565b7f4e487b7100000000000000000000000000000000000000000000000000000000600052602260045260246000fd5b600060028204905060018216806200025757607f821691505b602082108114156200026e576200026d6200020f565b5b50919050565b614c0d80620002846000396000f3fe608060405234801561001057600080fd5b50600436106101725760003560e01c80637acc0b20116100de578063aad3ec9611610097578063e985e9c511610071578063e985e9c514610424578063f242432a14610454578063f2fde38b14610470578063f5298aca1461048c57610172565b8063aad3ec96146103ba578063ac964f21146103d6578063bd85b039146103f457610172565b80637acc0b20146103095780638456cb591461033e578063862440e214610348578063895a7485146103645780638da5cb5b14610380578063a22cb4651461039e57610172565b80633f4ba83a116101305780633f4ba83a1461025b5780634e1273f4146102655780634f558e79146102955780635c975abb146102c55780636b20c454146102e3578063715018a6146102ff57610172565b8062fdd58e1461017757806301ffc9a7146101a75780630e89341c146101d75780631dad542d146102075780632e045a64146102235780632eb2c2d61461023f575b600080fd5b610191600480360381019061018c9190612f82565b6104a8565b60405161019e9190612fd1565b60405180910390f35b6101c160048036038101906101bc9190613044565b610571565b6040516101ce919061308c565b60405180910390f35b6101f160048036038101906101ec91906130a7565b610653565b6040516101fe919061316d565b60405180910390f35b610221600480360381019061021c91906130a7565b6106fb565b005b61023d60048036038101906102389190613304565b610891565b005b61025960048036038101906102549190613516565b610a29565b005b610263610aca565b005b61027f600480360381019061027a91906136a8565b610adc565b60405161028c91906137de565b60405180910390f35b6102af60048036038101906102aa91906130a7565b610bf5565b6040516102bc919061308c565b60405180910390f35b6102cd610c09565b6040516102da919061308c565b60405180910390f35b6102fd60048036038101906102f89190613800565b610c20565b005b610307610cbd565b005b610323600480360381019061031e91906130a7565b610cd1565b604051610335969594939291906138a9565b60405180910390f35b610346610ddd565b005b610362600480360381019061035d9190613911565b610def565b005b61037e6004803603810190610379919061396d565b610e26565b005b610388610f12565b60405161039591906139c0565b60405180910390f35b6103b860048036038101906103b39190613a07565b610f3c565b005b6103d460048036038101906103cf9190612f82565b610f52565b005b6103de6110e9565b6040516103eb9190612fd1565b60405180910390f35b61040e600480360381019061040991906130a7565b6110ef565b60405161041b9190612fd1565b60405180910390f35b61043e60048036038101906104399190613a47565b61110c565b60405161044b919061308c565b60405180910390f35b61046e60048036038101906104699190613a87565b6111a0565b005b61048a60048036038101906104859190613b1e565b611241565b005b6104a660048036038101906104a19190613b4b565b6112c5565b005b60008073ffffffffffffffffffffffffffffffffffffffff168373ffffffffffffffffffffffffffffffffffffffff161415610519576040517f08c379a000000000000000000000000000000000000000000000000000000000815260040161051090613c10565b60405180910390fd5b60008083815260200190815260200160002060008473ffffffffffffffffffffffffffffffffffffffff1673ffffffffffffffffffffffffffffffffffffffff16815260200190815260200160002054905092915050565b60007fd9b67a26000000000000000000000000000000000000000000000000000000007bffffffffffffffffffffffffffffffffffffffffffffffffffffffff1916827bffffffffffffffffffffffffffffffffffffffffffffffffffffffff1916148061063c57507f0e89341c000000000000000000000000000000000000000000000000000000007bffffffffffffffffffffffffffffffffffffffffffffffffffffffff1916827bffffffffffffffffffffffffffffffffffffffffffffffffffffffff1916145b8061064c575061064b82611362565b5b9050919050565b606060056000838152602001908152602001600020600301805461067690613c5f565b80601f01602080910402602001604051908101604052809291908181526020018280546106a290613c5f565b80156106ef5780601f106106c4576101008083540402835291602001916106ef565b820191906000526020600020905b8154815290600101906020018083116106d257829003601f168201915b50505050509050919050565b6107036113cc565b600060056000838152602001908152602001600020905060008160020154141561076457816040517fd97915d200000000000000000000000000000000000000000000000000000000815260040161075b9190612fd1565b60405180910390fd5b6249d4008160040160089054906101000a900467ffffffffffffffff1661078b9190613cc0565b67ffffffffffffffff164210156107ce576040517f507a88b200000000000000000000000000000000000000000000000000000000815260040160405180910390fd5b60006107d9836110ef565b9050600081141561082157826040517f76f7b7250000000000000000000000000000000000000000000000000000000081526004016108189190612fd1565b60405180910390fd5b60008183600201546108339190613cfe565b905061088b610840610f12565b828560000160009054906101000a900473ffffffffffffffffffffffffffffffffffffffff1673ffffffffffffffffffffffffffffffffffffffff1661144a9092919063ffffffff16565b50505050565b6108996113cc565b60006040518060c001604052808773ffffffffffffffffffffffffffffffffffffffff168152602001868152602001600081526020018581526020018467ffffffffffffffff1681526020018367ffffffffffffffff1681525090508060056000600654815260200190815260200160002060008201518160000160006101000a81548173ffffffffffffffffffffffffffffffffffffffff021916908373ffffffffffffffffffffffffffffffffffffffff16021790555060208201518160010155604082015181600201556060820151816003019080519060200190610982929190612e37565b5060808201518160040160006101000a81548167ffffffffffffffff021916908367ffffffffffffffff16021790555060a08201518160040160086101000a81548167ffffffffffffffff021916908367ffffffffffffffff160217905550905050610a086109ef610f12565b60065489604051806020016040528060008152506114d0565b60066000815480929190610a1b90613d58565b919050555050505050505050565b610a31611681565b73ffffffffffffffffffffffffffffffffffffffff168573ffffffffffffffffffffffffffffffffffffffff161480610a775750610a7685610a71611681565b61110c565b5b610ab6576040517f08c379a0000000000000000000000000000000000000000000000000000000008152600401610aad90613e13565b60405180910390fd5b610ac38585858585611689565b5050505050565b610ad26113cc565b610ada6119ab565b565b60608151835114610b22576040517f08c379a0000000000000000000000000000000000000000000000000000000008152600401610b1990613ea5565b60405180910390fd5b6000835167ffffffffffffffff811115610b3f57610b3e613199565b5b604051908082528060200260200182016040528015610b6d5781602001602082028036833780820191505090505b50905060005b8451811015610bea57610bba858281518110610b9257610b91613ec5565b5b6020026020010151858381518110610bad57610bac613ec5565b5b60200260200101516104a8565b828281518110610bcd57610bcc613ec5565b5b60200260200101818152505080610be390613d58565b9050610b73565b508091505092915050565b600080610c01836110ef565b119050919050565b6000600460149054906101000a900460ff16905090565b610c28611681565b73ffffffffffffffffffffffffffffffffffffffff168373ffffffffffffffffffffffffffffffffffffffff161480610c6e5750610c6d83610c68611681565b61110c565b5b610cad576040517f08c379a0000000000000000000000000000000000000000000000000000000008152600401610ca490613e13565b60405180910390fd5b610cb8838383611a0e565b505050565b610cc56113cc565b610ccf6000611cdd565b565b60056020528060005260406000206000915090508060000160009054906101000a900473ffffffffffffffffffffffffffffffffffffffff1690806001015490806002015490806003018054610d2690613c5f565b80601f0160208091040260200160405190810160405280929190818152602001828054610d5290613c5f565b8015610d9f5780601f10610d7457610100808354040283529160200191610d9f565b820191906000526020600020905b815481529060010190602001808311610d8257829003601f168201915b5050505050908060040160009054906101000a900467ffffffffffffffff16908060040160089054906101000a900467ffffffffffffffff16905086565b610de56113cc565b610ded611da3565b565b610df76113cc565b80600560008481526020019081526020016000206003019080519060200190610e21929190612e37565b505050565b610e2e611e06565b610e366113cc565b600060056000858152602001908152602001600020905081610e57856110ef565b84610e629190613cfe565b14610e99576040517fc63b259b00000000000000000000000000000000000000000000000000000000815260040160405180910390fd5b82816002016000828254610ead9190613ef4565b92505081905550610f0c610ebf611681565b30848460000160009054906101000a900473ffffffffffffffffffffffffffffffffffffffff1673ffffffffffffffffffffffffffffffffffffffff16611e50909392919063ffffffff16565b50505050565b6000600460009054906101000a900473ffffffffffffffffffffffffffffffffffffffff16905090565b610f4e610f47611681565b8383611ed9565b5050565b610f5a611e06565b6000600560008381526020019081526020016000209050600081600201541415610fbb57816040517fd97915d2000000000000000000000000000000000000000000000000000000008152600401610fb29190612fd1565b60405180910390fd5b8060040160089054906101000a900467ffffffffffffffff1667ffffffffffffffff1642101561102b57610fed611681565b826040517f714a2b90000000000000000000000000000000000000000000000000000000008152600401611022929190613f4a565b60405180910390fd5b600061103784846104a8565b90506000811415611074576040517fbd33d40800000000000000000000000000000000000000000000000000000000815260040160405180910390fd5b61107f848483612046565b60008183600201546110919190613cfe565b90506110e285828560000160009054906101000a900473ffffffffffffffffffffffffffffffffffffffff1673ffffffffffffffffffffffffffffffffffffffff1661144a9092919063ffffffff16565b5050505050565b60065481565b600060036000838152602001908152602001600020549050919050565b6000600160008473ffffffffffffffffffffffffffffffffffffffff1673ffffffffffffffffffffffffffffffffffffffff16815260200190815260200160002060008373ffffffffffffffffffffffffffffffffffffffff1673ffffffffffffffffffffffffffffffffffffffff16815260200190815260200160002060009054906101000a900460ff16905092915050565b6111a8611681565b73ffffffffffffffffffffffffffffffffffffffff168573ffffffffffffffffffffffffffffffffffffffff1614806111ee57506111ed856111e8611681565b61110c565b5b61122d576040517f08c379a000000000000000000000000000000000000000000000000000000000815260040161122490613e13565b60405180910390fd5b61123a858585858561228d565b5050505050565b6112496113cc565b600073ffffffffffffffffffffffffffffffffffffffff168173ffffffffffffffffffffffffffffffffffffffff1614156112b9576040517f08c379a00000000000000000000000000000000000000000000000000000000081526004016112b090613fe5565b60405180910390fd5b6112c281611cdd565b50565b6112cd611681565b73ffffffffffffffffffffffffffffffffffffffff168373ffffffffffffffffffffffffffffffffffffffff16148061131357506113128361130d611681565b61110c565b5b611352576040517f08c379a000000000000000000000000000000000000000000000000000000000815260040161134990613e13565b60405180910390fd5b61135d838383612046565b505050565b60007f01ffc9a7000000000000000000000000000000000000000000000000000000007bffffffffffffffffffffffffffffffffffffffffffffffffffffffff1916827bffffffffffffffffffffffffffffffffffffffffffffffffffffffff1916149050919050565b6113d4611681565b73ffffffffffffffffffffffffffffffffffffffff166113f2610f12565b73ffffffffffffffffffffffffffffffffffffffff1614611448576040517f08c379a000000000000000000000000000000000000000000000000000000000815260040161143f90614051565b60405180910390fd5b565b6114cb8363a9059cbb60e01b8484604051602401611469929190613f4a565b604051602081830303815290604052907bffffffffffffffffffffffffffffffffffffffffffffffffffffffff19166020820180517bffffffffffffffffffffffffffffffffffffffffffffffffffffffff8381831617835250505050612529565b505050565b600073ffffffffffffffffffffffffffffffffffffffff168473ffffffffffffffffffffffffffffffffffffffff161415611540576040517f08c379a0000000000000000000000000000000000000000000000000000000008152600401611537906140e3565b60405180910390fd5b600061154a611681565b90506000611557856125f0565b90506000611564856125f0565b90506115758360008985858961266a565b8460008088815260200190815260200160002060008973ffffffffffffffffffffffffffffffffffffffff1673ffffffffffffffffffffffffffffffffffffffff16815260200190815260200160002060008282546115d49190613ef4565b925050819055508673ffffffffffffffffffffffffffffffffffffffff16600073ffffffffffffffffffffffffffffffffffffffff168473ffffffffffffffffffffffffffffffffffffffff167fc3d58168c5ae7397731d063d5bbf3d657854427343f4c083240f7aacaa2d0f628989604051611652929190614103565b60405180910390a461166983600089858589612688565b61167883600089898989612690565b50505050505050565b600033905090565b81518351146116cd576040517f08c379a00000000000000000000000000000000000000000000000000000000081526004016116c49061419e565b60405180910390fd5b600073ffffffffffffffffffffffffffffffffffffffff168473ffffffffffffffffffffffffffffffffffffffff16141561173d576040517f08c379a000000000000000000000000000000000000000000000000000000000815260040161173490614230565b60405180910390fd5b6000611747611681565b905061175781878787878761266a565b60005b845181101561190857600085828151811061177857611777613ec5565b5b60200260200101519050600085838151811061179757611796613ec5565b5b60200260200101519050600080600084815260200190815260200160002060008b73ffffffffffffffffffffffffffffffffffffffff1673ffffffffffffffffffffffffffffffffffffffff16815260200190815260200160002054905081811015611838576040517f08c379a000000000000000000000000000000000000000000000000000000000815260040161182f906142c2565b60405180910390fd5b81810360008085815260200190815260200160002060008c73ffffffffffffffffffffffffffffffffffffffff1673ffffffffffffffffffffffffffffffffffffffff168152602001908152602001600020819055508160008085815260200190815260200160002060008b73ffffffffffffffffffffffffffffffffffffffff1673ffffffffffffffffffffffffffffffffffffffff16815260200190815260200160002060008282546118ed9190613ef4565b925050819055505050508061190190613d58565b905061175a565b508473ffffffffffffffffffffffffffffffffffffffff168673ffffffffffffffffffffffffffffffffffffffff168273ffffffffffffffffffffffffffffffffffffffff167f4a39dc06d4c0dbc64b70af90fd698a233a518aa5d07e595d983b8c0526c8f7fb878760405161197f9291906142e2565b60405180910390a4611995818787878787612688565b6119a3818787878787612877565b505050505050565b6119b3612a5e565b6000600460146101000a81548160ff0219169083151502179055507f5db9ee0a495bf2e6ff9c91a7834c1ba4fdd244a5e8aa4e537bd38aeae4b073aa6119f7611681565b604051611a0491906139c0565b60405180910390a1565b600073ffffffffffffffffffffffffffffffffffffffff168373ffffffffffffffffffffffffffffffffffffffff161415611a7e576040517f08c379a0000000000000000000000000000000000000000000000000000000008152600401611a759061438b565b60405180910390fd5b8051825114611ac2576040517f08c379a0000000000000000000000000000000000000000000000000000000008152600401611ab99061419e565b60405180910390fd5b6000611acc611681565b9050611aec8185600086866040518060200160405280600081525061266a565b60005b8351811015611c39576000848281518110611b0d57611b0c613ec5565b5b602002602001015190506000848381518110611b2c57611b2b613ec5565b5b60200260200101519050600080600084815260200190815260200160002060008973ffffffffffffffffffffffffffffffffffffffff1673ffffffffffffffffffffffffffffffffffffffff16815260200190815260200160002054905081811015611bcd576040517f08c379a0000000000000000000000000000000000000000000000000000000008152600401611bc49061441d565b60405180910390fd5b81810360008085815260200190815260200160002060008a73ffffffffffffffffffffffffffffffffffffffff1673ffffffffffffffffffffffffffffffffffffffff168152602001908152602001600020819055505050508080611c3190613d58565b915050611aef565b50600073ffffffffffffffffffffffffffffffffffffffff168473ffffffffffffffffffffffffffffffffffffffff168273ffffffffffffffffffffffffffffffffffffffff167f4a39dc06d4c0dbc64b70af90fd698a233a518aa5d07e595d983b8c0526c8f7fb8686604051611cb19291906142e2565b60405180910390a4611cd781856000868660405180602001604052806000815250612688565b50505050565b6000600460009054906101000a900473ffffffffffffffffffffffffffffffffffffffff16905081600460006101000a81548173ffffffffffffffffffffffffffffffffffffffff021916908373ffffffffffffffffffffffffffffffffffffffff1602179055508173ffffffffffffffffffffffffffffffffffffffff168173ffffffffffffffffffffffffffffffffffffffff167f8be0079c531659141344cd1fd0a4f28419497f9722a3daafe3b4186f6b6457e060405160405180910390a35050565b611dab611e06565b6001600460146101000a81548160ff0219169083151502179055507f62e78cea01bee320cd4e420270b5ea74000d11b0c9f74754ebdbfc544b05a258611def611681565b604051611dfc91906139c0565b60405180910390a1565b611e0e610c09565b15611e4e576040517f08c379a0000000000000000000000000000000000000000000000000000000008152600401611e4590614489565b60405180910390fd5b565b611ed3846323b872dd60e01b858585604051602401611e71939291906144a9565b604051602081830303815290604052907bffffffffffffffffffffffffffffffffffffffffffffffffffffffff19166020820180517bffffffffffffffffffffffffffffffffffffffffffffffffffffffff8381831617835250505050612529565b50505050565b8173ffffffffffffffffffffffffffffffffffffffff168373ffffffffffffffffffffffffffffffffffffffff161415611f48576040517f08c379a0000000000000000000000000000000000000000000000000000000008152600401611f3f90614552565b60405180910390fd5b80600160008573ffffffffffffffffffffffffffffffffffffffff1673ffffffffffffffffffffffffffffffffffffffff16815260200190815260200160002060008473ffffffffffffffffffffffffffffffffffffffff1673ffffffffffffffffffffffffffffffffffffffff16815260200190815260200160002060006101000a81548160ff0219169083151502179055508173ffffffffffffffffffffffffffffffffffffffff168373ffffffffffffffffffffffffffffffffffffffff167f17307eab39ab6107e8899845ad3d59bd9653f200f220920489ca2b5937696c3183604051612039919061308c565b60405180910390a3505050565b600073ffffffffffffffffffffffffffffffffffffffff168373ffffffffffffffffffffffffffffffffffffffff1614156120b6576040517f08c379a00000000000000000000000000000000000000000000000000000000081526004016120ad9061438b565b60405180910390fd5b60006120c0611681565b905060006120cd846125f0565b905060006120da846125f0565b90506120fa8387600085856040518060200160405280600081525061266a565b600080600087815260200190815260200160002060008873ffffffffffffffffffffffffffffffffffffffff1673ffffffffffffffffffffffffffffffffffffffff16815260200190815260200160002054905084811015612191576040517f08c379a00000000000000000000000000000000000000000000000000000000081526004016121889061441d565b60405180910390fd5b84810360008088815260200190815260200160002060008973ffffffffffffffffffffffffffffffffffffffff1673ffffffffffffffffffffffffffffffffffffffff16815260200190815260200160002081905550600073ffffffffffffffffffffffffffffffffffffffff168773ffffffffffffffffffffffffffffffffffffffff168573ffffffffffffffffffffffffffffffffffffffff167fc3d58168c5ae7397731d063d5bbf3d657854427343f4c083240f7aacaa2d0f62898960405161225e929190614103565b60405180910390a461228484886000868660405180602001604052806000815250612688565b50505050505050565b600073ffffffffffffffffffffffffffffffffffffffff168473ffffffffffffffffffffffffffffffffffffffff1614156122fd576040517f08c379a00000000000000000000000000000000000000000000000000000000081526004016122f490614230565b60405180910390fd5b6000612307611681565b90506000612314856125f0565b90506000612321856125f0565b905061233183898985858961266a565b600080600088815260200190815260200160002060008a73ffffffffffffffffffffffffffffffffffffffff1673ffffffffffffffffffffffffffffffffffffffff168152602001908152602001600020549050858110156123c8576040517f08c379a00000000000000000000000000000000000000000000000000000000081526004016123bf906142c2565b60405180910390fd5b85810360008089815260200190815260200160002060008b73ffffffffffffffffffffffffffffffffffffffff1673ffffffffffffffffffffffffffffffffffffffff168152602001908152602001600020819055508560008089815260200190815260200160002060008a73ffffffffffffffffffffffffffffffffffffffff1673ffffffffffffffffffffffffffffffffffffffff168152602001908152602001600020600082825461247d9190613ef4565b925050819055508773ffffffffffffffffffffffffffffffffffffffff168973ffffffffffffffffffffffffffffffffffffffff168573ffffffffffffffffffffffffffffffffffffffff167fc3d58168c5ae7397731d063d5bbf3d657854427343f4c083240f7aacaa2d0f628a8a6040516124fa929190614103565b60405180910390a4612510848a8a86868a612688565b61251e848a8a8a8a8a612690565b505050505050505050565b600061258b826040518060400160405280602081526020017f5361666545524332303a206c6f772d6c6576656c2063616c6c206661696c65648152508573ffffffffffffffffffffffffffffffffffffffff16612aa79092919063ffffffff16565b90506000815111156125eb57808060200190518101906125ab9190614587565b6125ea576040517f08c379a00000000000000000000000000000000000000000000000000000000081526004016125e190614626565b60405180910390fd5b5b505050565b60606000600167ffffffffffffffff81111561260f5761260e613199565b5b60405190808252806020026020018201604052801561263d5781602001602082028036833780820191505090505b509050828160008151811061265557612654613ec5565b5b60200260200101818152505080915050919050565b612672611e06565b612680868686868686612abf565b505050505050565b505050505050565b6126af8473ffffffffffffffffffffffffffffffffffffffff16612c91565b1561286f578373ffffffffffffffffffffffffffffffffffffffff1663f23a6e6187878686866040518663ffffffff1660e01b81526004016126f595949392919061469b565b602060405180830381600087803b15801561270f57600080fd5b505af192505050801561274057506040513d601f19601f8201168201806040525081019061273d919061470a565b60015b6127e65761274c614744565b806308c379a014156127a95750612761614766565b8061276c57506127ab565b806040517f08c379a00000000000000000000000000000000000000000000000000000000081526004016127a0919061316d565b60405180910390fd5b505b6040517f08c379a00000000000000000000000000000000000000000000000000000000081526004016127dd9061486e565b60405180910390fd5b63f23a6e6160e01b7bffffffffffffffffffffffffffffffffffffffffffffffffffffffff1916817bffffffffffffffffffffffffffffffffffffffffffffffffffffffff19161461286d576040517f08c379a000000000000000000000000000000000000000000000000000000000815260040161286490614900565b60405180910390fd5b505b505050505050565b6128968473ffffffffffffffffffffffffffffffffffffffff16612c91565b15612a56578373ffffffffffffffffffffffffffffffffffffffff1663bc197c8187878686866040518663ffffffff1660e01b81526004016128dc959493929190614920565b602060405180830381600087803b1580156128f657600080fd5b505af192505050801561292757506040513d601f19601f82011682018060405250810190612924919061470a565b60015b6129cd57612933614744565b806308c379a014156129905750612948614766565b806129535750612992565b806040517f08c379a0000000000000000000000000000000000000000000000000000000008152600401612987919061316d565b60405180910390fd5b505b6040517f08c379a00000000000000000000000000000000000000000000000000000000081526004016129c49061486e565b60405180910390fd5b63bc197c8160e01b7bffffffffffffffffffffffffffffffffffffffffffffffffffffffff1916817bffffffffffffffffffffffffffffffffffffffffffffffffffffffff191614612a54576040517f08c379a0000000000000000000000000000000000000000000000000000000008152600401612a4b90614900565b60405180910390fd5b505b505050505050565b612a66610c09565b612aa5576040517f08c379a0000000000000000000000000000000000000000000000000000000008152600401612a9c906149d4565b60405180910390fd5b565b6060612ab68484600085612cb4565b90509392505050565b612acd868686868686612dc8565b600073ffffffffffffffffffffffffffffffffffffffff168573ffffffffffffffffffffffffffffffffffffffff161415612b7f5760005b8351811015612b7d57828181518110612b2157612b20613ec5565b5b602002602001015160036000868481518110612b4057612b3f613ec5565b5b602002602001015181526020019081526020016000206000828254612b659190613ef4565b9250508190555080612b7690613d58565b9050612b05565b505b600073ffffffffffffffffffffffffffffffffffffffff168473ffffffffffffffffffffffffffffffffffffffff161415612c895760005b8351811015612c87576000848281518110612bd557612bd4613ec5565b5b602002602001015190506000848381518110612bf457612bf3613ec5565b5b6020026020010151905060006003600084815260200190815260200160002054905081811015612c59576040517f08c379a0000000000000000000000000000000000000000000000000000000008152600401612c5090614a66565b60405180910390fd5b818103600360008581526020019081526020016000208190555050505080612c8090613d58565b9050612bb7565b505b505050505050565b6000808273ffffffffffffffffffffffffffffffffffffffff163b119050919050565b606082471015612cf9576040517f08c379a0000000000000000000000000000000000000000000000000000000008152600401612cf090614af8565b60405180910390fd5b612d0285612c91565b612d41576040517f08c379a0000000000000000000000000000000000000000000000000000000008152600401612d3890614b64565b60405180910390fd5b6000808673ffffffffffffffffffffffffffffffffffffffff168587604051612d6a9190614bc0565b60006040518083038185875af1925050503d8060008114612da7576040519150601f19603f3d011682016040523d82523d6000602084013e612dac565b606091505b5091509150612dbc828286612dd0565b92505050949350505050565b505050505050565b60608315612de057829050612e30565b600083511115612df35782518084602001fd5b816040517f08c379a0000000000000000000000000000000000000000000000000000000008152600401612e27919061316d565b60405180910390fd5b9392505050565b828054612e4390613c5f565b90600052602060002090601f016020900481019282612e655760008555612eac565b82601f10612e7e57805160ff1916838001178555612eac565b82800160010185558215612eac579182015b82811115612eab578251825591602001919060010190612e90565b5b509050612eb99190612ebd565b5090565b5b80821115612ed6576000816000905550600101612ebe565b5090565b6000604051905090565b600080fd5b600080fd5b600073ffffffffffffffffffffffffffffffffffffffff82169050919050565b6000612f1982612eee565b9050919050565b612f2981612f0e565b8114612f3457600080fd5b50565b600081359050612f4681612f20565b92915050565b6000819050919050565b612f5f81612f4c565b8114612f6a57600080fd5b50565b600081359050612f7c81612f56565b92915050565b60008060408385031215612f9957612f98612ee4565b5b6000612fa785828601612f37565b9250506020612fb885828601612f6d565b9150509250929050565b612fcb81612f4c565b82525050565b6000602082019050612fe66000830184612fc2565b92915050565b60007fffffffff0000000000000000000000000000000000000000000000000000000082169050919050565b61302181612fec565b811461302c57600080fd5b50565b60008135905061303e81613018565b92915050565b60006020828403121561305a57613059612ee4565b5b60006130688482850161302f565b91505092915050565b60008115159050919050565b61308681613071565b82525050565b60006020820190506130a1600083018461307d565b92915050565b6000602082840312156130bd576130bc612ee4565b5b60006130cb84828501612f6d565b91505092915050565b600081519050919050565b600082825260208201905092915050565b60005b8381101561310e5780820151818401526020810190506130f3565b8381111561311d576000848401525b50505050565b6000601f19601f8301169050919050565b600061313f826130d4565b61314981856130df565b93506131598185602086016130f0565b61316281613123565b840191505092915050565b600060208201905081810360008301526131878184613134565b905092915050565b600080fd5b600080fd5b7f4e487b7100000000000000000000000000000000000000000000000000000000600052604160045260246000fd5b6131d182613123565b810181811067ffffffffffffffff821117156131f0576131ef613199565b5b80604052505050565b6000613203612eda565b905061320f82826131c8565b919050565b600067ffffffffffffffff82111561322f5761322e613199565b5b61323882613123565b9050602081019050919050565b82818337600083830152505050565b600061326761326284613214565b6131f9565b90508281526020810184848401111561328357613282613194565b5b61328e848285613245565b509392505050565b600082601f8301126132ab576132aa61318f565b5b81356132bb848260208601613254565b91505092915050565b600067ffffffffffffffff82169050919050565b6132e1816132c4565b81146132ec57600080fd5b50565b6000813590506132fe816132d8565b92915050565b60008060008060008060c0878903121561332157613320612ee4565b5b600061332f89828a01612f6d565b965050602061334089828a01612f37565b955050604061335189828a01612f6d565b945050606087013567ffffffffffffffff81111561337257613371612ee9565b5b61337e89828a01613296565b935050608061338f89828a016132ef565b92505060a06133a089828a016132ef565b9150509295509295509295565b600067ffffffffffffffff8211156133c8576133c7613199565b5b602082029050602081019050919050565b600080fd5b60006133f16133ec846133ad565b6131f9565b90508083825260208201905060208402830185811115613414576134136133d9565b5b835b8181101561343d57806134298882612f6d565b845260208401935050602081019050613416565b5050509392505050565b600082601f83011261345c5761345b61318f565b5b813561346c8482602086016133de565b91505092915050565b600067ffffffffffffffff8211156134905761348f613199565b5b61349982613123565b9050602081019050919050565b60006134b96134b484613475565b6131f9565b9050828152602081018484840111156134d5576134d4613194565b5b6134e0848285613245565b509392505050565b600082601f8301126134fd576134fc61318f565b5b813561350d8482602086016134a6565b91505092915050565b600080600080600060a0868803121561353257613531612ee4565b5b600061354088828901612f37565b955050602061355188828901612f37565b945050604086013567ffffffffffffffff81111561357257613571612ee9565b5b61357e88828901613447565b935050606086013567ffffffffffffffff81111561359f5761359e612ee9565b5b6135ab88828901613447565b925050608086013567ffffffffffffffff8111156135cc576135cb612ee9565b5b6135d8888289016134e8565b9150509295509295909350565b600067ffffffffffffffff821115613600576135ff613199565b5b602082029050602081019050919050565b600061362461361f846135e5565b6131f9565b90508083825260208201905060208402830185811115613647576136466133d9565b5b835b81811015613670578061365c8882612f37565b845260208401935050602081019050613649565b5050509392505050565b600082601f83011261368f5761368e61318f565b5b813561369f848260208601613611565b91505092915050565b600080604083850312156136bf576136be612ee4565b5b600083013567ffffffffffffffff8111156136dd576136dc612ee9565b5b6136e98582860161367a565b925050602083013567ffffffffffffffff81111561370a57613709612ee9565b5b61371685828601613447565b9150509250929050565b600081519050919050565b600082825260208201905092915050565b6000819050602082019050919050565b61375581612f4c565b82525050565b6000613767838361374c565b60208301905092915050565b6000602082019050919050565b600061378b82613720565b613795818561372b565b93506137a08361373c565b8060005b838110156137d15781516137b8888261375b565b97506137c383613773565b9250506001810190506137a4565b5085935050505092915050565b600060208201905081810360008301526137f88184613780565b905092915050565b60008060006060848603121561381957613818612ee4565b5b600061382786828701612f37565b935050602084013567ffffffffffffffff81111561384857613847612ee9565b5b61385486828701613447565b925050604084013567ffffffffffffffff81111561387557613874612ee9565b5b61388186828701613447565b9150509250925092565b61389481612f0e565b82525050565b6138a3816132c4565b82525050565b600060c0820190506138be600083018961388b565b6138cb6020830188612fc2565b6138d86040830187612fc2565b81810360608301526138ea8186613134565b90506138f9608083018561389a565b61390660a083018461389a565b979650505050505050565b6000806040838503121561392857613927612ee4565b5b600061393685828601612f6d565b925050602083013567ffffffffffffffff81111561395757613956612ee9565b5b61396385828601613296565b9150509250929050565b60008060006060848603121561398657613985612ee4565b5b600061399486828701612f6d565b93505060206139a586828701612f6d565b92505060406139b686828701612f6d565b9150509250925092565b60006020820190506139d5600083018461388b565b92915050565b6139e481613071565b81146139ef57600080fd5b50565b600081359050613a01816139db565b92915050565b60008060408385031215613a1e57613a1d612ee4565b5b6000613a2c85828601612f37565b9250506020613a3d858286016139f2565b9150509250929050565b60008060408385031215613a5e57613a5d612ee4565b5b6000613a6c85828601612f37565b9250506020613a7d85828601612f37565b9150509250929050565b600080600080600060a08688031215613aa357613aa2612ee4565b5b6000613ab188828901612f37565b9550506020613ac288828901612f37565b9450506040613ad388828901612f6d565b9350506060613ae488828901612f6d565b925050608086013567ffffffffffffffff811115613b0557613b04612ee9565b5b613b11888289016134e8565b9150509295509295909350565b600060208284031215613b3457613b33612ee4565b5b6000613b4284828501612f37565b91505092915050565b600080600060608486031215613b6457613b63612ee4565b5b6000613b7286828701612f37565b9350506020613b8386828701612f6d565b9250506040613b9486828701612f6d565b9150509250925092565b7f455243313135353a2061646472657373207a65726f206973206e6f742061207660008201527f616c6964206f776e657200000000000000000000000000000000000000000000602082015250565b6000613bfa602a836130df565b9150613c0582613b9e565b604082019050919050565b60006020820190508181036000830152613c2981613bed565b9050919050565b7f4e487b7100000000000000000000000000000000000000000000000000000000600052602260045260246000fd5b60006002820490506001821680613c7757607f821691505b60208210811415613c8b57613c8a613c30565b5b50919050565b7f4e487b7100000000000000000000000000000000000000000000000000000000600052601160045260246000fd5b6000613ccb826132c4565b9150613cd6836132c4565b92508267ffffffffffffffff03821115613cf357613cf2613c91565b5b828201905092915050565b6000613d0982612f4c565b9150613d1483612f4c565b9250817fffffffffffffffffffffffffffffffffffffffffffffffffffffffffffffffff0483118215151615613d4d57613d4c613c91565b5b828202905092915050565b6000613d6382612f4c565b91507fffffffffffffffffffffffffffffffffffffffffffffffffffffffffffffffff821415613d9657613d95613c91565b5b600182019050919050565b7f455243313135353a2063616c6c6572206973206e6f7420746f6b656e206f776e60008201527f6572206e6f7220617070726f7665640000000000000000000000000000000000602082015250565b6000613dfd602f836130df565b9150613e0882613da1565b604082019050919050565b60006020820190508181036000830152613e2c81613df0565b9050919050565b7f455243313135353a206163636f756e747320616e6420696473206c656e67746860008201527f206d69736d617463680000000000000000000000000000000000000000000000602082015250565b6000613e8f6029836130df565b9150613e9a82613e33565b604082019050919050565b60006020820190508181036000830152613ebe81613e82565b9050919050565b7f4e487b7100000000000000000000000000000000000000000000000000000000600052603260045260246000fd5b6000613eff82612f4c565b9150613f0a83612f4c565b9250827fffffffffffffffffffffffffffffffffffffffffffffffffffffffffffffffff03821115613f3f57613f3e613c91565b5b828201905092915050565b6000604082019050613f5f600083018561388b565b613f6c6020830184612fc2565b9392505050565b7f4f776e61626c653a206e6577206f776e657220697320746865207a65726f206160008201527f6464726573730000000000000000000000000000000000000000000000000000602082015250565b6000613fcf6026836130df565b9150613fda82613f73565b604082019050919050565b60006020820190508181036000830152613ffe81613fc2565b9050919050565b7f4f776e61626c653a2063616c6c6572206973206e6f7420746865206f776e6572600082015250565b600061403b6020836130df565b915061404682614005565b602082019050919050565b6000602082019050818103600083015261406a8161402e565b9050919050565b7f455243313135353a206d696e7420746f20746865207a65726f2061646472657360008201527f7300000000000000000000000000000000000000000000000000000000000000602082015250565b60006140cd6021836130df565b91506140d882614071565b604082019050919050565b600060208201905081810360008301526140fc816140c0565b9050919050565b60006040820190506141186000830185612fc2565b6141256020830184612fc2565b9392505050565b7f455243313135353a2069647320616e6420616d6f756e7473206c656e6774682060008201527f6d69736d61746368000000000000000000000000000000000000000000000000602082015250565b60006141886028836130df565b91506141938261412c565b604082019050919050565b600060208201905081810360008301526141b78161417b565b9050919050565b7f455243313135353a207472616e7366657220746f20746865207a65726f20616460008201527f6472657373000000000000000000000000000000000000000000000000000000602082015250565b600061421a6025836130df565b9150614225826141be565b604082019050919050565b600060208201905081810360008301526142498161420d565b9050919050565b7f455243313135353a20696e73756666696369656e742062616c616e636520666f60008201527f72207472616e7366657200000000000000000000000000000000000000000000602082015250565b60006142ac602a836130df565b91506142b782614250565b604082019050919050565b600060208201905081810360008301526142db8161429f565b9050919050565b600060408201905081810360008301526142fc8185613780565b905081810360208301526143108184613780565b90509392505050565b7f455243313135353a206275726e2066726f6d20746865207a65726f206164647260008201527f6573730000000000000000000000000000000000000000000000000000000000602082015250565b60006143756023836130df565b915061438082614319565b604082019050919050565b600060208201905081810360008301526143a481614368565b9050919050565b7f455243313135353a206275726e20616d6f756e7420657863656564732062616c60008201527f616e636500000000000000000000000000000000000000000000000000000000602082015250565b60006144076024836130df565b9150614412826143ab565b604082019050919050565b60006020820190508181036000830152614436816143fa565b9050919050565b7f5061757361626c653a2070617573656400000000000000000000000000000000600082015250565b60006144736010836130df565b915061447e8261443d565b602082019050919050565b600060208201905081810360008301526144a281614466565b9050919050565b60006060820190506144be600083018661388b565b6144cb602083018561388b565b6144d86040830184612fc2565b949350505050565b7f455243313135353a2073657474696e6720617070726f76616c2073746174757360008201527f20666f722073656c660000000000000000000000000000000000000000000000602082015250565b600061453c6029836130df565b9150614547826144e0565b604082019050919050565b6000602082019050818103600083015261456b8161452f565b9050919050565b600081519050614581816139db565b92915050565b60006020828403121561459d5761459c612ee4565b5b60006145ab84828501614572565b91505092915050565b7f5361666545524332303a204552433230206f7065726174696f6e20646964206e60008201527f6f74207375636365656400000000000000000000000000000000000000000000602082015250565b6000614610602a836130df565b915061461b826145b4565b604082019050919050565b6000602082019050818103600083015261463f81614603565b9050919050565b600081519050919050565b600082825260208201905092915050565b600061466d82614646565b6146778185614651565b93506146878185602086016130f0565b61469081613123565b840191505092915050565b600060a0820190506146b0600083018861388b565b6146bd602083018761388b565b6146ca6040830186612fc2565b6146d76060830185612fc2565b81810360808301526146e98184614662565b90509695505050505050565b60008151905061470481613018565b92915050565b6000602082840312156147205761471f612ee4565b5b600061472e848285016146f5565b91505092915050565b60008160e01c9050919050565b600060033d11156147635760046000803e614760600051614737565b90505b90565b600060443d1015614776576147f9565b61477e612eda565b60043d036004823e80513d602482011167ffffffffffffffff821117156147a65750506147f9565b808201805167ffffffffffffffff8111156147c457505050506147f9565b80602083010160043d0385018111156147e15750505050506147f9565b6147f0826020018501866131c8565b82955050505050505b90565b7f455243313135353a207472616e7366657220746f206e6f6e204552433131353560008201527f526563656976657220696d706c656d656e746572000000000000000000000000602082015250565b60006148586034836130df565b9150614863826147fc565b604082019050919050565b600060208201905081810360008301526148878161484b565b9050919050565b7f455243313135353a204552433131353552656365697665722072656a6563746560008201527f6420746f6b656e73000000000000000000000000000000000000000000000000602082015250565b60006148ea6028836130df565b91506148f58261488e565b604082019050919050565b60006020820190508181036000830152614919816148dd565b9050919050565b600060a082019050614935600083018861388b565b614942602083018761388b565b81810360408301526149548186613780565b905081810360608301526149688185613780565b9050818103608083015261497c8184614662565b90509695505050505050565b7f5061757361626c653a206e6f7420706175736564000000000000000000000000600082015250565b60006149be6014836130df565b91506149c982614988565b602082019050919050565b600060208201905081810360008301526149ed816149b1565b9050919050565b7f455243313135353a206275726e20616d6f756e74206578636565647320746f7460008201527f616c537570706c79000000000000000000000000000000000000000000000000602082015250565b6000614a506028836130df565b9150614a5b826149f4565b604082019050919050565b60006020820190508181036000830152614a7f81614a43565b9050919050565b7f416464726573733a20696e73756666696369656e742062616c616e636520666f60008201527f722063616c6c0000000000000000000000000000000000000000000000000000602082015250565b6000614ae26026836130df565b9150614aed82614a86565b604082019050919050565b60006020820190508181036000830152614b1181614ad5565b9050919050565b7f416464726573733a2063616c6c20746f206e6f6e2d636f6e7472616374000000600082015250565b6000614b4e601d836130df565b9150614b5982614b18565b602082019050919050565b60006020820190508181036000830152614b7d81614b41565b9050919050565b600081905092915050565b6000614b9a82614646565b614ba48185614b84565b9350614bb48185602086016130f0565b80840191505092915050565b6000614bcc8284614b8f565b91508190509291505056fea26469706673582212207bae6df765fdcc412b5fc01af4da054f02fb31931073758bc3f919728854cb5b64736f6c63430008090033",
  "devdoc": {
    "kind": "dev",
    "methods": {
      "balanceOf(address,uint256)": {
        "details": "See {IERC1155-balanceOf}. Requirements: - `account` cannot be the zero address."
      },
      "balanceOfBatch(address[],uint256[])": {
        "details": "See {IERC1155-balanceOfBatch}. Requirements: - `accounts` and `ids` must have the same length."
      },
      "exists(uint256)": {
        "details": "Indicates whether any token exist with a given id, or not."
      },
      "isApprovedForAll(address,address)": {
        "details": "See {IERC1155-isApprovedForAll}."
      },
      "owner()": {
        "details": "Returns the address of the current owner."
      },
      "paused()": {
        "details": "Returns true if the contract is paused, and false otherwise."
      },
      "renounceOwnership()": {
        "details": "Leaves the contract without owner. It will not be possible to call `onlyOwner` functions anymore. Can only be called by the current owner. NOTE: Renouncing ownership will leave the contract without an owner, thereby removing any functionality that is only available to the owner."
      },
      "safeBatchTransferFrom(address,address,uint256[],uint256[],bytes)": {
        "details": "See {IERC1155-safeBatchTransferFrom}."
      },
      "safeTransferFrom(address,address,uint256,uint256,bytes)": {
        "details": "See {IERC1155-safeTransferFrom}."
      },
      "setApprovalForAll(address,bool)": {
        "details": "See {IERC1155-setApprovalForAll}."
      },
      "supportsInterface(bytes4)": {
        "details": "See {IERC165-supportsInterface}."
      },
      "totalSupply(uint256)": {
        "details": "Total amount of tokens in with a given id."
      },
      "transferOwnership(address)": {
        "details": "Transfers ownership of the contract to a new account (`newOwner`). Can only be called by the current owner."
      }
    },
    "version": 1
  },
  "userdoc": {
    "kind": "user",
    "methods": {
      "claim(address,uint256)": {
        "notice": "Nft holders claim their interest and principal."
      },
      "repay(uint256,uint256,uint256)": {
        "notice": "Admin repays to let users claim. You can repay several times because all `_finalValue`s are summed up."
      },
      "withdrawResidue(uint256)": {
        "notice": "Admin withdraws the money to repay later when users do not claim for a long time. NOTE: Do not _burn to allow users claim later."
      }
    },
    "notice": "This repays the interest & principal at once until the maturity date. This contract has no need to The admin mint and sell NFT",
    "version": 1
  },
  "storageLayout": {
    "storage": [
      {
        "astId": 246,
        "contract": "contracts/BulletBond.sol:BulletBond",
        "label": "_balances",
        "offset": 0,
        "slot": "0",
        "type": "t_mapping(t_uint256,t_mapping(t_address,t_uint256))"
      },
      {
        "astId": 252,
        "contract": "contracts/BulletBond.sol:BulletBond",
        "label": "_operatorApprovals",
        "offset": 0,
        "slot": "1",
        "type": "t_mapping(t_address,t_mapping(t_address,t_bool))"
      },
      {
        "astId": 254,
        "contract": "contracts/BulletBond.sol:BulletBond",
        "label": "_uri",
        "offset": 0,
        "slot": "2",
        "type": "t_string_storage"
      },
      {
        "astId": 1733,
        "contract": "contracts/BulletBond.sol:BulletBond",
        "label": "_totalSupply",
        "offset": 0,
        "slot": "3",
        "type": "t_mapping(t_uint256,t_uint256)"
      },
      {
        "astId": 7,
        "contract": "contracts/BulletBond.sol:BulletBond",
        "label": "_owner",
        "offset": 0,
        "slot": "4",
        "type": "t_address"
      },
      {
        "astId": 130,
        "contract": "contracts/BulletBond.sol:BulletBond",
        "label": "_paused",
        "offset": 20,
        "slot": "4",
        "type": "t_bool"
      },
      {
        "astId": 3313,
        "contract": "contracts/BulletBond.sol:BulletBond",
        "label": "products",
        "offset": 0,
        "slot": "5",
        "type": "t_mapping(t_uint256,t_struct(Product)3308_storage)"
      },
      {
        "astId": 3315,
        "contract": "contracts/BulletBond.sol:BulletBond",
        "label": "numProducts",
        "offset": 0,
        "slot": "6",
        "type": "t_uint256"
      }
    ],
    "types": {
      "t_address": {
        "encoding": "inplace",
        "label": "address",
        "numberOfBytes": "20"
      },
      "t_bool": {
        "encoding": "inplace",
        "label": "bool",
        "numberOfBytes": "1"
      },
      "t_mapping(t_address,t_bool)": {
        "encoding": "mapping",
        "key": "t_address",
        "label": "mapping(address => bool)",
        "numberOfBytes": "32",
        "value": "t_bool"
      },
      "t_mapping(t_address,t_mapping(t_address,t_bool))": {
        "encoding": "mapping",
        "key": "t_address",
        "label": "mapping(address => mapping(address => bool))",
        "numberOfBytes": "32",
        "value": "t_mapping(t_address,t_bool)"
      },
      "t_mapping(t_address,t_uint256)": {
        "encoding": "mapping",
        "key": "t_address",
        "label": "mapping(address => uint256)",
        "numberOfBytes": "32",
        "value": "t_uint256"
      },
      "t_mapping(t_uint256,t_mapping(t_address,t_uint256))": {
        "encoding": "mapping",
        "key": "t_uint256",
        "label": "mapping(uint256 => mapping(address => uint256))",
        "numberOfBytes": "32",
        "value": "t_mapping(t_address,t_uint256)"
      },
      "t_mapping(t_uint256,t_struct(Product)3308_storage)": {
        "encoding": "mapping",
        "key": "t_uint256",
        "label": "mapping(uint256 => struct BulletBond.Product)",
        "numberOfBytes": "32",
        "value": "t_struct(Product)3308_storage"
      },
      "t_mapping(t_uint256,t_uint256)": {
        "encoding": "mapping",
        "key": "t_uint256",
        "label": "mapping(uint256 => uint256)",
        "numberOfBytes": "32",
        "value": "t_uint256"
      },
      "t_string_storage": {
        "encoding": "bytes",
        "label": "string",
        "numberOfBytes": "32"
      },
      "t_struct(Product)3308_storage": {
        "encoding": "inplace",
        "label": "struct BulletBond.Product",
        "members": [
          {
            "astId": 3297,
            "contract": "contracts/BulletBond.sol:BulletBond",
            "label": "token",
            "offset": 0,
            "slot": "0",
            "type": "t_address"
          },
          {
            "astId": 3299,
            "contract": "contracts/BulletBond.sol:BulletBond",
            "label": "value",
            "offset": 0,
            "slot": "1",
            "type": "t_uint256"
          },
          {
            "astId": 3301,
            "contract": "contracts/BulletBond.sol:BulletBond",
            "label": "finalValue",
            "offset": 0,
            "slot": "2",
            "type": "t_uint256"
          },
          {
            "astId": 3303,
            "contract": "contracts/BulletBond.sol:BulletBond",
            "label": "uri",
            "offset": 0,
            "slot": "3",
            "type": "t_string_storage"
          },
          {
            "astId": 3305,
            "contract": "contracts/BulletBond.sol:BulletBond",
            "label": "startTs",
            "offset": 0,
            "slot": "4",
            "type": "t_uint64"
          },
          {
            "astId": 3307,
            "contract": "contracts/BulletBond.sol:BulletBond",
            "label": "endTs",
            "offset": 8,
            "slot": "4",
            "type": "t_uint64"
          }
        ],
        "numberOfBytes": "160"
      },
      "t_uint256": {
        "encoding": "inplace",
        "label": "uint256",
        "numberOfBytes": "32"
      },
      "t_uint64": {
        "encoding": "inplace",
        "label": "uint64",
        "numberOfBytes": "8"
      }
    }
  }
}