{
  "address": "0x2120602E1cb8b9F52d14b7950Eb8CE91323cE450",
  "abi": [
    {
      "inputs": [],
      "stateMutability": "nonpayable",
      "type": "constructor"
    },
    {
      "inputs": [
        {
          "internalType": "uint256",
          "name": "id",
          "type": "uint256"
        }
      ],
      "name": "AlreadyRepaid",
      "type": "error"
    },
    {
      "inputs": [
        {
          "internalType": "address",
          "name": "from",
          "type": "address"
        },
        {
          "internalType": "uint256",
          "name": "id",
          "type": "uint256"
        }
      ],
      "name": "EarlyClaim",
      "type": "error"
    },
    {
      "inputs": [],
      "name": "EarlyWithdraw",
      "type": "error"
    },
    {
      "inputs": [],
      "name": "InvalidFinalValue",
      "type": "error"
    },
    {
      "inputs": [
        {
          "internalType": "uint256",
          "name": "id",
          "type": "uint256"
        }
      ],
      "name": "NotRepaid",
      "type": "error"
    },
    {
      "inputs": [],
      "name": "ZeroBalanceClaim",
      "type": "error"
    },
    {
      "inputs": [
        {
          "internalType": "uint256",
          "name": "id",
          "type": "uint256"
        }
      ],
      "name": "ZeroBalanceWithdraw",
      "type": "error"
    },
    {
      "anonymous": false,
      "inputs": [
        {
          "indexed": true,
          "internalType": "address",
          "name": "account",
          "type": "address"
        },
        {
          "indexed": true,
          "internalType": "address",
          "name": "operator",
          "type": "address"
        },
        {
          "indexed": false,
          "internalType": "bool",
          "name": "approved",
          "type": "bool"
        }
      ],
      "name": "ApprovalForAll",
      "type": "event"
    },
    {
      "anonymous": false,
      "inputs": [
        {
          "indexed": true,
          "internalType": "uint256",
          "name": "id",
          "type": "uint256"
        },
        {
          "indexed": false,
          "internalType": "uint256",
          "name": "amount",
          "type": "uint256"
        }
      ],
      "name": "Claimed",
      "type": "event"
    },
    {
      "anonymous": false,
      "inputs": [
        {
          "indexed": true,
          "internalType": "address",
          "name": "previousOwner",
          "type": "address"
        },
        {
          "indexed": true,
          "internalType": "address",
          "name": "newOwner",
          "type": "address"
        }
      ],
      "name": "OwnershipTransferred",
      "type": "event"
    },
    {
      "anonymous": false,
      "inputs": [
        {
          "indexed": false,
          "internalType": "address",
          "name": "account",
          "type": "address"
        }
      ],
      "name": "Paused",
      "type": "event"
    },
    {
      "anonymous": false,
      "inputs": [
        {
          "indexed": true,
          "internalType": "uint256",
          "name": "id",
          "type": "uint256"
        }
      ],
      "name": "ProductAdded",
      "type": "event"
    },
    {
      "anonymous": false,
      "inputs": [
        {
          "indexed": true,
          "internalType": "uint256",
          "name": "id",
          "type": "uint256"
        },
        {
          "indexed": false,
          "internalType": "uint256",
          "name": "repayAmount",
          "type": "uint256"
        },
        {
          "indexed": false,
          "internalType": "uint256",
          "name": "leftAmount",
          "type": "uint256"
        }
      ],
      "name": "Repaid",
      "type": "event"
    },
    {
      "anonymous": false,
      "inputs": [
        {
          "indexed": true,
          "internalType": "address",
          "name": "operator",
          "type": "address"
        },
        {
          "indexed": true,
          "internalType": "address",
          "name": "from",
          "type": "address"
        },
        {
          "indexed": true,
          "internalType": "address",
          "name": "to",
          "type": "address"
        },
        {
          "indexed": false,
          "internalType": "uint256[]",
          "name": "ids",
          "type": "uint256[]"
        },
        {
          "indexed": false,
          "internalType": "uint256[]",
          "name": "values",
          "type": "uint256[]"
        }
      ],
      "name": "TransferBatch",
      "type": "event"
    },
    {
      "anonymous": false,
      "inputs": [
        {
          "indexed": true,
          "internalType": "address",
          "name": "operator",
          "type": "address"
        },
        {
          "indexed": true,
          "internalType": "address",
          "name": "from",
          "type": "address"
        },
        {
          "indexed": true,
          "internalType": "address",
          "name": "to",
          "type": "address"
        },
        {
          "indexed": false,
          "internalType": "uint256",
          "name": "id",
          "type": "uint256"
        },
        {
          "indexed": false,
          "internalType": "uint256",
          "name": "value",
          "type": "uint256"
        }
      ],
      "name": "TransferSingle",
      "type": "event"
    },
    {
      "anonymous": false,
      "inputs": [
        {
          "indexed": false,
          "internalType": "string",
          "name": "value",
          "type": "string"
        },
        {
          "indexed": true,
          "internalType": "uint256",
          "name": "id",
          "type": "uint256"
        }
      ],
      "name": "URI",
      "type": "event"
    },
    {
      "anonymous": false,
      "inputs": [
        {
          "indexed": false,
          "internalType": "address",
          "name": "account",
          "type": "address"
        }
      ],
      "name": "Unpaused",
      "type": "event"
    },
    {
      "inputs": [
        {
          "internalType": "address",
          "name": "_token",
          "type": "address"
        },
        {
          "internalType": "uint256",
          "name": "_value",
          "type": "uint256"
        },
        {
          "internalType": "uint256",
          "name": "_baseInterestPerSecond",
          "type": "uint256"
        },
        {
          "internalType": "uint256",
          "name": "_overdueInterestPerSecond",
          "type": "uint256"
        },
        {
          "internalType": "string",
          "name": "_uri",
          "type": "string"
        },
        {
          "internalType": "uint64",
          "name": "_startTs",
          "type": "uint64"
        },
        {
          "internalType": "uint64",
          "name": "_endTs",
          "type": "uint64"
        }
      ],
      "name": "addProduct",
      "outputs": [],
      "stateMutability": "nonpayable",
      "type": "function"
    },
    {
      "inputs": [
        {
          "internalType": "address",
          "name": "account",
          "type": "address"
        },
        {
          "internalType": "uint256",
          "name": "id",
          "type": "uint256"
        }
      ],
      "name": "balanceOf",
      "outputs": [
        {
          "internalType": "uint256",
          "name": "",
          "type": "uint256"
        }
      ],
      "stateMutability": "view",
      "type": "function"
    },
    {
      "inputs": [
        {
          "internalType": "address[]",
          "name": "accounts",
          "type": "address[]"
        },
        {
          "internalType": "uint256[]",
          "name": "ids",
          "type": "uint256[]"
        }
      ],
      "name": "balanceOfBatch",
      "outputs": [
        {
          "internalType": "uint256[]",
          "name": "",
          "type": "uint256[]"
        }
      ],
      "stateMutability": "view",
      "type": "function"
    },
    {
      "inputs": [
        {
          "internalType": "address",
          "name": "account",
          "type": "address"
        },
        {
          "internalType": "uint256",
          "name": "id",
          "type": "uint256"
        },
        {
          "internalType": "uint256",
          "name": "value",
          "type": "uint256"
        }
      ],
      "name": "burn",
      "outputs": [],
      "stateMutability": "nonpayable",
      "type": "function"
    },
    {
      "inputs": [
        {
          "internalType": "address",
          "name": "account",
          "type": "address"
        },
        {
          "internalType": "uint256[]",
          "name": "ids",
          "type": "uint256[]"
        },
        {
          "internalType": "uint256[]",
          "name": "values",
          "type": "uint256[]"
        }
      ],
      "name": "burnBatch",
      "outputs": [],
      "stateMutability": "nonpayable",
      "type": "function"
    },
    {
      "inputs": [
        {
          "internalType": "address",
          "name": "_to",
          "type": "address"
        },
        {
          "internalType": "uint256",
          "name": "_id",
          "type": "uint256"
        }
      ],
      "name": "claim",
      "outputs": [],
      "stateMutability": "nonpayable",
      "type": "function"
    },
    {
      "inputs": [
        {
          "internalType": "uint256",
          "name": "id",
          "type": "uint256"
        }
      ],
      "name": "exists",
      "outputs": [
        {
          "internalType": "bool",
          "name": "",
          "type": "bool"
        }
      ],
      "stateMutability": "view",
      "type": "function"
    },
    {
      "inputs": [
        {
          "internalType": "uint256",
          "name": "_id",
          "type": "uint256"
        }
      ],
      "name": "getTotalDebt",
      "outputs": [
        {
          "internalType": "uint256",
          "name": "",
          "type": "uint256"
        }
      ],
      "stateMutability": "view",
      "type": "function"
    },
    {
      "inputs": [
        {
          "internalType": "address",
          "name": "_to",
          "type": "address"
        },
        {
          "internalType": "uint256",
          "name": "_id",
          "type": "uint256"
        }
      ],
      "name": "getUnclaimedInterest",
      "outputs": [
        {
          "internalType": "uint256",
          "name": "",
          "type": "uint256"
        }
      ],
      "stateMutability": "view",
      "type": "function"
    },
    {
      "inputs": [
        {
          "internalType": "uint256",
          "name": "_id",
          "type": "uint256"
        }
      ],
      "name": "getUnitDebt",
      "outputs": [
        {
          "internalType": "uint256",
          "name": "",
          "type": "uint256"
        }
      ],
      "stateMutability": "view",
      "type": "function"
    },
    {
      "inputs": [
        {
          "internalType": "uint256",
          "name": "_id",
          "type": "uint256"
        }
      ],
      "name": "getUnpaidDebt",
      "outputs": [
        {
          "internalType": "uint256",
          "name": "",
          "type": "uint256"
        }
      ],
      "stateMutability": "view",
      "type": "function"
    },
    {
      "inputs": [
        {
          "internalType": "address",
          "name": "account",
          "type": "address"
        },
        {
          "internalType": "address",
          "name": "operator",
          "type": "address"
        }
      ],
      "name": "isApprovedForAll",
      "outputs": [
        {
          "internalType": "bool",
          "name": "",
          "type": "bool"
        }
      ],
      "stateMutability": "view",
      "type": "function"
    },
    {
      "inputs": [
        {
          "internalType": "uint256",
          "name": "_id",
          "type": "uint256"
        }
      ],
      "name": "isOverdue",
      "outputs": [
        {
          "internalType": "bool",
          "name": "",
          "type": "bool"
        }
      ],
      "stateMutability": "view",
      "type": "function"
    },
    {
      "inputs": [
        {
          "internalType": "uint256",
          "name": "_id",
          "type": "uint256"
        }
      ],
      "name": "isRepaid",
      "outputs": [
        {
          "internalType": "bool",
          "name": "",
          "type": "bool"
        }
      ],
      "stateMutability": "view",
      "type": "function"
    },
    {
      "inputs": [
        {
          "internalType": "uint256",
          "name": "",
          "type": "uint256"
        },
        {
          "internalType": "address",
          "name": "",
          "type": "address"
        }
      ],
      "name": "lastUpdatedTs",
      "outputs": [
        {
          "internalType": "uint256",
          "name": "",
          "type": "uint256"
        }
      ],
      "stateMutability": "view",
      "type": "function"
    },
    {
      "inputs": [
        {
          "internalType": "uint256",
          "name": "_id",
          "type": "uint256"
        },
        {
          "internalType": "address[]",
          "name": "_addresses",
          "type": "address[]"
        },
        {
          "internalType": "uint256[]",
          "name": "_amounts",
          "type": "uint256[]"
        }
      ],
      "name": "mintBatch",
      "outputs": [],
      "stateMutability": "nonpayable",
      "type": "function"
    },
    {
      "inputs": [],
      "name": "numProducts",
      "outputs": [
        {
          "internalType": "uint256",
          "name": "",
          "type": "uint256"
        }
      ],
      "stateMutability": "view",
      "type": "function"
    },
    {
      "inputs": [],
      "name": "owner",
      "outputs": [
        {
          "internalType": "address",
          "name": "",
          "type": "address"
        }
      ],
      "stateMutability": "view",
      "type": "function"
    },
    {
      "inputs": [],
      "name": "pause",
      "outputs": [],
      "stateMutability": "nonpayable",
      "type": "function"
    },
    {
      "inputs": [],
      "name": "paused",
      "outputs": [
        {
          "internalType": "bool",
          "name": "",
          "type": "bool"
        }
      ],
      "stateMutability": "view",
      "type": "function"
    },
    {
      "inputs": [
        {
          "internalType": "address",
          "name": "_account",
          "type": "address"
        },
        {
          "internalType": "uint256",
          "name": "_id",
          "type": "uint256"
        }
      ],
      "name": "previewClaim",
      "outputs": [
        {
          "internalType": "uint256",
          "name": "",
          "type": "uint256"
        }
      ],
      "stateMutability": "view",
      "type": "function"
    },
    {
      "inputs": [
        {
          "internalType": "uint256",
          "name": "",
          "type": "uint256"
        }
      ],
      "name": "products",
      "outputs": [
        {
          "internalType": "address",
          "name": "token",
          "type": "address"
        },
        {
          "internalType": "uint256",
          "name": "value",
          "type": "uint256"
        },
        {
          "internalType": "uint256",
          "name": "baseInterestPerSecond",
          "type": "uint256"
        },
        {
          "internalType": "uint256",
          "name": "overdueInterestPerSecond",
          "type": "uint256"
        },
        {
          "internalType": "string",
          "name": "uri",
          "type": "string"
        },
        {
          "internalType": "uint256",
          "name": "totalRepaid",
          "type": "uint256"
        },
        {
          "internalType": "uint64",
          "name": "startTs",
          "type": "uint64"
        },
        {
          "internalType": "uint64",
          "name": "endTs",
          "type": "uint64"
        },
        {
          "internalType": "uint64",
          "name": "repaidTs",
          "type": "uint64"
        }
      ],
      "stateMutability": "view",
      "type": "function"
    },
    {
      "inputs": [],
      "name": "renounceOwnership",
      "outputs": [],
      "stateMutability": "nonpayable",
      "type": "function"
    },
    {
      "inputs": [
        {
          "internalType": "uint256",
          "name": "_id",
          "type": "uint256"
        },
        {
          "internalType": "uint256",
          "name": "_amount",
          "type": "uint256"
        }
      ],
      "name": "repay",
      "outputs": [],
      "stateMutability": "nonpayable",
      "type": "function"
    },
    {
      "inputs": [
        {
          "internalType": "address",
          "name": "from",
          "type": "address"
        },
        {
          "internalType": "address",
          "name": "to",
          "type": "address"
        },
        {
          "internalType": "uint256[]",
          "name": "ids",
          "type": "uint256[]"
        },
        {
          "internalType": "uint256[]",
          "name": "amounts",
          "type": "uint256[]"
        },
        {
          "internalType": "bytes",
          "name": "data",
          "type": "bytes"
        }
      ],
      "name": "safeBatchTransferFrom",
      "outputs": [],
      "stateMutability": "nonpayable",
      "type": "function"
    },
    {
      "inputs": [
        {
          "internalType": "address",
          "name": "from",
          "type": "address"
        },
        {
          "internalType": "address",
          "name": "to",
          "type": "address"
        },
        {
          "internalType": "uint256",
          "name": "id",
          "type": "uint256"
        },
        {
          "internalType": "uint256",
          "name": "amount",
          "type": "uint256"
        },
        {
          "internalType": "bytes",
          "name": "data",
          "type": "bytes"
        }
      ],
      "name": "safeTransferFrom",
      "outputs": [],
      "stateMutability": "nonpayable",
      "type": "function"
    },
    {
      "inputs": [
        {
          "internalType": "address",
          "name": "operator",
          "type": "address"
        },
        {
          "internalType": "bool",
          "name": "approved",
          "type": "bool"
        }
      ],
      "name": "setApprovalForAll",
      "outputs": [],
      "stateMutability": "nonpayable",
      "type": "function"
    },
    {
      "inputs": [
        {
          "internalType": "uint256",
          "name": "_id",
          "type": "uint256"
        },
        {
          "internalType": "string",
          "name": "_uri",
          "type": "string"
        }
      ],
      "name": "setURI",
      "outputs": [],
      "stateMutability": "nonpayable",
      "type": "function"
    },
    {
      "inputs": [
        {
          "internalType": "bytes4",
          "name": "interfaceId",
          "type": "bytes4"
        }
      ],
      "name": "supportsInterface",
      "outputs": [
        {
          "internalType": "bool",
          "name": "",
          "type": "bool"
        }
      ],
      "stateMutability": "view",
      "type": "function"
    },
    {
      "inputs": [
        {
          "internalType": "uint256",
          "name": "id",
          "type": "uint256"
        }
      ],
      "name": "totalSupply",
      "outputs": [
        {
          "internalType": "uint256",
          "name": "",
          "type": "uint256"
        }
      ],
      "stateMutability": "view",
      "type": "function"
    },
    {
      "inputs": [
        {
          "internalType": "address",
          "name": "newOwner",
          "type": "address"
        }
      ],
      "name": "transferOwnership",
      "outputs": [],
      "stateMutability": "nonpayable",
      "type": "function"
    },
    {
      "inputs": [
        {
          "internalType": "uint256",
          "name": "",
          "type": "uint256"
        },
        {
          "internalType": "address",
          "name": "",
          "type": "address"
        }
      ],
      "name": "unclaimedInterest",
      "outputs": [
        {
          "internalType": "uint256",
          "name": "",
          "type": "uint256"
        }
      ],
      "stateMutability": "view",
      "type": "function"
    },
    {
      "inputs": [],
      "name": "unpause",
      "outputs": [],
      "stateMutability": "nonpayable",
      "type": "function"
    },
    {
      "inputs": [
        {
          "internalType": "uint256",
          "name": "_id",
          "type": "uint256"
        }
      ],
      "name": "uri",
      "outputs": [
        {
          "internalType": "string",
          "name": "",
          "type": "string"
        }
      ],
      "stateMutability": "view",
      "type": "function"
    }
  ],
  "transactionHash": "0x51d7f3574d542bff454de525bdaaa45ab946e0887359238dd3df8c3c9afba49a",
  "args": [],
  "numDeployments": 1,
  "solcInputHash": "857d88ba2e9dbee62ae4a4fd2f84d225",
  "bytecode": "0x60806040523480156200001157600080fd5b506040518060200160405280600081525062000033816200007560201b60201c565b506000600460006101000a81548160ff0219169083151502179055506200006f620000636200009160201b60201c565b6200009960201b60201c565b62000274565b80600290805190602001906200008d9291906200015f565b5050565b600033905090565b6000600460019054906101000a900473ffffffffffffffffffffffffffffffffffffffff16905081600460016101000a81548173ffffffffffffffffffffffffffffffffffffffff021916908373ffffffffffffffffffffffffffffffffffffffff1602179055508173ffffffffffffffffffffffffffffffffffffffff168173ffffffffffffffffffffffffffffffffffffffff167f8be0079c531659141344cd1fd0a4f28419497f9722a3daafe3b4186f6b6457e060405160405180910390a35050565b8280546200016d906200023e565b90600052602060002090601f016020900481019282620001915760008555620001dd565b82601f10620001ac57805160ff1916838001178555620001dd565b82800160010185558215620001dd579182015b82811115620001dc578251825591602001919060010190620001bf565b5b509050620001ec9190620001f0565b5090565b5b808211156200020b576000816000905550600101620001f1565b5090565b7f4e487b7100000000000000000000000000000000000000000000000000000000600052602260045260246000fd5b600060028204905060018216806200025757607f821691505b602082108114156200026e576200026d6200020f565b5b50919050565b6158af80620002846000396000f3fe608060405234801561001057600080fd5b50600436106102055760003560e01c80638456cb591161011a578063bcb8e5a5116100ad578063e985e9c51161007c578063e985e9c51461063a578063f242432a1461066a578063f2fde38b14610686578063f5298aca146106a2578063fea1e1c2146106be57610205565b8063bcb8e5a51461058e578063bd85b039146105be578063d22a0d0f146105ee578063d8aed1451461061e57610205565b8063a22cb465116100e9578063a22cb4651461051c578063aad3ec9614610538578063ac964f2114610554578063b216e5ae1461057257610205565b80638456cb59146104a8578063862440e2146104b25780638da5cb5b146104ce5780638e1eb411146104ec57610205565b80634e1273f41161019d578063715018a61161016c578063715018a6146103d657806371cf7693146103e057806375a397a114610410578063774bc5be146104405780637acc0b201461047057610205565b80634e1273f41461033c5780634f558e791461036c5780635c975abb1461039c5780636b20c454146103ba57610205565b806320e53acb116101d957806320e53acb146102b65780632eb2c2d6146102e65780633f4ba83a14610302578063486501c51461030c57610205565b8062fdd58e1461020a57806301ffc9a71461023a5780630e89341c1461026a5780631449247d1461029a575b600080fd5b610224600480360381019061021f9190613aa3565b6106ee565b6040516102319190613af2565b60405180910390f35b610254600480360381019061024f9190613b65565b6107b7565b6040516102619190613bad565b60405180910390f35b610284600480360381019061027f9190613bc8565b610899565b6040516102919190613c8e565b60405180910390f35b6102b460048036038101906102af9190613ebb565b610941565b005b6102d060048036038101906102cb9190613aa3565b610a1e565b6040516102dd9190613af2565b60405180910390f35b61030060048036038101906102fb9190613ffb565b610a8d565b005b61030a610b2e565b005b61032660048036038101906103219190613bc8565b610b40565b6040516103339190613af2565b60405180910390f35b610356600480360381019061035191906140ca565b610b65565b6040516103639190614200565b60405180910390f35b61038660048036038101906103819190613bc8565b610c7e565b6040516103939190613bad565b60405180910390f35b6103a4610c92565b6040516103b19190613bad565b60405180910390f35b6103d460048036038101906103cf9190614222565b610ca9565b005b6103de610d46565b005b6103fa60048036038101906103f59190613bc8565b610d5a565b6040516104079190613af2565b60405180910390f35b61042a600480360381019061042591906142ad565b610d92565b6040516104379190613af2565b60405180910390f35b61045a60048036038101906104559190613bc8565b610db7565b6040516104679190613af2565b60405180910390f35b61048a60048036038101906104859190613bc8565b610e61565b60405161049f9998979695949392919061431f565b60405180910390f35b6104b0610f93565b005b6104cc60048036038101906104c79190614454565b610fa5565b005b6104d6610fdc565b6040516104e391906144b0565b60405180910390f35b61050660048036038101906105019190613bc8565b611006565b6040516105139190613bad565b60405180910390f35b610536600480360381019061053191906144f7565b611047565b005b610552600480360381019061054d9190613aa3565b61105d565b005b61055c611259565b6040516105699190613af2565b60405180910390f35b61058c60048036038101906105879190614563565b61125f565b005b6105a860048036038101906105a39190613aa3565b611471565b6040516105b59190613af2565b60405180910390f35b6105d860048036038101906105d39190613bc8565b6114da565b6040516105e59190613af2565b60405180910390f35b61060860048036038101906106039190613bc8565b6114f7565b6040516106159190613bad565b60405180910390f35b61063860048036038101906106339190614621565b611537565b005b610654600480360381019061064f9190614661565b6116e0565b6040516106619190613bad565b60405180910390f35b610684600480360381019061067f91906146a1565b611774565b005b6106a0600480360381019061069b9190614738565b611815565b005b6106bc60048036038101906106b79190614765565b611899565b005b6106d860048036038101906106d391906142ad565b611936565b6040516106e59190613af2565b60405180910390f35b60008073ffffffffffffffffffffffffffffffffffffffff168373ffffffffffffffffffffffffffffffffffffffff16141561075f576040517f08c379a00000000000000000000000000000000000000000000000000000000081526004016107569061482a565b60405180910390fd5b60008083815260200190815260200160002060008473ffffffffffffffffffffffffffffffffffffffff1673ffffffffffffffffffffffffffffffffffffffff16815260200190815260200160002054905092915050565b60007fd9b67a26000000000000000000000000000000000000000000000000000000007bffffffffffffffffffffffffffffffffffffffffffffffffffffffff1916827bffffffffffffffffffffffffffffffffffffffffffffffffffffffff1916148061088257507f0e89341c000000000000000000000000000000000000000000000000000000007bffffffffffffffffffffffffffffffffffffffffffffffffffffffff1916827bffffffffffffffffffffffffffffffffffffffffffffffffffffffff1916145b8061089257506108918261195b565b5b9050919050565b60606005600083815260200190815260200160002060040180546108bc90614879565b80601f01602080910402602001604051908101604052809291908181526020018280546108e890614879565b80156109355780601f1061090a57610100808354040283529160200191610935565b820191906000526020600020905b81548152906001019060200180831161091857829003601f168201915b50505050509050919050565b6109496119c5565b60005b82518110156109ab57600083828151811061096a576109696148ab565b5b60200260200101519050610999818685858151811061098c5761098b6148ab565b5b6020026020010151611a43565b50806109a490614909565b905061094c565b5060005b8251811015610a1857610a078382815181106109ce576109cd6148ab565b5b6020026020010151858484815181106109ea576109e96148ab565b5b602002602001015160405180602001604052806000815250611b57565b80610a1190614909565b90506109af565b50505050565b6000610a2a8383611d08565b6008600084815260200190815260200160002060008573ffffffffffffffffffffffffffffffffffffffff1673ffffffffffffffffffffffffffffffffffffffff16815260200190815260200160002054610a859190614952565b905092915050565b610a95611e3c565b73ffffffffffffffffffffffffffffffffffffffff168573ffffffffffffffffffffffffffffffffffffffff161480610adb5750610ada85610ad5611e3c565b6116e0565b5b610b1a576040517f08c379a0000000000000000000000000000000000000000000000000000000008152600401610b1190614a1a565b60405180910390fd5b610b278585858585611e44565b5050505050565b610b366119c5565b610b3e612166565b565b6000610b4b82610db7565b610b54836114da565b610b5e9190614a3a565b9050919050565b60608151835114610bab576040517f08c379a0000000000000000000000000000000000000000000000000000000008152600401610ba290614b06565b60405180910390fd5b6000835167ffffffffffffffff811115610bc857610bc7613cb5565b5b604051908082528060200260200182016040528015610bf65781602001602082028036833780820191505090505b50905060005b8451811015610c7357610c43858281518110610c1b57610c1a6148ab565b5b6020026020010151858381518110610c3657610c356148ab565b5b60200260200101516106ee565b828281518110610c5657610c556148ab565b5b60200260200101818152505080610c6c90614909565b9050610bfc565b508091505092915050565b600080610c8a836114da565b119050919050565b6000600460009054906101000a900460ff16905090565b610cb1611e3c565b73ffffffffffffffffffffffffffffffffffffffff168373ffffffffffffffffffffffffffffffffffffffff161480610cf75750610cf683610cf1611e3c565b6116e0565b5b610d36576040517f08c379a0000000000000000000000000000000000000000000000000000000008152600401610d2d90614a1a565b60405180910390fd5b610d418383836121c9565b505050565b610d4e6119c5565b610d586000612498565b565b6000806005600084815260200190815260200160002090508060050154610d8084610b40565b610d8a9190614b26565b915050919050565b6007602052816000526040600020602052806000526040600020600091509150505481565b600080600560008481526020019081526020016000209050610e4a816002015482600301548360060160009054906101000a900467ffffffffffffffff1667ffffffffffffffff168460060160089054906101000a900467ffffffffffffffff1667ffffffffffffffff168560060160109054906101000a900467ffffffffffffffff1667ffffffffffffffff1661255e565b8160010154610e599190614952565b915050919050565b60056020528060005260406000206000915090508060000160009054906101000a900473ffffffffffffffffffffffffffffffffffffffff1690806001015490806002015490806003015490806004018054610ebc90614879565b80601f0160208091040260200160405190810160405280929190818152602001828054610ee890614879565b8015610f355780601f10610f0a57610100808354040283529160200191610f35565b820191906000526020600020905b815481529060010190602001808311610f1857829003601f168201915b5050505050908060050154908060060160009054906101000a900467ffffffffffffffff16908060060160089054906101000a900467ffffffffffffffff16908060060160109054906101000a900467ffffffffffffffff16905089565b610f9b6119c5565b610fa36125f5565b565b610fad6119c5565b80600560008481526020019081526020016000206004019080519060200190610fd7929190613958565b505050565b6000600460019054906101000a900473ffffffffffffffffffffffffffffffffffffffff16905090565b6000806005600084815260200190815260200160002060060160109054906101000a900467ffffffffffffffff1667ffffffffffffffff1614159050919050565b611059611052611e3c565b8383612658565b5050565b6110656127c5565b60006005600083815260200190815260200160002090506000611088848461280f565b61109183611006565b156111225760006110a285856106ee565b90506008600085815260200190815260200160002060008673ffffffffffffffffffffffffffffffffffffffff1673ffffffffffffffffffffffffffffffffffffffff168152602001908152602001600020548184600101546111059190614a3a565b61110f9190614952565b915061111c858583612908565b50611176565b6008600084815260200190815260200160002060008573ffffffffffffffffffffffffffffffffffffffff1673ffffffffffffffffffffffffffffffffffffffff1681526020019081526020016000205490505b60006008600085815260200190815260200160002060008673ffffffffffffffffffffffffffffffffffffffff1673ffffffffffffffffffffffffffffffffffffffff1681526020019081526020016000208190555061121b84828460000160009054906101000a900473ffffffffffffffffffffffffffffffffffffffff1673ffffffffffffffffffffffffffffffffffffffff16612b4f9092919063ffffffff16565b827fc83b5086ce94ec8d5a88a9f5fea4b18a522bb238ed0d2d8abd959549a80c16b88260405161124b9190613af2565b60405180910390a250505050565b60065481565b6112676119c5565b60006040518061012001604052808973ffffffffffffffffffffffffffffffffffffffff168152602001888152602001878152602001868152602001858152602001600081526020018467ffffffffffffffff1681526020018367ffffffffffffffff168152602001600067ffffffffffffffff1681525090508060056000600654815260200190815260200160002060008201518160000160006101000a81548173ffffffffffffffffffffffffffffffffffffffff021916908373ffffffffffffffffffffffffffffffffffffffff1602179055506020820151816001015560408201518160020155606082015181600301556080820151816004019080519060200190611378929190613958565b5060a0820151816005015560c08201518160060160006101000a81548167ffffffffffffffff021916908367ffffffffffffffff16021790555060e08201518160060160086101000a81548167ffffffffffffffff021916908367ffffffffffffffff1602179055506101008201518160060160106101000a81548167ffffffffffffffff021916908367ffffffffffffffff1602179055509050506006600081548092919061142790614909565b9190505550600160065461143b9190614b26565b7f4fc9d5acc453e78e01b205af5788a1c62f195c4b5cdc8eb8f1c670863b7e736a60405160405180910390a25050505050505050565b600061147c82611006565b156114c75761148b8383610a1e565b60056000848152602001908152602001600020600101546114ac85856106ee565b6114b69190614a3a565b6114c09190614952565b90506114d4565b6114d18383610a1e565b90505b92915050565b600060036000838152602001908152602001600020549050919050565b6000426005600084815260200190815260200160002060060160089054906101000a900467ffffffffffffffff1667ffffffffffffffff16109050919050565b6000600560008481526020019081526020016000209050600082905061155c84611006565b1561159e57836040517f266b64850000000000000000000000000000000000000000000000000000000081526004016115959190613af2565b60405180910390fd5b60006115a985610d5a565b90507fffffffffffffffffffffffffffffffffffffffffffffffffffffffffffffffff8414806115d95750818111155b156115e2578091505b818360050160008282546115f69190614952565b92505081905550826005015461160b86610b40565b1161163c57428360060160106101000a81548167ffffffffffffffff021916908367ffffffffffffffff1602179055505b611694611647611e3c565b30848660000160009054906101000a900473ffffffffffffffffffffffffffffffffffffffff1673ffffffffffffffffffffffffffffffffffffffff16612bd5909392919063ffffffff16565b847f06a603347cb6691efaab973c3ff98f9a16a157e92d51c4783645418d8537912e8384846116c39190614b26565b6040516116d1929190614b5a565b60405180910390a25050505050565b6000600160008473ffffffffffffffffffffffffffffffffffffffff1673ffffffffffffffffffffffffffffffffffffffff16815260200190815260200160002060008373ffffffffffffffffffffffffffffffffffffffff1673ffffffffffffffffffffffffffffffffffffffff16815260200190815260200160002060009054906101000a900460ff16905092915050565b61177c611e3c565b73ffffffffffffffffffffffffffffffffffffffff168573ffffffffffffffffffffffffffffffffffffffff1614806117c257506117c1856117bc611e3c565b6116e0565b5b611801576040517f08c379a00000000000000000000000000000000000000000000000000000000081526004016117f890614a1a565b60405180910390fd5b61180e8585858585612c5e565b5050505050565b61181d6119c5565b600073ffffffffffffffffffffffffffffffffffffffff168173ffffffffffffffffffffffffffffffffffffffff16141561188d576040517f08c379a000000000000000000000000000000000000000000000000000000000815260040161188490614bf5565b60405180910390fd5b61189681612498565b50565b6118a1611e3c565b73ffffffffffffffffffffffffffffffffffffffff168373ffffffffffffffffffffffffffffffffffffffff1614806118e757506118e6836118e1611e3c565b6116e0565b5b611926576040517f08c379a000000000000000000000000000000000000000000000000000000000815260040161191d90614a1a565b60405180910390fd5b611931838383612908565b505050565b6008602052816000526040600020602052806000526040600020600091509150505481565b60007f01ffc9a7000000000000000000000000000000000000000000000000000000007bffffffffffffffffffffffffffffffffffffffffffffffffffffffff1916827bffffffffffffffffffffffffffffffffffffffffffffffffffffffff1916149050919050565b6119cd611e3c565b73ffffffffffffffffffffffffffffffffffffffff166119eb610fdc565b73ffffffffffffffffffffffffffffffffffffffff1614611a41576040517f08c379a0000000000000000000000000000000000000000000000000000000008152600401611a3890614c61565b60405180910390fd5b565b6000600560008481526020019081526020016000209050428160060160009054906101000a900467ffffffffffffffff1667ffffffffffffffff161015611b51578060010154611a9284610db7565b611a9c9190614b26565b82611aa79190614a3a565b6008600085815260200190815260200160002060008673ffffffffffffffffffffffffffffffffffffffff1673ffffffffffffffffffffffffffffffffffffffff16815260200190815260200160002081905550426007600085815260200190815260200160002060008673ffffffffffffffffffffffffffffffffffffffff1673ffffffffffffffffffffffffffffffffffffffff168152602001908152602001600020819055505b50505050565b600073ffffffffffffffffffffffffffffffffffffffff168473ffffffffffffffffffffffffffffffffffffffff161415611bc7576040517f08c379a0000000000000000000000000000000000000000000000000000000008152600401611bbe90614cf3565b60405180910390fd5b6000611bd1611e3c565b90506000611bde85612efa565b90506000611beb85612efa565b9050611bfc83600089858589612f74565b8460008088815260200190815260200160002060008973ffffffffffffffffffffffffffffffffffffffff1673ffffffffffffffffffffffffffffffffffffffff1681526020019081526020016000206000828254611c5b9190614952565b925050819055508673ffffffffffffffffffffffffffffffffffffffff16600073ffffffffffffffffffffffffffffffffffffffff168473ffffffffffffffffffffffffffffffffffffffff167fc3d58168c5ae7397731d063d5bbf3d657854427343f4c083240f7aacaa2d0f628989604051611cd9929190614b5a565b60405180910390a4611cf083600089858589613084565b611cff8360008989898961308c565b50505050505050565b60008060056000848152602001908152602001600020905060006007600085815260200190815260200160002060008673ffffffffffffffffffffffffffffffffffffffff1673ffffffffffffffffffffffffffffffffffffffff1681526020019081526020016000205490508160060160009054906101000a900467ffffffffffffffff1667ffffffffffffffff16811015611dc5578160060160009054906101000a900467ffffffffffffffff1667ffffffffffffffff1690505b611e1e82600201548360030154838560060160089054906101000a900467ffffffffffffffff1667ffffffffffffffff168660060160109054906101000a900467ffffffffffffffff1667ffffffffffffffff1661255e565b611e2886866106ee565b611e329190614a3a565b9250505092915050565b600033905090565b8151835114611e88576040517f08c379a0000000000000000000000000000000000000000000000000000000008152600401611e7f90614d85565b60405180910390fd5b600073ffffffffffffffffffffffffffffffffffffffff168473ffffffffffffffffffffffffffffffffffffffff161415611ef8576040517f08c379a0000000000000000000000000000000000000000000000000000000008152600401611eef90614e17565b60405180910390fd5b6000611f02611e3c565b9050611f12818787878787612f74565b60005b84518110156120c3576000858281518110611f3357611f326148ab565b5b602002602001015190506000858381518110611f5257611f516148ab565b5b60200260200101519050600080600084815260200190815260200160002060008b73ffffffffffffffffffffffffffffffffffffffff1673ffffffffffffffffffffffffffffffffffffffff16815260200190815260200160002054905081811015611ff3576040517f08c379a0000000000000000000000000000000000000000000000000000000008152600401611fea90614ea9565b60405180910390fd5b81810360008085815260200190815260200160002060008c73ffffffffffffffffffffffffffffffffffffffff1673ffffffffffffffffffffffffffffffffffffffff168152602001908152602001600020819055508160008085815260200190815260200160002060008b73ffffffffffffffffffffffffffffffffffffffff1673ffffffffffffffffffffffffffffffffffffffff16815260200190815260200160002060008282546120a89190614952565b92505081905550505050806120bc90614909565b9050611f15565b508473ffffffffffffffffffffffffffffffffffffffff168673ffffffffffffffffffffffffffffffffffffffff168273ffffffffffffffffffffffffffffffffffffffff167f4a39dc06d4c0dbc64b70af90fd698a233a518aa5d07e595d983b8c0526c8f7fb878760405161213a929190614ec9565b60405180910390a4612150818787878787613084565b61215e818787878787613273565b505050505050565b61216e61345a565b6000600460006101000a81548160ff0219169083151502179055507f5db9ee0a495bf2e6ff9c91a7834c1ba4fdd244a5e8aa4e537bd38aeae4b073aa6121b2611e3c565b6040516121bf91906144b0565b60405180910390a1565b600073ffffffffffffffffffffffffffffffffffffffff168373ffffffffffffffffffffffffffffffffffffffff161415612239576040517f08c379a000000000000000000000000000000000000000000000000000000000815260040161223090614f72565b60405180910390fd5b805182511461227d576040517f08c379a000000000000000000000000000000000000000000000000000000000815260040161227490614d85565b60405180910390fd5b6000612287611e3c565b90506122a781856000868660405180602001604052806000815250612f74565b60005b83518110156123f45760008482815181106122c8576122c76148ab565b5b6020026020010151905060008483815181106122e7576122e66148ab565b5b60200260200101519050600080600084815260200190815260200160002060008973ffffffffffffffffffffffffffffffffffffffff1673ffffffffffffffffffffffffffffffffffffffff16815260200190815260200160002054905081811015612388576040517f08c379a000000000000000000000000000000000000000000000000000000000815260040161237f90615004565b60405180910390fd5b81810360008085815260200190815260200160002060008a73ffffffffffffffffffffffffffffffffffffffff1673ffffffffffffffffffffffffffffffffffffffff1681526020019081526020016000208190555050505080806123ec90614909565b9150506122aa565b50600073ffffffffffffffffffffffffffffffffffffffff168473ffffffffffffffffffffffffffffffffffffffff168273ffffffffffffffffffffffffffffffffffffffff167f4a39dc06d4c0dbc64b70af90fd698a233a518aa5d07e595d983b8c0526c8f7fb868660405161246c929190614ec9565b60405180910390a461249281856000868660405180602001604052806000815250613084565b50505050565b6000600460019054906101000a900473ffffffffffffffffffffffffffffffffffffffff16905081600460016101000a81548173ffffffffffffffffffffffffffffffffffffffff021916908373ffffffffffffffffffffffffffffffffffffffff1602179055508173ffffffffffffffffffffffffffffffffffffffff168173ffffffffffffffffffffffffffffffffffffffff167f8be0079c531659141344cd1fd0a4f28419497f9722a3daafe3b4186f6b6457e060405160405180910390a35050565b6000806000831461256f5782612571565b425b90508481116125845760009150506125ec565b600085826125929190614b26565b9050600081896125a29190614a3a565b9050828610156125e55760008787116125bb57876125bd565b865b905080846125cb9190614b26565b896125d69190614a3a565b826125e19190614952565b9150505b8093505050505b95945050505050565b6125fd6127c5565b6001600460006101000a81548160ff0219169083151502179055507f62e78cea01bee320cd4e420270b5ea74000d11b0c9f74754ebdbfc544b05a258612641611e3c565b60405161264e91906144b0565b60405180910390a1565b8173ffffffffffffffffffffffffffffffffffffffff168373ffffffffffffffffffffffffffffffffffffffff1614156126c7576040517f08c379a00000000000000000000000000000000000000000000000000000000081526004016126be90615096565b60405180910390fd5b80600160008573ffffffffffffffffffffffffffffffffffffffff1673ffffffffffffffffffffffffffffffffffffffff16815260200190815260200160002060008473ffffffffffffffffffffffffffffffffffffffff1673ffffffffffffffffffffffffffffffffffffffff16815260200190815260200160002060006101000a81548160ff0219169083151502179055508173ffffffffffffffffffffffffffffffffffffffff168373ffffffffffffffffffffffffffffffffffffffff167f17307eab39ab6107e8899845ad3d59bd9653f200f220920489ca2b5937696c31836040516127b89190613bad565b60405180910390a3505050565b6127cd610c92565b1561280d576040517f08c379a000000000000000000000000000000000000000000000000000000000815260040161280490615102565b60405180910390fd5b565b6005600082815260200190815260200160002060060160009054906101000a900467ffffffffffffffff1667ffffffffffffffff1642101561285057612904565b61285a8282610a1e565b6008600083815260200190815260200160002060008473ffffffffffffffffffffffffffffffffffffffff1673ffffffffffffffffffffffffffffffffffffffff16815260200190815260200160002081905550426007600083815260200190815260200160002060008473ffffffffffffffffffffffffffffffffffffffff1673ffffffffffffffffffffffffffffffffffffffff168152602001908152602001600020819055505b5050565b600073ffffffffffffffffffffffffffffffffffffffff168373ffffffffffffffffffffffffffffffffffffffff161415612978576040517f08c379a000000000000000000000000000000000000000000000000000000000815260040161296f90614f72565b60405180910390fd5b6000612982611e3c565b9050600061298f84612efa565b9050600061299c84612efa565b90506129bc83876000858560405180602001604052806000815250612f74565b600080600087815260200190815260200160002060008873ffffffffffffffffffffffffffffffffffffffff1673ffffffffffffffffffffffffffffffffffffffff16815260200190815260200160002054905084811015612a53576040517f08c379a0000000000000000000000000000000000000000000000000000000008152600401612a4a90615004565b60405180910390fd5b84810360008088815260200190815260200160002060008973ffffffffffffffffffffffffffffffffffffffff1673ffffffffffffffffffffffffffffffffffffffff16815260200190815260200160002081905550600073ffffffffffffffffffffffffffffffffffffffff168773ffffffffffffffffffffffffffffffffffffffff168573ffffffffffffffffffffffffffffffffffffffff167fc3d58168c5ae7397731d063d5bbf3d657854427343f4c083240f7aacaa2d0f628989604051612b20929190614b5a565b60405180910390a4612b4684886000868660405180602001604052806000815250613084565b50505050505050565b612bd08363a9059cbb60e01b8484604051602401612b6e929190615122565b604051602081830303815290604052907bffffffffffffffffffffffffffffffffffffffffffffffffffffffff19166020820180517bffffffffffffffffffffffffffffffffffffffffffffffffffffffff83818316178352505050506134a3565b505050565b612c58846323b872dd60e01b858585604051602401612bf69392919061514b565b604051602081830303815290604052907bffffffffffffffffffffffffffffffffffffffffffffffffffffffff19166020820180517bffffffffffffffffffffffffffffffffffffffffffffffffffffffff83818316178352505050506134a3565b50505050565b600073ffffffffffffffffffffffffffffffffffffffff168473ffffffffffffffffffffffffffffffffffffffff161415612cce576040517f08c379a0000000000000000000000000000000000000000000000000000000008152600401612cc590614e17565b60405180910390fd5b6000612cd8611e3c565b90506000612ce585612efa565b90506000612cf285612efa565b9050612d02838989858589612f74565b600080600088815260200190815260200160002060008a73ffffffffffffffffffffffffffffffffffffffff1673ffffffffffffffffffffffffffffffffffffffff16815260200190815260200160002054905085811015612d99576040517f08c379a0000000000000000000000000000000000000000000000000000000008152600401612d9090614ea9565b60405180910390fd5b85810360008089815260200190815260200160002060008b73ffffffffffffffffffffffffffffffffffffffff1673ffffffffffffffffffffffffffffffffffffffff168152602001908152602001600020819055508560008089815260200190815260200160002060008a73ffffffffffffffffffffffffffffffffffffffff1673ffffffffffffffffffffffffffffffffffffffff1681526020019081526020016000206000828254612e4e9190614952565b925050819055508773ffffffffffffffffffffffffffffffffffffffff168973ffffffffffffffffffffffffffffffffffffffff168573ffffffffffffffffffffffffffffffffffffffff167fc3d58168c5ae7397731d063d5bbf3d657854427343f4c083240f7aacaa2d0f628a8a604051612ecb929190614b5a565b60405180910390a4612ee1848a8a86868a613084565b612eef848a8a8a8a8a61308c565b505050505050505050565b60606000600167ffffffffffffffff811115612f1957612f18613cb5565b5b604051908082528060200260200182016040528015612f475781602001602082028036833780820191505090505b5090508281600081518110612f5f57612f5e6148ab565b5b60200260200101818152505080915050919050565b612f8286868686868661356a565b600073ffffffffffffffffffffffffffffffffffffffff168573ffffffffffffffffffffffffffffffffffffffff1614612fff5760005b8351811015612ffd576000848281518110612fd757612fd66148ab565b5b60200260200101519050612feb878261280f565b5080612ff690614909565b9050612fb9565b505b600073ffffffffffffffffffffffffffffffffffffffff168473ffffffffffffffffffffffffffffffffffffffff161461307c5760005b835181101561307a576000848281518110613054576130536148ab565b5b60200260200101519050613068868261280f565b508061307390614909565b9050613036565b505b505050505050565b505050505050565b6130ab8473ffffffffffffffffffffffffffffffffffffffff166135c8565b1561326b578373ffffffffffffffffffffffffffffffffffffffff1663f23a6e6187878686866040518663ffffffff1660e01b81526004016130f19594939291906151d7565b602060405180830381600087803b15801561310b57600080fd5b505af192505050801561313c57506040513d601f19601f820116820180604052508101906131399190615246565b60015b6131e257613148615280565b806308c379a014156131a5575061315d6152a2565b8061316857506131a7565b806040517f08c379a000000000000000000000000000000000000000000000000000000000815260040161319c9190613c8e565b60405180910390fd5b505b6040517f08c379a00000000000000000000000000000000000000000000000000000000081526004016131d9906153aa565b60405180910390fd5b63f23a6e6160e01b7bffffffffffffffffffffffffffffffffffffffffffffffffffffffff1916817bffffffffffffffffffffffffffffffffffffffffffffffffffffffff191614613269576040517f08c379a00000000000000000000000000000000000000000000000000000000081526004016132609061543c565b60405180910390fd5b505b505050505050565b6132928473ffffffffffffffffffffffffffffffffffffffff166135c8565b15613452578373ffffffffffffffffffffffffffffffffffffffff1663bc197c8187878686866040518663ffffffff1660e01b81526004016132d895949392919061545c565b602060405180830381600087803b1580156132f257600080fd5b505af192505050801561332357506040513d601f19601f820116820180604052508101906133209190615246565b60015b6133c95761332f615280565b806308c379a0141561338c57506133446152a2565b8061334f575061338e565b806040517f08c379a00000000000000000000000000000000000000000000000000000000081526004016133839190613c8e565b60405180910390fd5b505b6040517f08c379a00000000000000000000000000000000000000000000000000000000081526004016133c0906153aa565b60405180910390fd5b63bc197c8160e01b7bffffffffffffffffffffffffffffffffffffffffffffffffffffffff1916817bffffffffffffffffffffffffffffffffffffffffffffffffffffffff191614613450576040517f08c379a00000000000000000000000000000000000000000000000000000000081526004016134479061543c565b60405180910390fd5b505b505050505050565b613462610c92565b6134a1576040517f08c379a000000000000000000000000000000000000000000000000000000000815260040161349890615510565b60405180910390fd5b565b6000613505826040518060400160405280602081526020017f5361666545524332303a206c6f772d6c6576656c2063616c6c206661696c65648152508573ffffffffffffffffffffffffffffffffffffffff166135eb9092919063ffffffff16565b905060008151111561356557808060200190518101906135259190615545565b613564576040517f08c379a000000000000000000000000000000000000000000000000000000000815260040161355b906155e4565b60405180910390fd5b5b505050565b613578868686868686613603565b613580610c92565b156135c0576040517f08c379a00000000000000000000000000000000000000000000000000000000081526004016135b790615676565b60405180910390fd5b505050505050565b6000808273ffffffffffffffffffffffffffffffffffffffff163b119050919050565b60606135fa84846000856137d5565b90509392505050565b6136118686868686866138e9565b600073ffffffffffffffffffffffffffffffffffffffff168573ffffffffffffffffffffffffffffffffffffffff1614156136c35760005b83518110156136c157828181518110613665576136646148ab565b5b602002602001015160036000868481518110613684576136836148ab565b5b6020026020010151815260200190815260200160002060008282546136a99190614952565b92505081905550806136ba90614909565b9050613649565b505b600073ffffffffffffffffffffffffffffffffffffffff168473ffffffffffffffffffffffffffffffffffffffff1614156137cd5760005b83518110156137cb576000848281518110613719576137186148ab565b5b602002602001015190506000848381518110613738576137376148ab565b5b602002602001015190506000600360008481526020019081526020016000205490508181101561379d576040517f08c379a000000000000000000000000000000000000000000000000000000000815260040161379490615708565b60405180910390fd5b8181036003600085815260200190815260200160002081905550505050806137c490614909565b90506136fb565b505b505050505050565b60608247101561381a576040517f08c379a00000000000000000000000000000000000000000000000000000000081526004016138119061579a565b60405180910390fd5b613823856135c8565b613862576040517f08c379a000000000000000000000000000000000000000000000000000000000815260040161385990615806565b60405180910390fd5b6000808673ffffffffffffffffffffffffffffffffffffffff16858760405161388b9190615862565b60006040518083038185875af1925050503d80600081146138c8576040519150601f19603f3d011682016040523d82523d6000602084013e6138cd565b606091505b50915091506138dd8282866138f1565b92505050949350505050565b505050505050565b6060831561390157829050613951565b6000835111156139145782518084602001fd5b816040517f08c379a00000000000000000000000000000000000000000000000000000000081526004016139489190613c8e565b60405180910390fd5b9392505050565b82805461396490614879565b90600052602060002090601f01602090048101928261398657600085556139cd565b82601f1061399f57805160ff19168380011785556139cd565b828001600101855582156139cd579182015b828111156139cc5782518255916020019190600101906139b1565b5b5090506139da91906139de565b5090565b5b808211156139f75760008160009055506001016139df565b5090565b6000604051905090565b600080fd5b600080fd5b600073ffffffffffffffffffffffffffffffffffffffff82169050919050565b6000613a3a82613a0f565b9050919050565b613a4a81613a2f565b8114613a5557600080fd5b50565b600081359050613a6781613a41565b92915050565b6000819050919050565b613a8081613a6d565b8114613a8b57600080fd5b50565b600081359050613a9d81613a77565b92915050565b60008060408385031215613aba57613ab9613a05565b5b6000613ac885828601613a58565b9250506020613ad985828601613a8e565b9150509250929050565b613aec81613a6d565b82525050565b6000602082019050613b076000830184613ae3565b92915050565b60007fffffffff0000000000000000000000000000000000000000000000000000000082169050919050565b613b4281613b0d565b8114613b4d57600080fd5b50565b600081359050613b5f81613b39565b92915050565b600060208284031215613b7b57613b7a613a05565b5b6000613b8984828501613b50565b91505092915050565b60008115159050919050565b613ba781613b92565b82525050565b6000602082019050613bc26000830184613b9e565b92915050565b600060208284031215613bde57613bdd613a05565b5b6000613bec84828501613a8e565b91505092915050565b600081519050919050565b600082825260208201905092915050565b60005b83811015613c2f578082015181840152602081019050613c14565b83811115613c3e576000848401525b50505050565b6000601f19601f8301169050919050565b6000613c6082613bf5565b613c6a8185613c00565b9350613c7a818560208601613c11565b613c8381613c44565b840191505092915050565b60006020820190508181036000830152613ca88184613c55565b905092915050565b600080fd5b7f4e487b7100000000000000000000000000000000000000000000000000000000600052604160045260246000fd5b613ced82613c44565b810181811067ffffffffffffffff82111715613d0c57613d0b613cb5565b5b80604052505050565b6000613d1f6139fb565b9050613d2b8282613ce4565b919050565b600067ffffffffffffffff821115613d4b57613d4a613cb5565b5b602082029050602081019050919050565b600080fd5b6000613d74613d6f84613d30565b613d15565b90508083825260208201905060208402830185811115613d9757613d96613d5c565b5b835b81811015613dc05780613dac8882613a58565b845260208401935050602081019050613d99565b5050509392505050565b600082601f830112613ddf57613dde613cb0565b5b8135613def848260208601613d61565b91505092915050565b600067ffffffffffffffff821115613e1357613e12613cb5565b5b602082029050602081019050919050565b6000613e37613e3284613df8565b613d15565b90508083825260208201905060208402830185811115613e5a57613e59613d5c565b5b835b81811015613e835780613e6f8882613a8e565b845260208401935050602081019050613e5c565b5050509392505050565b600082601f830112613ea257613ea1613cb0565b5b8135613eb2848260208601613e24565b91505092915050565b600080600060608486031215613ed457613ed3613a05565b5b6000613ee286828701613a8e565b935050602084013567ffffffffffffffff811115613f0357613f02613a0a565b5b613f0f86828701613dca565b925050604084013567ffffffffffffffff811115613f3057613f2f613a0a565b5b613f3c86828701613e8d565b9150509250925092565b600080fd5b600067ffffffffffffffff821115613f6657613f65613cb5565b5b613f6f82613c44565b9050602081019050919050565b82818337600083830152505050565b6000613f9e613f9984613f4b565b613d15565b905082815260208101848484011115613fba57613fb9613f46565b5b613fc5848285613f7c565b509392505050565b600082601f830112613fe257613fe1613cb0565b5b8135613ff2848260208601613f8b565b91505092915050565b600080600080600060a0868803121561401757614016613a05565b5b600061402588828901613a58565b955050602061403688828901613a58565b945050604086013567ffffffffffffffff81111561405757614056613a0a565b5b61406388828901613e8d565b935050606086013567ffffffffffffffff81111561408457614083613a0a565b5b61409088828901613e8d565b925050608086013567ffffffffffffffff8111156140b1576140b0613a0a565b5b6140bd88828901613fcd565b9150509295509295909350565b600080604083850312156140e1576140e0613a05565b5b600083013567ffffffffffffffff8111156140ff576140fe613a0a565b5b61410b85828601613dca565b925050602083013567ffffffffffffffff81111561412c5761412b613a0a565b5b61413885828601613e8d565b9150509250929050565b600081519050919050565b600082825260208201905092915050565b6000819050602082019050919050565b61417781613a6d565b82525050565b6000614189838361416e565b60208301905092915050565b6000602082019050919050565b60006141ad82614142565b6141b7818561414d565b93506141c28361415e565b8060005b838110156141f35781516141da888261417d565b97506141e583614195565b9250506001810190506141c6565b5085935050505092915050565b6000602082019050818103600083015261421a81846141a2565b905092915050565b60008060006060848603121561423b5761423a613a05565b5b600061424986828701613a58565b935050602084013567ffffffffffffffff81111561426a57614269613a0a565b5b61427686828701613e8d565b925050604084013567ffffffffffffffff81111561429757614296613a0a565b5b6142a386828701613e8d565b9150509250925092565b600080604083850312156142c4576142c3613a05565b5b60006142d285828601613a8e565b92505060206142e385828601613a58565b9150509250929050565b6142f681613a2f565b82525050565b600067ffffffffffffffff82169050919050565b614319816142fc565b82525050565b600061012082019050614335600083018c6142ed565b614342602083018b613ae3565b61434f604083018a613ae3565b61435c6060830189613ae3565b818103608083015261436e8188613c55565b905061437d60a0830187613ae3565b61438a60c0830186614310565b61439760e0830185614310565b6143a5610100830184614310565b9a9950505050505050505050565b600067ffffffffffffffff8211156143ce576143cd613cb5565b5b6143d782613c44565b9050602081019050919050565b60006143f76143f2846143b3565b613d15565b90508281526020810184848401111561441357614412613f46565b5b61441e848285613f7c565b509392505050565b600082601f83011261443b5761443a613cb0565b5b813561444b8482602086016143e4565b91505092915050565b6000806040838503121561446b5761446a613a05565b5b600061447985828601613a8e565b925050602083013567ffffffffffffffff81111561449a57614499613a0a565b5b6144a685828601614426565b9150509250929050565b60006020820190506144c560008301846142ed565b92915050565b6144d481613b92565b81146144df57600080fd5b50565b6000813590506144f1816144cb565b92915050565b6000806040838503121561450e5761450d613a05565b5b600061451c85828601613a58565b925050602061452d858286016144e2565b9150509250929050565b614540816142fc565b811461454b57600080fd5b50565b60008135905061455d81614537565b92915050565b600080600080600080600060e0888a03121561458257614581613a05565b5b60006145908a828b01613a58565b97505060206145a18a828b01613a8e565b96505060406145b28a828b01613a8e565b95505060606145c38a828b01613a8e565b945050608088013567ffffffffffffffff8111156145e4576145e3613a0a565b5b6145f08a828b01614426565b93505060a06146018a828b0161454e565b92505060c06146128a828b0161454e565b91505092959891949750929550565b6000806040838503121561463857614637613a05565b5b600061464685828601613a8e565b925050602061465785828601613a8e565b9150509250929050565b6000806040838503121561467857614677613a05565b5b600061468685828601613a58565b925050602061469785828601613a58565b9150509250929050565b600080600080600060a086880312156146bd576146bc613a05565b5b60006146cb88828901613a58565b95505060206146dc88828901613a58565b94505060406146ed88828901613a8e565b93505060606146fe88828901613a8e565b925050608086013567ffffffffffffffff81111561471f5761471e613a0a565b5b61472b88828901613fcd565b9150509295509295909350565b60006020828403121561474e5761474d613a05565b5b600061475c84828501613a58565b91505092915050565b60008060006060848603121561477e5761477d613a05565b5b600061478c86828701613a58565b935050602061479d86828701613a8e565b92505060406147ae86828701613a8e565b9150509250925092565b7f455243313135353a2061646472657373207a65726f206973206e6f742061207660008201527f616c6964206f776e657200000000000000000000000000000000000000000000602082015250565b6000614814602a83613c00565b915061481f826147b8565b604082019050919050565b6000602082019050818103600083015261484381614807565b9050919050565b7f4e487b7100000000000000000000000000000000000000000000000000000000600052602260045260246000fd5b6000600282049050600182168061489157607f821691505b602082108114156148a5576148a461484a565b5b50919050565b7f4e487b7100000000000000000000000000000000000000000000000000000000600052603260045260246000fd5b7f4e487b7100000000000000000000000000000000000000000000000000000000600052601160045260246000fd5b600061491482613a6d565b91507fffffffffffffffffffffffffffffffffffffffffffffffffffffffffffffffff821415614947576149466148da565b5b600182019050919050565b600061495d82613a6d565b915061496883613a6d565b9250827fffffffffffffffffffffffffffffffffffffffffffffffffffffffffffffffff0382111561499d5761499c6148da565b5b828201905092915050565b7f455243313135353a2063616c6c6572206973206e6f7420746f6b656e206f776e60008201527f6572206e6f7220617070726f7665640000000000000000000000000000000000602082015250565b6000614a04602f83613c00565b9150614a0f826149a8565b604082019050919050565b60006020820190508181036000830152614a33816149f7565b9050919050565b6000614a4582613a6d565b9150614a5083613a6d565b9250817fffffffffffffffffffffffffffffffffffffffffffffffffffffffffffffffff0483118215151615614a8957614a886148da565b5b828202905092915050565b7f455243313135353a206163636f756e747320616e6420696473206c656e67746860008201527f206d69736d617463680000000000000000000000000000000000000000000000602082015250565b6000614af0602983613c00565b9150614afb82614a94565b604082019050919050565b60006020820190508181036000830152614b1f81614ae3565b9050919050565b6000614b3182613a6d565b9150614b3c83613a6d565b925082821015614b4f57614b4e6148da565b5b828203905092915050565b6000604082019050614b6f6000830185613ae3565b614b7c6020830184613ae3565b9392505050565b7f4f776e61626c653a206e6577206f776e657220697320746865207a65726f206160008201527f6464726573730000000000000000000000000000000000000000000000000000602082015250565b6000614bdf602683613c00565b9150614bea82614b83565b604082019050919050565b60006020820190508181036000830152614c0e81614bd2565b9050919050565b7f4f776e61626c653a2063616c6c6572206973206e6f7420746865206f776e6572600082015250565b6000614c4b602083613c00565b9150614c5682614c15565b602082019050919050565b60006020820190508181036000830152614c7a81614c3e565b9050919050565b7f455243313135353a206d696e7420746f20746865207a65726f2061646472657360008201527f7300000000000000000000000000000000000000000000000000000000000000602082015250565b6000614cdd602183613c00565b9150614ce882614c81565b604082019050919050565b60006020820190508181036000830152614d0c81614cd0565b9050919050565b7f455243313135353a2069647320616e6420616d6f756e7473206c656e6774682060008201527f6d69736d61746368000000000000000000000000000000000000000000000000602082015250565b6000614d6f602883613c00565b9150614d7a82614d13565b604082019050919050565b60006020820190508181036000830152614d9e81614d62565b9050919050565b7f455243313135353a207472616e7366657220746f20746865207a65726f20616460008201527f6472657373000000000000000000000000000000000000000000000000000000602082015250565b6000614e01602583613c00565b9150614e0c82614da5565b604082019050919050565b60006020820190508181036000830152614e3081614df4565b9050919050565b7f455243313135353a20696e73756666696369656e742062616c616e636520666f60008201527f72207472616e7366657200000000000000000000000000000000000000000000602082015250565b6000614e93602a83613c00565b9150614e9e82614e37565b604082019050919050565b60006020820190508181036000830152614ec281614e86565b9050919050565b60006040820190508181036000830152614ee381856141a2565b90508181036020830152614ef781846141a2565b90509392505050565b7f455243313135353a206275726e2066726f6d20746865207a65726f206164647260008201527f6573730000000000000000000000000000000000000000000000000000000000602082015250565b6000614f5c602383613c00565b9150614f6782614f00565b604082019050919050565b60006020820190508181036000830152614f8b81614f4f565b9050919050565b7f455243313135353a206275726e20616d6f756e7420657863656564732062616c60008201527f616e636500000000000000000000000000000000000000000000000000000000602082015250565b6000614fee602483613c00565b9150614ff982614f92565b604082019050919050565b6000602082019050818103600083015261501d81614fe1565b9050919050565b7f455243313135353a2073657474696e6720617070726f76616c2073746174757360008201527f20666f722073656c660000000000000000000000000000000000000000000000602082015250565b6000615080602983613c00565b915061508b82615024565b604082019050919050565b600060208201905081810360008301526150af81615073565b9050919050565b7f5061757361626c653a2070617573656400000000000000000000000000000000600082015250565b60006150ec601083613c00565b91506150f7826150b6565b602082019050919050565b6000602082019050818103600083015261511b816150df565b9050919050565b600060408201905061513760008301856142ed565b6151446020830184613ae3565b9392505050565b600060608201905061516060008301866142ed565b61516d60208301856142ed565b61517a6040830184613ae3565b949350505050565b600081519050919050565b600082825260208201905092915050565b60006151a982615182565b6151b3818561518d565b93506151c3818560208601613c11565b6151cc81613c44565b840191505092915050565b600060a0820190506151ec60008301886142ed565b6151f960208301876142ed565b6152066040830186613ae3565b6152136060830185613ae3565b8181036080830152615225818461519e565b90509695505050505050565b60008151905061524081613b39565b92915050565b60006020828403121561525c5761525b613a05565b5b600061526a84828501615231565b91505092915050565b60008160e01c9050919050565b600060033d111561529f5760046000803e61529c600051615273565b90505b90565b600060443d10156152b257615335565b6152ba6139fb565b60043d036004823e80513d602482011167ffffffffffffffff821117156152e2575050615335565b808201805167ffffffffffffffff8111156153005750505050615335565b80602083010160043d03850181111561531d575050505050615335565b61532c82602001850186613ce4565b82955050505050505b90565b7f455243313135353a207472616e7366657220746f206e6f6e204552433131353560008201527f526563656976657220696d706c656d656e746572000000000000000000000000602082015250565b6000615394603483613c00565b915061539f82615338565b604082019050919050565b600060208201905081810360008301526153c381615387565b9050919050565b7f455243313135353a204552433131353552656365697665722072656a6563746560008201527f6420746f6b656e73000000000000000000000000000000000000000000000000602082015250565b6000615426602883613c00565b9150615431826153ca565b604082019050919050565b6000602082019050818103600083015261545581615419565b9050919050565b600060a08201905061547160008301886142ed565b61547e60208301876142ed565b818103604083015261549081866141a2565b905081810360608301526154a481856141a2565b905081810360808301526154b8818461519e565b90509695505050505050565b7f5061757361626c653a206e6f7420706175736564000000000000000000000000600082015250565b60006154fa601483613c00565b9150615505826154c4565b602082019050919050565b60006020820190508181036000830152615529816154ed565b9050919050565b60008151905061553f816144cb565b92915050565b60006020828403121561555b5761555a613a05565b5b600061556984828501615530565b91505092915050565b7f5361666545524332303a204552433230206f7065726174696f6e20646964206e60008201527f6f74207375636365656400000000000000000000000000000000000000000000602082015250565b60006155ce602a83613c00565b91506155d982615572565b604082019050919050565b600060208201905081810360008301526155fd816155c1565b9050919050565b7f455243313135355061757361626c653a20746f6b656e207472616e736665722060008201527f7768696c65207061757365640000000000000000000000000000000000000000602082015250565b6000615660602c83613c00565b915061566b82615604565b604082019050919050565b6000602082019050818103600083015261568f81615653565b9050919050565b7f455243313135353a206275726e20616d6f756e74206578636565647320746f7460008201527f616c537570706c79000000000000000000000000000000000000000000000000602082015250565b60006156f2602883613c00565b91506156fd82615696565b604082019050919050565b60006020820190508181036000830152615721816156e5565b9050919050565b7f416464726573733a20696e73756666696369656e742062616c616e636520666f60008201527f722063616c6c0000000000000000000000000000000000000000000000000000602082015250565b6000615784602683613c00565b915061578f82615728565b604082019050919050565b600060208201905081810360008301526157b381615777565b9050919050565b7f416464726573733a2063616c6c20746f206e6f6e2d636f6e7472616374000000600082015250565b60006157f0601d83613c00565b91506157fb826157ba565b602082019050919050565b6000602082019050818103600083015261581f816157e3565b9050919050565b600081905092915050565b600061583c82615182565b6158468185615826565b9350615856818560208601613c11565b80840191505092915050565b600061586e8284615831565b91508190509291505056fea264697066735822122065557b8c3dfd164207a2bd7e74af161ec1df046d436af899f9d31160a613b32764736f6c63430008090033",
  "devdoc": {
    "kind": "dev",
    "methods": {
      "balanceOf(address,uint256)": {
        "details": "See {IERC1155-balanceOf}. Requirements: - `account` cannot be the zero address."
      },
      "balanceOfBatch(address[],uint256[])": {
        "details": "See {IERC1155-balanceOfBatch}. Requirements: - `accounts` and `ids` must have the same length."
      },
      "exists(uint256)": {
        "details": "Indicates whether any token exist with a given id, or not."
      },
      "getTotalDebt(uint256)": {
        "details": "ERC-1155 totalSupply has no decimal. Therefore, just multiply totalSupply * debt per token"
      },
      "isApprovedForAll(address,address)": {
        "details": "See {IERC1155-isApprovedForAll}."
      },
      "owner()": {
        "details": "Returns the address of the current owner."
      },
      "paused()": {
        "details": "Returns true if the contract is paused, and false otherwise."
      },
      "renounceOwnership()": {
        "details": "Leaves the contract without owner. It will not be possible to call `onlyOwner` functions anymore. Can only be called by the current owner. NOTE: Renouncing ownership will leave the contract without an owner, thereby removing any functionality that is only available to the owner."
      },
      "repay(uint256,uint256)": {
        "details": "It is not able to repay after fully repaying the loan. The caller need to approve the repaying token. There are 3 cases. 1. block.timestamp < startTimestamp: repay only the principal. 2. startTs <= block.timestamp <= endTs: repay principal + interest 3. endTs < block.timestamp: repay principal + interest + overdue interest",
        "params": {
          "_amount": "amount of token to repay. type(uint256).max means to repay all.",
          "_id": "token id"
        }
      },
      "safeBatchTransferFrom(address,address,uint256[],uint256[],bytes)": {
        "details": "See {IERC1155-safeBatchTransferFrom}."
      },
      "safeTransferFrom(address,address,uint256,uint256,bytes)": {
        "details": "See {IERC1155-safeTransferFrom}."
      },
      "setApprovalForAll(address,bool)": {
        "details": "See {IERC1155-setApprovalForAll}."
      },
      "supportsInterface(bytes4)": {
        "details": "See {IERC165-supportsInterface}."
      },
      "totalSupply(uint256)": {
        "details": "Total amount of tokens in with a given id."
      },
      "transferOwnership(address)": {
        "details": "Transfers ownership of the contract to a new account (`newOwner`). Can only be called by the current owner."
      }
    },
    "version": 1
  },
  "userdoc": {
    "kind": "user",
    "methods": {
      "claim(address,uint256)": {
        "notice": "Nft holders claim their interest. Users with zero balance are also able to claim because they might have once had it, but transferred."
      },
      "getUnclaimedInterest(address,uint256)": {
        "notice": "Calculate unclaimed interest"
      },
      "getUnitDebt(uint256)": {
        "notice": "Calculate the debt value if it has never been claimed. It does not increase after repaid."
      },
      "getUnpaidDebt(uint256)": {
        "notice": "Calculate the debt value to be fully repaid."
      },
      "isOverdue(uint256)": {
        "notice": "Show whether the loan has not been repaid on time."
      },
      "isRepaid(uint256)": {
        "notice": "Show whether the loan is repaid."
      },
      "previewClaim(address,uint256)": {
        "notice": "Calculate how many tokens to receive on claim."
      }
    },
    "notice": "This repays the interest monthly. At the maturity date, lenders receive the principal and one-month interest.",
    "version": 1
  },
  "storageLayout": {
    "storage": [
      {
        "astId": 246,
        "contract": "contracts/CouponBond.sol:CouponBond",
        "label": "_balances",
        "offset": 0,
        "slot": "0",
        "type": "t_mapping(t_uint256,t_mapping(t_address,t_uint256))"
      },
      {
        "astId": 252,
        "contract": "contracts/CouponBond.sol:CouponBond",
        "label": "_operatorApprovals",
        "offset": 0,
        "slot": "1",
        "type": "t_mapping(t_address,t_mapping(t_address,t_bool))"
      },
      {
        "astId": 254,
        "contract": "contracts/CouponBond.sol:CouponBond",
        "label": "_uri",
        "offset": 0,
        "slot": "2",
        "type": "t_string_storage"
      },
      {
        "astId": 1733,
        "contract": "contracts/CouponBond.sol:CouponBond",
        "label": "_totalSupply",
        "offset": 0,
        "slot": "3",
        "type": "t_mapping(t_uint256,t_uint256)"
      },
      {
        "astId": 130,
        "contract": "contracts/CouponBond.sol:CouponBond",
        "label": "_paused",
        "offset": 0,
        "slot": "4",
        "type": "t_bool"
      },
      {
        "astId": 7,
        "contract": "contracts/CouponBond.sol:CouponBond",
        "label": "_owner",
        "offset": 1,
        "slot": "4",
        "type": "t_address"
      },
      {
        "astId": 3686,
        "contract": "contracts/CouponBond.sol:CouponBond",
        "label": "products",
        "offset": 0,
        "slot": "5",
        "type": "t_mapping(t_uint256,t_struct(Product)4602_storage)"
      },
      {
        "astId": 3688,
        "contract": "contracts/CouponBond.sol:CouponBond",
        "label": "numProducts",
        "offset": 0,
        "slot": "6",
        "type": "t_uint256"
      },
      {
        "astId": 3694,
        "contract": "contracts/CouponBond.sol:CouponBond",
        "label": "lastUpdatedTs",
        "offset": 0,
        "slot": "7",
        "type": "t_mapping(t_uint256,t_mapping(t_address,t_uint256))"
      },
      {
        "astId": 3700,
        "contract": "contracts/CouponBond.sol:CouponBond",
        "label": "unclaimedInterest",
        "offset": 0,
        "slot": "8",
        "type": "t_mapping(t_uint256,t_mapping(t_address,t_uint256))"
      }
    ],
    "types": {
      "t_address": {
        "encoding": "inplace",
        "label": "address",
        "numberOfBytes": "20"
      },
      "t_bool": {
        "encoding": "inplace",
        "label": "bool",
        "numberOfBytes": "1"
      },
      "t_mapping(t_address,t_bool)": {
        "encoding": "mapping",
        "key": "t_address",
        "label": "mapping(address => bool)",
        "numberOfBytes": "32",
        "value": "t_bool"
      },
      "t_mapping(t_address,t_mapping(t_address,t_bool))": {
        "encoding": "mapping",
        "key": "t_address",
        "label": "mapping(address => mapping(address => bool))",
        "numberOfBytes": "32",
        "value": "t_mapping(t_address,t_bool)"
      },
      "t_mapping(t_address,t_uint256)": {
        "encoding": "mapping",
        "key": "t_address",
        "label": "mapping(address => uint256)",
        "numberOfBytes": "32",
        "value": "t_uint256"
      },
      "t_mapping(t_uint256,t_mapping(t_address,t_uint256))": {
        "encoding": "mapping",
        "key": "t_uint256",
        "label": "mapping(uint256 => mapping(address => uint256))",
        "numberOfBytes": "32",
        "value": "t_mapping(t_address,t_uint256)"
      },
      "t_mapping(t_uint256,t_struct(Product)4602_storage)": {
        "encoding": "mapping",
        "key": "t_uint256",
        "label": "mapping(uint256 => struct ICouponBond.Product)",
        "numberOfBytes": "32",
        "value": "t_struct(Product)4602_storage"
      },
      "t_mapping(t_uint256,t_uint256)": {
        "encoding": "mapping",
        "key": "t_uint256",
        "label": "mapping(uint256 => uint256)",
        "numberOfBytes": "32",
        "value": "t_uint256"
      },
      "t_string_storage": {
        "encoding": "bytes",
        "label": "string",
        "numberOfBytes": "32"
      },
      "t_struct(Product)4602_storage": {
        "encoding": "inplace",
        "label": "struct ICouponBond.Product",
        "members": [
          {
            "astId": 4585,
            "contract": "contracts/CouponBond.sol:CouponBond",
            "label": "token",
            "offset": 0,
            "slot": "0",
            "type": "t_address"
          },
          {
            "astId": 4587,
            "contract": "contracts/CouponBond.sol:CouponBond",
            "label": "value",
            "offset": 0,
            "slot": "1",
            "type": "t_uint256"
          },
          {
            "astId": 4589,
            "contract": "contracts/CouponBond.sol:CouponBond",
            "label": "baseInterestPerSecond",
            "offset": 0,
            "slot": "2",
            "type": "t_uint256"
          },
          {
            "astId": 4591,
            "contract": "contracts/CouponBond.sol:CouponBond",
            "label": "overdueInterestPerSecond",
            "offset": 0,
            "slot": "3",
            "type": "t_uint256"
          },
          {
            "astId": 4593,
            "contract": "contracts/CouponBond.sol:CouponBond",
            "label": "uri",
            "offset": 0,
            "slot": "4",
            "type": "t_string_storage"
          },
          {
            "astId": 4595,
            "contract": "contracts/CouponBond.sol:CouponBond",
            "label": "totalRepaid",
            "offset": 0,
            "slot": "5",
            "type": "t_uint256"
          },
          {
            "astId": 4597,
            "contract": "contracts/CouponBond.sol:CouponBond",
            "label": "startTs",
            "offset": 0,
            "slot": "6",
            "type": "t_uint64"
          },
          {
            "astId": 4599,
            "contract": "contracts/CouponBond.sol:CouponBond",
            "label": "endTs",
            "offset": 8,
            "slot": "6",
            "type": "t_uint64"
          },
          {
            "astId": 4601,
            "contract": "contracts/CouponBond.sol:CouponBond",
            "label": "repaidTs",
            "offset": 16,
            "slot": "6",
            "type": "t_uint64"
          }
        ],
        "numberOfBytes": "224"
      },
      "t_uint256": {
        "encoding": "inplace",
        "label": "uint256",
        "numberOfBytes": "32"
      },
      "t_uint64": {
        "encoding": "inplace",
        "label": "uint64",
        "numberOfBytes": "8"
      }
    }
  }
}