{
  "address": "0x5d3bba3d6aD1635a0d4c8242A6f1b7c00C84CDD4",
  "abi": [
    {
      "inputs": [],
      "stateMutability": "nonpayable",
      "type": "constructor"
    },
    {
      "inputs": [
        {
          "internalType": "uint256",
          "name": "id",
          "type": "uint256"
        }
      ],
      "name": "AlreadyRepaid",
      "type": "error"
    },
    {
      "inputs": [
        {
          "internalType": "address",
          "name": "from",
          "type": "address"
        },
        {
          "internalType": "uint256",
          "name": "id",
          "type": "uint256"
        }
      ],
      "name": "EarlyClaim",
      "type": "error"
    },
    {
      "inputs": [],
      "name": "EarlyWithdraw",
      "type": "error"
    },
    {
      "inputs": [],
      "name": "InvalidFinalValue",
      "type": "error"
    },
    {
      "inputs": [
        {
          "internalType": "uint256",
          "name": "id",
          "type": "uint256"
        }
      ],
      "name": "NotRepaid",
      "type": "error"
    },
    {
      "inputs": [],
      "name": "ZeroBalanceClaim",
      "type": "error"
    },
    {
      "inputs": [
        {
          "internalType": "uint256",
          "name": "id",
          "type": "uint256"
        }
      ],
      "name": "ZeroBalanceWithdraw",
      "type": "error"
    },
    {
      "anonymous": false,
      "inputs": [
        {
          "indexed": true,
          "internalType": "address",
          "name": "account",
          "type": "address"
        },
        {
          "indexed": true,
          "internalType": "address",
          "name": "operator",
          "type": "address"
        },
        {
          "indexed": false,
          "internalType": "bool",
          "name": "approved",
          "type": "bool"
        }
      ],
      "name": "ApprovalForAll",
      "type": "event"
    },
    {
      "anonymous": false,
      "inputs": [
        {
          "indexed": true,
          "internalType": "uint256",
          "name": "id",
          "type": "uint256"
        },
        {
          "indexed": false,
          "internalType": "uint256",
          "name": "amount",
          "type": "uint256"
        }
      ],
      "name": "Claimed",
      "type": "event"
    },
    {
      "anonymous": false,
      "inputs": [
        {
          "indexed": true,
          "internalType": "address",
          "name": "previousOwner",
          "type": "address"
        },
        {
          "indexed": true,
          "internalType": "address",
          "name": "newOwner",
          "type": "address"
        }
      ],
      "name": "OwnershipTransferred",
      "type": "event"
    },
    {
      "anonymous": false,
      "inputs": [
        {
          "indexed": false,
          "internalType": "address",
          "name": "account",
          "type": "address"
        }
      ],
      "name": "Paused",
      "type": "event"
    },
    {
      "anonymous": false,
      "inputs": [
        {
          "indexed": true,
          "internalType": "uint256",
          "name": "id",
          "type": "uint256"
        }
      ],
      "name": "ProductAdded",
      "type": "event"
    },
    {
      "anonymous": false,
      "inputs": [
        {
          "indexed": true,
          "internalType": "uint256",
          "name": "id",
          "type": "uint256"
        },
        {
          "indexed": false,
          "internalType": "uint256",
          "name": "repayAmount",
          "type": "uint256"
        },
        {
          "indexed": false,
          "internalType": "uint256",
          "name": "leftAmount",
          "type": "uint256"
        }
      ],
      "name": "Repaid",
      "type": "event"
    },
    {
      "anonymous": false,
      "inputs": [
        {
          "indexed": true,
          "internalType": "address",
          "name": "operator",
          "type": "address"
        },
        {
          "indexed": true,
          "internalType": "address",
          "name": "from",
          "type": "address"
        },
        {
          "indexed": true,
          "internalType": "address",
          "name": "to",
          "type": "address"
        },
        {
          "indexed": false,
          "internalType": "uint256[]",
          "name": "ids",
          "type": "uint256[]"
        },
        {
          "indexed": false,
          "internalType": "uint256[]",
          "name": "values",
          "type": "uint256[]"
        }
      ],
      "name": "TransferBatch",
      "type": "event"
    },
    {
      "anonymous": false,
      "inputs": [
        {
          "indexed": true,
          "internalType": "address",
          "name": "operator",
          "type": "address"
        },
        {
          "indexed": true,
          "internalType": "address",
          "name": "from",
          "type": "address"
        },
        {
          "indexed": true,
          "internalType": "address",
          "name": "to",
          "type": "address"
        },
        {
          "indexed": false,
          "internalType": "uint256",
          "name": "id",
          "type": "uint256"
        },
        {
          "indexed": false,
          "internalType": "uint256",
          "name": "value",
          "type": "uint256"
        }
      ],
      "name": "TransferSingle",
      "type": "event"
    },
    {
      "anonymous": false,
      "inputs": [
        {
          "indexed": false,
          "internalType": "string",
          "name": "value",
          "type": "string"
        },
        {
          "indexed": true,
          "internalType": "uint256",
          "name": "id",
          "type": "uint256"
        }
      ],
      "name": "URI",
      "type": "event"
    },
    {
      "anonymous": false,
      "inputs": [
        {
          "indexed": false,
          "internalType": "address",
          "name": "account",
          "type": "address"
        }
      ],
      "name": "Unpaused",
      "type": "event"
    },
    {
      "inputs": [
        {
          "internalType": "address",
          "name": "_token",
          "type": "address"
        },
        {
          "internalType": "uint256",
          "name": "_value",
          "type": "uint256"
        },
        {
          "internalType": "uint256",
          "name": "_baseInterestPerSecond",
          "type": "uint256"
        },
        {
          "internalType": "uint256",
          "name": "_overdueInterestPerSecond",
          "type": "uint256"
        },
        {
          "internalType": "string",
          "name": "_uri",
          "type": "string"
        },
        {
          "internalType": "uint64",
          "name": "_startTs",
          "type": "uint64"
        },
        {
          "internalType": "uint64",
          "name": "_endTs",
          "type": "uint64"
        }
      ],
      "name": "addProduct",
      "outputs": [],
      "stateMutability": "nonpayable",
      "type": "function"
    },
    {
      "inputs": [
        {
          "internalType": "address",
          "name": "account",
          "type": "address"
        },
        {
          "internalType": "uint256",
          "name": "id",
          "type": "uint256"
        }
      ],
      "name": "balanceOf",
      "outputs": [
        {
          "internalType": "uint256",
          "name": "",
          "type": "uint256"
        }
      ],
      "stateMutability": "view",
      "type": "function"
    },
    {
      "inputs": [
        {
          "internalType": "address[]",
          "name": "accounts",
          "type": "address[]"
        },
        {
          "internalType": "uint256[]",
          "name": "ids",
          "type": "uint256[]"
        }
      ],
      "name": "balanceOfBatch",
      "outputs": [
        {
          "internalType": "uint256[]",
          "name": "",
          "type": "uint256[]"
        }
      ],
      "stateMutability": "view",
      "type": "function"
    },
    {
      "inputs": [
        {
          "internalType": "address",
          "name": "account",
          "type": "address"
        },
        {
          "internalType": "uint256",
          "name": "id",
          "type": "uint256"
        },
        {
          "internalType": "uint256",
          "name": "value",
          "type": "uint256"
        }
      ],
      "name": "burn",
      "outputs": [],
      "stateMutability": "nonpayable",
      "type": "function"
    },
    {
      "inputs": [
        {
          "internalType": "address",
          "name": "account",
          "type": "address"
        },
        {
          "internalType": "uint256[]",
          "name": "ids",
          "type": "uint256[]"
        },
        {
          "internalType": "uint256[]",
          "name": "values",
          "type": "uint256[]"
        }
      ],
      "name": "burnBatch",
      "outputs": [],
      "stateMutability": "nonpayable",
      "type": "function"
    },
    {
      "inputs": [
        {
          "internalType": "address",
          "name": "_to",
          "type": "address"
        },
        {
          "internalType": "uint256",
          "name": "_id",
          "type": "uint256"
        }
      ],
      "name": "claim",
      "outputs": [],
      "stateMutability": "nonpayable",
      "type": "function"
    },
    {
      "inputs": [
        {
          "internalType": "uint256",
          "name": "id",
          "type": "uint256"
        }
      ],
      "name": "exists",
      "outputs": [
        {
          "internalType": "bool",
          "name": "",
          "type": "bool"
        }
      ],
      "stateMutability": "view",
      "type": "function"
    },
    {
      "inputs": [
        {
          "internalType": "uint256",
          "name": "_id",
          "type": "uint256"
        }
      ],
      "name": "getTotalDebt",
      "outputs": [
        {
          "internalType": "uint256",
          "name": "",
          "type": "uint256"
        }
      ],
      "stateMutability": "view",
      "type": "function"
    },
    {
      "inputs": [
        {
          "internalType": "address",
          "name": "_to",
          "type": "address"
        },
        {
          "internalType": "uint256",
          "name": "_id",
          "type": "uint256"
        }
      ],
      "name": "getUnclaimedInterest",
      "outputs": [
        {
          "internalType": "uint256",
          "name": "",
          "type": "uint256"
        }
      ],
      "stateMutability": "view",
      "type": "function"
    },
    {
      "inputs": [
        {
          "internalType": "uint256",
          "name": "_id",
          "type": "uint256"
        }
      ],
      "name": "getUnitDebt",
      "outputs": [
        {
          "internalType": "uint256",
          "name": "",
          "type": "uint256"
        }
      ],
      "stateMutability": "view",
      "type": "function"
    },
    {
      "inputs": [
        {
          "internalType": "uint256",
          "name": "_id",
          "type": "uint256"
        }
      ],
      "name": "getUnpaidDebt",
      "outputs": [
        {
          "internalType": "uint256",
          "name": "",
          "type": "uint256"
        }
      ],
      "stateMutability": "view",
      "type": "function"
    },
    {
      "inputs": [
        {
          "internalType": "address",
          "name": "account",
          "type": "address"
        },
        {
          "internalType": "address",
          "name": "operator",
          "type": "address"
        }
      ],
      "name": "isApprovedForAll",
      "outputs": [
        {
          "internalType": "bool",
          "name": "",
          "type": "bool"
        }
      ],
      "stateMutability": "view",
      "type": "function"
    },
    {
      "inputs": [
        {
          "internalType": "uint256",
          "name": "_id",
          "type": "uint256"
        }
      ],
      "name": "isOverdue",
      "outputs": [
        {
          "internalType": "bool",
          "name": "",
          "type": "bool"
        }
      ],
      "stateMutability": "view",
      "type": "function"
    },
    {
      "inputs": [
        {
          "internalType": "uint256",
          "name": "_id",
          "type": "uint256"
        }
      ],
      "name": "isRepaid",
      "outputs": [
        {
          "internalType": "bool",
          "name": "",
          "type": "bool"
        }
      ],
      "stateMutability": "view",
      "type": "function"
    },
    {
      "inputs": [
        {
          "internalType": "uint256",
          "name": "",
          "type": "uint256"
        },
        {
          "internalType": "address",
          "name": "",
          "type": "address"
        }
      ],
      "name": "lastUpdatedTs",
      "outputs": [
        {
          "internalType": "uint256",
          "name": "",
          "type": "uint256"
        }
      ],
      "stateMutability": "view",
      "type": "function"
    },
    {
      "inputs": [
        {
          "internalType": "uint256",
          "name": "_id",
          "type": "uint256"
        },
        {
          "internalType": "address[]",
          "name": "_addresses",
          "type": "address[]"
        },
        {
          "internalType": "uint256[]",
          "name": "_amounts",
          "type": "uint256[]"
        }
      ],
      "name": "mint",
      "outputs": [],
      "stateMutability": "nonpayable",
      "type": "function"
    },
    {
      "inputs": [],
      "name": "numProducts",
      "outputs": [
        {
          "internalType": "uint256",
          "name": "",
          "type": "uint256"
        }
      ],
      "stateMutability": "view",
      "type": "function"
    },
    {
      "inputs": [],
      "name": "owner",
      "outputs": [
        {
          "internalType": "address",
          "name": "",
          "type": "address"
        }
      ],
      "stateMutability": "view",
      "type": "function"
    },
    {
      "inputs": [],
      "name": "pause",
      "outputs": [],
      "stateMutability": "nonpayable",
      "type": "function"
    },
    {
      "inputs": [],
      "name": "paused",
      "outputs": [
        {
          "internalType": "bool",
          "name": "",
          "type": "bool"
        }
      ],
      "stateMutability": "view",
      "type": "function"
    },
    {
      "inputs": [
        {
          "internalType": "address",
          "name": "_account",
          "type": "address"
        },
        {
          "internalType": "uint256",
          "name": "_id",
          "type": "uint256"
        }
      ],
      "name": "previewClaim",
      "outputs": [
        {
          "internalType": "uint256",
          "name": "",
          "type": "uint256"
        }
      ],
      "stateMutability": "view",
      "type": "function"
    },
    {
      "inputs": [
        {
          "internalType": "uint256",
          "name": "",
          "type": "uint256"
        }
      ],
      "name": "products",
      "outputs": [
        {
          "internalType": "address",
          "name": "token",
          "type": "address"
        },
        {
          "internalType": "uint256",
          "name": "value",
          "type": "uint256"
        },
        {
          "internalType": "uint256",
          "name": "baseInterestPerSecond",
          "type": "uint256"
        },
        {
          "internalType": "uint256",
          "name": "overdueInterestPerSecond",
          "type": "uint256"
        },
        {
          "internalType": "string",
          "name": "uri",
          "type": "string"
        },
        {
          "internalType": "uint256",
          "name": "totalRepaid",
          "type": "uint256"
        },
        {
          "internalType": "uint64",
          "name": "startTs",
          "type": "uint64"
        },
        {
          "internalType": "uint64",
          "name": "endTs",
          "type": "uint64"
        },
        {
          "internalType": "uint64",
          "name": "repaidTs",
          "type": "uint64"
        }
      ],
      "stateMutability": "view",
      "type": "function"
    },
    {
      "inputs": [],
      "name": "renounceOwnership",
      "outputs": [],
      "stateMutability": "nonpayable",
      "type": "function"
    },
    {
      "inputs": [
        {
          "internalType": "uint256",
          "name": "_id",
          "type": "uint256"
        },
        {
          "internalType": "uint256",
          "name": "_amount",
          "type": "uint256"
        }
      ],
      "name": "repay",
      "outputs": [],
      "stateMutability": "nonpayable",
      "type": "function"
    },
    {
      "inputs": [
        {
          "internalType": "address",
          "name": "from",
          "type": "address"
        },
        {
          "internalType": "address",
          "name": "to",
          "type": "address"
        },
        {
          "internalType": "uint256[]",
          "name": "ids",
          "type": "uint256[]"
        },
        {
          "internalType": "uint256[]",
          "name": "amounts",
          "type": "uint256[]"
        },
        {
          "internalType": "bytes",
          "name": "data",
          "type": "bytes"
        }
      ],
      "name": "safeBatchTransferFrom",
      "outputs": [],
      "stateMutability": "nonpayable",
      "type": "function"
    },
    {
      "inputs": [
        {
          "internalType": "address",
          "name": "from",
          "type": "address"
        },
        {
          "internalType": "address",
          "name": "to",
          "type": "address"
        },
        {
          "internalType": "uint256",
          "name": "id",
          "type": "uint256"
        },
        {
          "internalType": "uint256",
          "name": "amount",
          "type": "uint256"
        },
        {
          "internalType": "bytes",
          "name": "data",
          "type": "bytes"
        }
      ],
      "name": "safeTransferFrom",
      "outputs": [],
      "stateMutability": "nonpayable",
      "type": "function"
    },
    {
      "inputs": [
        {
          "internalType": "address",
          "name": "operator",
          "type": "address"
        },
        {
          "internalType": "bool",
          "name": "approved",
          "type": "bool"
        }
      ],
      "name": "setApprovalForAll",
      "outputs": [],
      "stateMutability": "nonpayable",
      "type": "function"
    },
    {
      "inputs": [
        {
          "internalType": "uint256",
          "name": "_id",
          "type": "uint256"
        },
        {
          "internalType": "string",
          "name": "_uri",
          "type": "string"
        }
      ],
      "name": "setURI",
      "outputs": [],
      "stateMutability": "nonpayable",
      "type": "function"
    },
    {
      "inputs": [
        {
          "internalType": "bytes4",
          "name": "interfaceId",
          "type": "bytes4"
        }
      ],
      "name": "supportsInterface",
      "outputs": [
        {
          "internalType": "bool",
          "name": "",
          "type": "bool"
        }
      ],
      "stateMutability": "view",
      "type": "function"
    },
    {
      "inputs": [
        {
          "internalType": "uint256",
          "name": "id",
          "type": "uint256"
        }
      ],
      "name": "totalSupply",
      "outputs": [
        {
          "internalType": "uint256",
          "name": "",
          "type": "uint256"
        }
      ],
      "stateMutability": "view",
      "type": "function"
    },
    {
      "inputs": [
        {
          "internalType": "address",
          "name": "newOwner",
          "type": "address"
        }
      ],
      "name": "transferOwnership",
      "outputs": [],
      "stateMutability": "nonpayable",
      "type": "function"
    },
    {
      "inputs": [
        {
          "internalType": "uint256",
          "name": "",
          "type": "uint256"
        },
        {
          "internalType": "address",
          "name": "",
          "type": "address"
        }
      ],
      "name": "unclaimedInterest",
      "outputs": [
        {
          "internalType": "uint256",
          "name": "",
          "type": "uint256"
        }
      ],
      "stateMutability": "view",
      "type": "function"
    },
    {
      "inputs": [],
      "name": "unpause",
      "outputs": [],
      "stateMutability": "nonpayable",
      "type": "function"
    },
    {
      "inputs": [
        {
          "internalType": "uint256",
          "name": "_id",
          "type": "uint256"
        }
      ],
      "name": "uri",
      "outputs": [
        {
          "internalType": "string",
          "name": "",
          "type": "string"
        }
      ],
      "stateMutability": "view",
      "type": "function"
    }
  ],
  "transactionHash": "0x9ea9e27e0e1ac6b551b59f049e6aae077afb5763fe635c8c33bb2d0ca63e6d9c",
  "args": [],
  "numDeployments": 2,
  "solcInputHash": "9c1869262148ee8d2819147899297466",
  "bytecode": "0x60806040523480156200001157600080fd5b506040518060200160405280600081525062000033816200007560201b60201c565b506000600460006101000a81548160ff0219169083151502179055506200006f620000636200009160201b60201c565b6200009960201b60201c565b62000274565b80600290805190602001906200008d9291906200015f565b5050565b600033905090565b6000600460019054906101000a900473ffffffffffffffffffffffffffffffffffffffff16905081600460016101000a81548173ffffffffffffffffffffffffffffffffffffffff021916908373ffffffffffffffffffffffffffffffffffffffff1602179055508173ffffffffffffffffffffffffffffffffffffffff168173ffffffffffffffffffffffffffffffffffffffff167f8be0079c531659141344cd1fd0a4f28419497f9722a3daafe3b4186f6b6457e060405160405180910390a35050565b8280546200016d906200023e565b90600052602060002090601f016020900481019282620001915760008555620001dd565b82601f10620001ac57805160ff1916838001178555620001dd565b82800160010185558215620001dd579182015b82811115620001dc578251825591602001919060010190620001bf565b5b509050620001ec9190620001f0565b5090565b5b808211156200020b576000816000905550600101620001f1565b5090565b7f4e487b7100000000000000000000000000000000000000000000000000000000600052602260045260246000fd5b600060028204905060018216806200025757607f821691505b602082108114156200026e576200026d6200020f565b5b50919050565b6158a480620002846000396000f3fe608060405234801561001057600080fd5b50600436106102055760003560e01c8063862440e21161011a578063bd85b039116100ad578063e985e9c51161007c578063e985e9c51461063a578063f242432a1461066a578063f2fde38b14610686578063f5298aca146106a2578063fea1e1c2146106be57610205565b8063bd85b039146105a2578063cfa84fc1146105d2578063d22a0d0f146105ee578063d8aed1451461061e57610205565b8063aad3ec96116100e9578063aad3ec961461051c578063ac964f2114610538578063b216e5ae14610556578063bcb8e5a51461057257610205565b8063862440e2146104965780638da5cb5b146104b25780638e1eb411146104d0578063a22cb4651461050057610205565b80634f558e791161019d57806371cf76931161016c57806371cf7693146103c457806375a397a1146103f4578063774bc5be146104245780637acc0b20146104545780638456cb591461048c57610205565b80634f558e79146103505780635c975abb146103805780636b20c4541461039e578063715018a6146103ba57610205565b80632eb2c2d6116101d95780632eb2c2d6146102ca5780633f4ba83a146102e6578063486501c5146102f05780634e1273f41461032057610205565b8062fdd58e1461020a57806301ffc9a71461023a5780630e89341c1461026a57806320e53acb1461029a575b600080fd5b610224600480360381019061021f9190613a98565b6106ee565b6040516102319190613ae7565b60405180910390f35b610254600480360381019061024f9190613b5a565b6107b7565b6040516102619190613ba2565b60405180910390f35b610284600480360381019061027f9190613bbd565b610899565b6040516102919190613c83565b60405180910390f35b6102b460048036038101906102af9190613a98565b610941565b6040516102c19190613ae7565b60405180910390f35b6102e460048036038101906102df9190613ea2565b6109b0565b005b6102ee610a51565b005b61030a60048036038101906103059190613bbd565b610a63565b6040516103179190613ae7565b60405180910390f35b61033a60048036038101906103359190614034565b610a88565b604051610347919061416a565b60405180910390f35b61036a60048036038101906103659190613bbd565b610ba1565b6040516103779190613ba2565b60405180910390f35b610388610bb5565b6040516103959190613ba2565b60405180910390f35b6103b860048036038101906103b3919061418c565b610bcc565b005b6103c2610c69565b005b6103de60048036038101906103d99190613bbd565b610c7d565b6040516103eb9190613ae7565b60405180910390f35b61040e60048036038101906104099190614217565b610cb5565b60405161041b9190613ae7565b60405180910390f35b61043e60048036038101906104399190613bbd565b610cda565b60405161044b9190613ae7565b60405180910390f35b61046e60048036038101906104699190613bbd565b610d84565b60405161048399989796959493929190614289565b60405180910390f35b610494610eb6565b005b6104b060048036038101906104ab91906143be565b610ec8565b005b6104ba610eff565b6040516104c7919061441a565b60405180910390f35b6104ea60048036038101906104e59190613bbd565b610f29565b6040516104f79190613ba2565b60405180910390f35b61051a60048036038101906105159190614461565b610f6a565b005b61053660048036038101906105319190613a98565b610f80565b005b61054061117c565b60405161054d9190613ae7565b60405180910390f35b610570600480360381019061056b91906144cd565b611182565b005b61058c60048036038101906105879190613a98565b611394565b6040516105999190613ae7565b60405180910390f35b6105bc60048036038101906105b79190613bbd565b6113fd565b6040516105c99190613ae7565b60405180910390f35b6105ec60048036038101906105e7919061458b565b61141a565b005b61060860048036038101906106039190613bbd565b6114f7565b6040516106159190613ba2565b60405180910390f35b61063860048036038101906106339190614616565b611537565b005b610654600480360381019061064f9190614656565b6116d5565b6040516106619190613ba2565b60405180910390f35b610684600480360381019061067f9190614696565b611769565b005b6106a0600480360381019061069b919061472d565b61180a565b005b6106bc60048036038101906106b7919061475a565b61188e565b005b6106d860048036038101906106d39190614217565b61192b565b6040516106e59190613ae7565b60405180910390f35b60008073ffffffffffffffffffffffffffffffffffffffff168373ffffffffffffffffffffffffffffffffffffffff16141561075f576040517f08c379a00000000000000000000000000000000000000000000000000000000081526004016107569061481f565b60405180910390fd5b60008083815260200190815260200160002060008473ffffffffffffffffffffffffffffffffffffffff1673ffffffffffffffffffffffffffffffffffffffff16815260200190815260200160002054905092915050565b60007fd9b67a26000000000000000000000000000000000000000000000000000000007bffffffffffffffffffffffffffffffffffffffffffffffffffffffff1916827bffffffffffffffffffffffffffffffffffffffffffffffffffffffff1916148061088257507f0e89341c000000000000000000000000000000000000000000000000000000007bffffffffffffffffffffffffffffffffffffffffffffffffffffffff1916827bffffffffffffffffffffffffffffffffffffffffffffffffffffffff1916145b80610892575061089182611950565b5b9050919050565b60606005600083815260200190815260200160002060040180546108bc9061486e565b80601f01602080910402602001604051908101604052809291908181526020018280546108e89061486e565b80156109355780601f1061090a57610100808354040283529160200191610935565b820191906000526020600020905b81548152906001019060200180831161091857829003601f168201915b50505050509050919050565b600061094d83836119ba565b6008600084815260200190815260200160002060008573ffffffffffffffffffffffffffffffffffffffff1673ffffffffffffffffffffffffffffffffffffffff168152602001908152602001600020546109a891906148cf565b905092915050565b6109b8611aee565b73ffffffffffffffffffffffffffffffffffffffff168573ffffffffffffffffffffffffffffffffffffffff1614806109fe57506109fd856109f8611aee565b6116d5565b5b610a3d576040517f08c379a0000000000000000000000000000000000000000000000000000000008152600401610a3490614997565b60405180910390fd5b610a4a8585858585611af6565b5050505050565b610a59611e18565b610a61611e96565b565b6000610a6e82610cda565b610a77836113fd565b610a8191906149b7565b9050919050565b60608151835114610ace576040517f08c379a0000000000000000000000000000000000000000000000000000000008152600401610ac590614a83565b60405180910390fd5b6000835167ffffffffffffffff811115610aeb57610aea613caa565b5b604051908082528060200260200182016040528015610b195781602001602082028036833780820191505090505b50905060005b8451811015610b9657610b66858281518110610b3e57610b3d614aa3565b5b6020026020010151858381518110610b5957610b58614aa3565b5b60200260200101516106ee565b828281518110610b7957610b78614aa3565b5b60200260200101818152505080610b8f90614ad2565b9050610b1f565b508091505092915050565b600080610bad836113fd565b119050919050565b6000600460009054906101000a900460ff16905090565b610bd4611aee565b73ffffffffffffffffffffffffffffffffffffffff168373ffffffffffffffffffffffffffffffffffffffff161480610c1a5750610c1983610c14611aee565b6116d5565b5b610c59576040517f08c379a0000000000000000000000000000000000000000000000000000000008152600401610c5090614997565b60405180910390fd5b610c64838383611ef9565b505050565b610c71611e18565b610c7b60006121c8565b565b6000806005600084815260200190815260200160002090508060050154610ca384610a63565b610cad9190614b1b565b915050919050565b6007602052816000526040600020602052806000526040600020600091509150505481565b600080600560008481526020019081526020016000209050610d6d816002015482600301548360060160009054906101000a900467ffffffffffffffff1667ffffffffffffffff168460060160089054906101000a900467ffffffffffffffff1667ffffffffffffffff168560060160109054906101000a900467ffffffffffffffff1667ffffffffffffffff1661228e565b8160010154610d7c91906148cf565b915050919050565b60056020528060005260406000206000915090508060000160009054906101000a900473ffffffffffffffffffffffffffffffffffffffff1690806001015490806002015490806003015490806004018054610ddf9061486e565b80601f0160208091040260200160405190810160405280929190818152602001828054610e0b9061486e565b8015610e585780601f10610e2d57610100808354040283529160200191610e58565b820191906000526020600020905b815481529060010190602001808311610e3b57829003601f168201915b5050505050908060050154908060060160009054906101000a900467ffffffffffffffff16908060060160089054906101000a900467ffffffffffffffff16908060060160109054906101000a900467ffffffffffffffff16905089565b610ebe611e18565b610ec6612325565b565b610ed0611e18565b80600560008481526020019081526020016000206004019080519060200190610efa92919061394d565b505050565b6000600460019054906101000a900473ffffffffffffffffffffffffffffffffffffffff16905090565b6000806005600084815260200190815260200160002060060160109054906101000a900467ffffffffffffffff1667ffffffffffffffff1614159050919050565b610f7c610f75611aee565b8383612388565b5050565b610f886124f5565b60006005600083815260200190815260200160002090506000610fab848461253f565b610fb483610f29565b15611045576000610fc585856106ee565b90506008600085815260200190815260200160002060008673ffffffffffffffffffffffffffffffffffffffff1673ffffffffffffffffffffffffffffffffffffffff1681526020019081526020016000205481846001015461102891906149b7565b61103291906148cf565b915061103f858583612638565b50611099565b6008600084815260200190815260200160002060008573ffffffffffffffffffffffffffffffffffffffff1673ffffffffffffffffffffffffffffffffffffffff1681526020019081526020016000205490505b60006008600085815260200190815260200160002060008673ffffffffffffffffffffffffffffffffffffffff1673ffffffffffffffffffffffffffffffffffffffff1681526020019081526020016000208190555061113e84828460000160009054906101000a900473ffffffffffffffffffffffffffffffffffffffff1673ffffffffffffffffffffffffffffffffffffffff1661287f9092919063ffffffff16565b827fc83b5086ce94ec8d5a88a9f5fea4b18a522bb238ed0d2d8abd959549a80c16b88260405161116e9190613ae7565b60405180910390a250505050565b60065481565b61118a611e18565b60006040518061012001604052808973ffffffffffffffffffffffffffffffffffffffff168152602001888152602001878152602001868152602001858152602001600081526020018467ffffffffffffffff1681526020018367ffffffffffffffff168152602001600067ffffffffffffffff1681525090508060056000600654815260200190815260200160002060008201518160000160006101000a81548173ffffffffffffffffffffffffffffffffffffffff021916908373ffffffffffffffffffffffffffffffffffffffff160217905550602082015181600101556040820151816002015560608201518160030155608082015181600401908051906020019061129b92919061394d565b5060a0820151816005015560c08201518160060160006101000a81548167ffffffffffffffff021916908367ffffffffffffffff16021790555060e08201518160060160086101000a81548167ffffffffffffffff021916908367ffffffffffffffff1602179055506101008201518160060160106101000a81548167ffffffffffffffff021916908367ffffffffffffffff1602179055509050506006600081548092919061134a90614ad2565b9190505550600160065461135e9190614b1b565b7f4fc9d5acc453e78e01b205af5788a1c62f195c4b5cdc8eb8f1c670863b7e736a60405160405180910390a25050505050505050565b600061139f82610f29565b156113ea576113ae8383610941565b60056000848152602001908152602001600020600101546113cf85856106ee565b6113d991906149b7565b6113e391906148cf565b90506113f7565b6113f48383610941565b90505b92915050565b600060036000838152602001908152602001600020549050919050565b611422611e18565b60005b825181101561148457600083828151811061144357611442614aa3565b5b60200260200101519050611472818685858151811061146557611464614aa3565b5b6020026020010151612905565b508061147d90614ad2565b9050611425565b5060005b82518110156114f1576114e08382815181106114a7576114a6614aa3565b5b6020026020010151858484815181106114c3576114c2614aa3565b5b602002602001015160405180602001604052806000815250612a19565b806114ea90614ad2565b9050611488565b50505050565b6000426005600084815260200190815260200160002060060160089054906101000a900467ffffffffffffffff1667ffffffffffffffff16109050919050565b6000600560008481526020019081526020016000209050600082905061155c84610f29565b1561159e57836040517f266b64850000000000000000000000000000000000000000000000000000000081526004016115959190613ae7565b60405180910390fd5b60006115a985610c7d565b90507fffffffffffffffffffffffffffffffffffffffffffffffffffffffffffffffff8414156115d7578091505b818360050160008282546115eb91906148cf565b92505081905550826005015461160086610a63565b1161163157428360060160106101000a81548167ffffffffffffffff021916908367ffffffffffffffff1602179055505b61168961163c611aee565b30848660000160009054906101000a900473ffffffffffffffffffffffffffffffffffffffff1673ffffffffffffffffffffffffffffffffffffffff16612bca909392919063ffffffff16565b847f06a603347cb6691efaab973c3ff98f9a16a157e92d51c4783645418d8537912e8384846116b89190614b1b565b6040516116c6929190614b4f565b60405180910390a25050505050565b6000600160008473ffffffffffffffffffffffffffffffffffffffff1673ffffffffffffffffffffffffffffffffffffffff16815260200190815260200160002060008373ffffffffffffffffffffffffffffffffffffffff1673ffffffffffffffffffffffffffffffffffffffff16815260200190815260200160002060009054906101000a900460ff16905092915050565b611771611aee565b73ffffffffffffffffffffffffffffffffffffffff168573ffffffffffffffffffffffffffffffffffffffff1614806117b757506117b6856117b1611aee565b6116d5565b5b6117f6576040517f08c379a00000000000000000000000000000000000000000000000000000000081526004016117ed90614997565b60405180910390fd5b6118038585858585612c53565b5050505050565b611812611e18565b600073ffffffffffffffffffffffffffffffffffffffff168173ffffffffffffffffffffffffffffffffffffffff161415611882576040517f08c379a000000000000000000000000000000000000000000000000000000000815260040161187990614bea565b60405180910390fd5b61188b816121c8565b50565b611896611aee565b73ffffffffffffffffffffffffffffffffffffffff168373ffffffffffffffffffffffffffffffffffffffff1614806118dc57506118db836118d6611aee565b6116d5565b5b61191b576040517f08c379a000000000000000000000000000000000000000000000000000000000815260040161191290614997565b60405180910390fd5b611926838383612638565b505050565b6008602052816000526040600020602052806000526040600020600091509150505481565b60007f01ffc9a7000000000000000000000000000000000000000000000000000000007bffffffffffffffffffffffffffffffffffffffffffffffffffffffff1916827bffffffffffffffffffffffffffffffffffffffffffffffffffffffff1916149050919050565b60008060056000848152602001908152602001600020905060006007600085815260200190815260200160002060008673ffffffffffffffffffffffffffffffffffffffff1673ffffffffffffffffffffffffffffffffffffffff1681526020019081526020016000205490508160060160009054906101000a900467ffffffffffffffff1667ffffffffffffffff16811015611a77578160060160009054906101000a900467ffffffffffffffff1667ffffffffffffffff1690505b611ad082600201548360030154838560060160089054906101000a900467ffffffffffffffff1667ffffffffffffffff168660060160109054906101000a900467ffffffffffffffff1667ffffffffffffffff1661228e565b611ada86866106ee565b611ae491906149b7565b9250505092915050565b600033905090565b8151835114611b3a576040517f08c379a0000000000000000000000000000000000000000000000000000000008152600401611b3190614c7c565b60405180910390fd5b600073ffffffffffffffffffffffffffffffffffffffff168473ffffffffffffffffffffffffffffffffffffffff161415611baa576040517f08c379a0000000000000000000000000000000000000000000000000000000008152600401611ba190614d0e565b60405180910390fd5b6000611bb4611aee565b9050611bc4818787878787612eef565b60005b8451811015611d75576000858281518110611be557611be4614aa3565b5b602002602001015190506000858381518110611c0457611c03614aa3565b5b60200260200101519050600080600084815260200190815260200160002060008b73ffffffffffffffffffffffffffffffffffffffff1673ffffffffffffffffffffffffffffffffffffffff16815260200190815260200160002054905081811015611ca5576040517f08c379a0000000000000000000000000000000000000000000000000000000008152600401611c9c90614da0565b60405180910390fd5b81810360008085815260200190815260200160002060008c73ffffffffffffffffffffffffffffffffffffffff1673ffffffffffffffffffffffffffffffffffffffff168152602001908152602001600020819055508160008085815260200190815260200160002060008b73ffffffffffffffffffffffffffffffffffffffff1673ffffffffffffffffffffffffffffffffffffffff1681526020019081526020016000206000828254611d5a91906148cf565b9250508190555050505080611d6e90614ad2565b9050611bc7565b508473ffffffffffffffffffffffffffffffffffffffff168673ffffffffffffffffffffffffffffffffffffffff168273ffffffffffffffffffffffffffffffffffffffff167f4a39dc06d4c0dbc64b70af90fd698a233a518aa5d07e595d983b8c0526c8f7fb8787604051611dec929190614dc0565b60405180910390a4611e02818787878787612fff565b611e10818787878787613007565b505050505050565b611e20611aee565b73ffffffffffffffffffffffffffffffffffffffff16611e3e610eff565b73ffffffffffffffffffffffffffffffffffffffff1614611e94576040517f08c379a0000000000000000000000000000000000000000000000000000000008152600401611e8b90614e43565b60405180910390fd5b565b611e9e6131ee565b6000600460006101000a81548160ff0219169083151502179055507f5db9ee0a495bf2e6ff9c91a7834c1ba4fdd244a5e8aa4e537bd38aeae4b073aa611ee2611aee565b604051611eef919061441a565b60405180910390a1565b600073ffffffffffffffffffffffffffffffffffffffff168373ffffffffffffffffffffffffffffffffffffffff161415611f69576040517f08c379a0000000000000000000000000000000000000000000000000000000008152600401611f6090614ed5565b60405180910390fd5b8051825114611fad576040517f08c379a0000000000000000000000000000000000000000000000000000000008152600401611fa490614c7c565b60405180910390fd5b6000611fb7611aee565b9050611fd781856000868660405180602001604052806000815250612eef565b60005b8351811015612124576000848281518110611ff857611ff7614aa3565b5b60200260200101519050600084838151811061201757612016614aa3565b5b60200260200101519050600080600084815260200190815260200160002060008973ffffffffffffffffffffffffffffffffffffffff1673ffffffffffffffffffffffffffffffffffffffff168152602001908152602001600020549050818110156120b8576040517f08c379a00000000000000000000000000000000000000000000000000000000081526004016120af90614f67565b60405180910390fd5b81810360008085815260200190815260200160002060008a73ffffffffffffffffffffffffffffffffffffffff1673ffffffffffffffffffffffffffffffffffffffff16815260200190815260200160002081905550505050808061211c90614ad2565b915050611fda565b50600073ffffffffffffffffffffffffffffffffffffffff168473ffffffffffffffffffffffffffffffffffffffff168273ffffffffffffffffffffffffffffffffffffffff167f4a39dc06d4c0dbc64b70af90fd698a233a518aa5d07e595d983b8c0526c8f7fb868660405161219c929190614dc0565b60405180910390a46121c281856000868660405180602001604052806000815250612fff565b50505050565b6000600460019054906101000a900473ffffffffffffffffffffffffffffffffffffffff16905081600460016101000a81548173ffffffffffffffffffffffffffffffffffffffff021916908373ffffffffffffffffffffffffffffffffffffffff1602179055508173ffffffffffffffffffffffffffffffffffffffff168173ffffffffffffffffffffffffffffffffffffffff167f8be0079c531659141344cd1fd0a4f28419497f9722a3daafe3b4186f6b6457e060405160405180910390a35050565b6000806000831461229f57826122a1565b425b90508481116122b457600091505061231c565b600085826122c29190614b1b565b9050600081896122d291906149b7565b9050828610156123155760008787116122eb57876122ed565b865b905080846122fb9190614b1b565b8961230691906149b7565b8261231191906148cf565b9150505b8093505050505b95945050505050565b61232d6124f5565b6001600460006101000a81548160ff0219169083151502179055507f62e78cea01bee320cd4e420270b5ea74000d11b0c9f74754ebdbfc544b05a258612371611aee565b60405161237e919061441a565b60405180910390a1565b8173ffffffffffffffffffffffffffffffffffffffff168373ffffffffffffffffffffffffffffffffffffffff1614156123f7576040517f08c379a00000000000000000000000000000000000000000000000000000000081526004016123ee90614ff9565b60405180910390fd5b80600160008573ffffffffffffffffffffffffffffffffffffffff1673ffffffffffffffffffffffffffffffffffffffff16815260200190815260200160002060008473ffffffffffffffffffffffffffffffffffffffff1673ffffffffffffffffffffffffffffffffffffffff16815260200190815260200160002060006101000a81548160ff0219169083151502179055508173ffffffffffffffffffffffffffffffffffffffff168373ffffffffffffffffffffffffffffffffffffffff167f17307eab39ab6107e8899845ad3d59bd9653f200f220920489ca2b5937696c31836040516124e89190613ba2565b60405180910390a3505050565b6124fd610bb5565b1561253d576040517f08c379a000000000000000000000000000000000000000000000000000000000815260040161253490615065565b60405180910390fd5b565b6005600082815260200190815260200160002060060160009054906101000a900467ffffffffffffffff1667ffffffffffffffff1642101561258057612634565b61258a8282610941565b6008600083815260200190815260200160002060008473ffffffffffffffffffffffffffffffffffffffff1673ffffffffffffffffffffffffffffffffffffffff16815260200190815260200160002081905550426007600083815260200190815260200160002060008473ffffffffffffffffffffffffffffffffffffffff1673ffffffffffffffffffffffffffffffffffffffff168152602001908152602001600020819055505b5050565b600073ffffffffffffffffffffffffffffffffffffffff168373ffffffffffffffffffffffffffffffffffffffff1614156126a8576040517f08c379a000000000000000000000000000000000000000000000000000000000815260040161269f90614ed5565b60405180910390fd5b60006126b2611aee565b905060006126bf84613237565b905060006126cc84613237565b90506126ec83876000858560405180602001604052806000815250612eef565b600080600087815260200190815260200160002060008873ffffffffffffffffffffffffffffffffffffffff1673ffffffffffffffffffffffffffffffffffffffff16815260200190815260200160002054905084811015612783576040517f08c379a000000000000000000000000000000000000000000000000000000000815260040161277a90614f67565b60405180910390fd5b84810360008088815260200190815260200160002060008973ffffffffffffffffffffffffffffffffffffffff1673ffffffffffffffffffffffffffffffffffffffff16815260200190815260200160002081905550600073ffffffffffffffffffffffffffffffffffffffff168773ffffffffffffffffffffffffffffffffffffffff168573ffffffffffffffffffffffffffffffffffffffff167fc3d58168c5ae7397731d063d5bbf3d657854427343f4c083240f7aacaa2d0f628989604051612850929190614b4f565b60405180910390a461287684886000868660405180602001604052806000815250612fff565b50505050505050565b6129008363a9059cbb60e01b848460405160240161289e929190615085565b604051602081830303815290604052907bffffffffffffffffffffffffffffffffffffffffffffffffffffffff19166020820180517bffffffffffffffffffffffffffffffffffffffffffffffffffffffff83818316178352505050506132b1565b505050565b6000600560008481526020019081526020016000209050428160060160009054906101000a900467ffffffffffffffff1667ffffffffffffffff161015612a1357806001015461295484610cda565b61295e9190614b1b565b8261296991906149b7565b6008600085815260200190815260200160002060008673ffffffffffffffffffffffffffffffffffffffff1673ffffffffffffffffffffffffffffffffffffffff16815260200190815260200160002081905550426007600085815260200190815260200160002060008673ffffffffffffffffffffffffffffffffffffffff1673ffffffffffffffffffffffffffffffffffffffff168152602001908152602001600020819055505b50505050565b600073ffffffffffffffffffffffffffffffffffffffff168473ffffffffffffffffffffffffffffffffffffffff161415612a89576040517f08c379a0000000000000000000000000000000000000000000000000000000008152600401612a8090615120565b60405180910390fd5b6000612a93611aee565b90506000612aa085613237565b90506000612aad85613237565b9050612abe83600089858589612eef565b8460008088815260200190815260200160002060008973ffffffffffffffffffffffffffffffffffffffff1673ffffffffffffffffffffffffffffffffffffffff1681526020019081526020016000206000828254612b1d91906148cf565b925050819055508673ffffffffffffffffffffffffffffffffffffffff16600073ffffffffffffffffffffffffffffffffffffffff168473ffffffffffffffffffffffffffffffffffffffff167fc3d58168c5ae7397731d063d5bbf3d657854427343f4c083240f7aacaa2d0f628989604051612b9b929190614b4f565b60405180910390a4612bb283600089858589612fff565b612bc183600089898989613378565b50505050505050565b612c4d846323b872dd60e01b858585604051602401612beb93929190615140565b604051602081830303815290604052907bffffffffffffffffffffffffffffffffffffffffffffffffffffffff19166020820180517bffffffffffffffffffffffffffffffffffffffffffffffffffffffff83818316178352505050506132b1565b50505050565b600073ffffffffffffffffffffffffffffffffffffffff168473ffffffffffffffffffffffffffffffffffffffff161415612cc3576040517f08c379a0000000000000000000000000000000000000000000000000000000008152600401612cba90614d0e565b60405180910390fd5b6000612ccd611aee565b90506000612cda85613237565b90506000612ce785613237565b9050612cf7838989858589612eef565b600080600088815260200190815260200160002060008a73ffffffffffffffffffffffffffffffffffffffff1673ffffffffffffffffffffffffffffffffffffffff16815260200190815260200160002054905085811015612d8e576040517f08c379a0000000000000000000000000000000000000000000000000000000008152600401612d8590614da0565b60405180910390fd5b85810360008089815260200190815260200160002060008b73ffffffffffffffffffffffffffffffffffffffff1673ffffffffffffffffffffffffffffffffffffffff168152602001908152602001600020819055508560008089815260200190815260200160002060008a73ffffffffffffffffffffffffffffffffffffffff1673ffffffffffffffffffffffffffffffffffffffff1681526020019081526020016000206000828254612e4391906148cf565b925050819055508773ffffffffffffffffffffffffffffffffffffffff168973ffffffffffffffffffffffffffffffffffffffff168573ffffffffffffffffffffffffffffffffffffffff167fc3d58168c5ae7397731d063d5bbf3d657854427343f4c083240f7aacaa2d0f628a8a604051612ec0929190614b4f565b60405180910390a4612ed6848a8a86868a612fff565b612ee4848a8a8a8a8a613378565b505050505050505050565b612efd86868686868661355f565b600073ffffffffffffffffffffffffffffffffffffffff168573ffffffffffffffffffffffffffffffffffffffff1614612f7a5760005b8351811015612f78576000848281518110612f5257612f51614aa3565b5b60200260200101519050612f66878261253f565b5080612f7190614ad2565b9050612f34565b505b600073ffffffffffffffffffffffffffffffffffffffff168473ffffffffffffffffffffffffffffffffffffffff1614612ff75760005b8351811015612ff5576000848281518110612fcf57612fce614aa3565b5b60200260200101519050612fe3868261253f565b5080612fee90614ad2565b9050612fb1565b505b505050505050565b505050505050565b6130268473ffffffffffffffffffffffffffffffffffffffff166135bd565b156131e6578373ffffffffffffffffffffffffffffffffffffffff1663bc197c8187878686866040518663ffffffff1660e01b815260040161306c9594939291906151cc565b602060405180830381600087803b15801561308657600080fd5b505af19250505080156130b757506040513d601f19601f820116820180604052508101906130b49190615249565b60015b61315d576130c3615283565b806308c379a0141561312057506130d86152a5565b806130e35750613122565b806040517f08c379a00000000000000000000000000000000000000000000000000000000081526004016131179190613c83565b60405180910390fd5b505b6040517f08c379a0000000000000000000000000000000000000000000000000000000008152600401613154906153ad565b60405180910390fd5b63bc197c8160e01b7bffffffffffffffffffffffffffffffffffffffffffffffffffffffff1916817bffffffffffffffffffffffffffffffffffffffffffffffffffffffff1916146131e4576040517f08c379a00000000000000000000000000000000000000000000000000000000081526004016131db9061543f565b60405180910390fd5b505b505050505050565b6131f6610bb5565b613235576040517f08c379a000000000000000000000000000000000000000000000000000000000815260040161322c906154ab565b60405180910390fd5b565b60606000600167ffffffffffffffff81111561325657613255613caa565b5b6040519080825280602002602001820160405280156132845781602001602082028036833780820191505090505b509050828160008151811061329c5761329b614aa3565b5b60200260200101818152505080915050919050565b6000613313826040518060400160405280602081526020017f5361666545524332303a206c6f772d6c6576656c2063616c6c206661696c65648152508573ffffffffffffffffffffffffffffffffffffffff166135e09092919063ffffffff16565b9050600081511115613373578080602001905181019061333391906154e0565b613372576040517f08c379a00000000000000000000000000000000000000000000000000000000081526004016133699061557f565b60405180910390fd5b5b505050565b6133978473ffffffffffffffffffffffffffffffffffffffff166135bd565b15613557578373ffffffffffffffffffffffffffffffffffffffff1663f23a6e6187878686866040518663ffffffff1660e01b81526004016133dd95949392919061559f565b602060405180830381600087803b1580156133f757600080fd5b505af192505050801561342857506040513d601f19601f820116820180604052508101906134259190615249565b60015b6134ce57613434615283565b806308c379a0141561349157506134496152a5565b806134545750613493565b806040517f08c379a00000000000000000000000000000000000000000000000000000000081526004016134889190613c83565b60405180910390fd5b505b6040517f08c379a00000000000000000000000000000000000000000000000000000000081526004016134c5906153ad565b60405180910390fd5b63f23a6e6160e01b7bffffffffffffffffffffffffffffffffffffffffffffffffffffffff1916817bffffffffffffffffffffffffffffffffffffffffffffffffffffffff191614613555576040517f08c379a000000000000000000000000000000000000000000000000000000000815260040161354c9061543f565b60405180910390fd5b505b505050505050565b61356d8686868686866135f8565b613575610bb5565b156135b5576040517f08c379a00000000000000000000000000000000000000000000000000000000081526004016135ac9061566b565b60405180910390fd5b505050505050565b6000808273ffffffffffffffffffffffffffffffffffffffff163b119050919050565b60606135ef84846000856137ca565b90509392505050565b6136068686868686866138de565b600073ffffffffffffffffffffffffffffffffffffffff168573ffffffffffffffffffffffffffffffffffffffff1614156136b85760005b83518110156136b65782818151811061365a57613659614aa3565b5b60200260200101516003600086848151811061367957613678614aa3565b5b60200260200101518152602001908152602001600020600082825461369e91906148cf565b92505081905550806136af90614ad2565b905061363e565b505b600073ffffffffffffffffffffffffffffffffffffffff168473ffffffffffffffffffffffffffffffffffffffff1614156137c25760005b83518110156137c057600084828151811061370e5761370d614aa3565b5b60200260200101519050600084838151811061372d5761372c614aa3565b5b6020026020010151905060006003600084815260200190815260200160002054905081811015613792576040517f08c379a0000000000000000000000000000000000000000000000000000000008152600401613789906156fd565b60405180910390fd5b8181036003600085815260200190815260200160002081905550505050806137b990614ad2565b90506136f0565b505b505050505050565b60608247101561380f576040517f08c379a00000000000000000000000000000000000000000000000000000000081526004016138069061578f565b60405180910390fd5b613818856135bd565b613857576040517f08c379a000000000000000000000000000000000000000000000000000000000815260040161384e906157fb565b60405180910390fd5b6000808673ffffffffffffffffffffffffffffffffffffffff1685876040516138809190615857565b60006040518083038185875af1925050503d80600081146138bd576040519150601f19603f3d011682016040523d82523d6000602084013e6138c2565b606091505b50915091506138d28282866138e6565b92505050949350505050565b505050505050565b606083156138f657829050613946565b6000835111156139095782518084602001fd5b816040517f08c379a000000000000000000000000000000000000000000000000000000000815260040161393d9190613c83565b60405180910390fd5b9392505050565b8280546139599061486e565b90600052602060002090601f01602090048101928261397b57600085556139c2565b82601f1061399457805160ff19168380011785556139c2565b828001600101855582156139c2579182015b828111156139c15782518255916020019190600101906139a6565b5b5090506139cf91906139d3565b5090565b5b808211156139ec5760008160009055506001016139d4565b5090565b6000604051905090565b600080fd5b600080fd5b600073ffffffffffffffffffffffffffffffffffffffff82169050919050565b6000613a2f82613a04565b9050919050565b613a3f81613a24565b8114613a4a57600080fd5b50565b600081359050613a5c81613a36565b92915050565b6000819050919050565b613a7581613a62565b8114613a8057600080fd5b50565b600081359050613a9281613a6c565b92915050565b60008060408385031215613aaf57613aae6139fa565b5b6000613abd85828601613a4d565b9250506020613ace85828601613a83565b9150509250929050565b613ae181613a62565b82525050565b6000602082019050613afc6000830184613ad8565b92915050565b60007fffffffff0000000000000000000000000000000000000000000000000000000082169050919050565b613b3781613b02565b8114613b4257600080fd5b50565b600081359050613b5481613b2e565b92915050565b600060208284031215613b7057613b6f6139fa565b5b6000613b7e84828501613b45565b91505092915050565b60008115159050919050565b613b9c81613b87565b82525050565b6000602082019050613bb76000830184613b93565b92915050565b600060208284031215613bd357613bd26139fa565b5b6000613be184828501613a83565b91505092915050565b600081519050919050565b600082825260208201905092915050565b60005b83811015613c24578082015181840152602081019050613c09565b83811115613c33576000848401525b50505050565b6000601f19601f8301169050919050565b6000613c5582613bea565b613c5f8185613bf5565b9350613c6f818560208601613c06565b613c7881613c39565b840191505092915050565b60006020820190508181036000830152613c9d8184613c4a565b905092915050565b600080fd5b7f4e487b7100000000000000000000000000000000000000000000000000000000600052604160045260246000fd5b613ce282613c39565b810181811067ffffffffffffffff82111715613d0157613d00613caa565b5b80604052505050565b6000613d146139f0565b9050613d208282613cd9565b919050565b600067ffffffffffffffff821115613d4057613d3f613caa565b5b602082029050602081019050919050565b600080fd5b6000613d69613d6484613d25565b613d0a565b90508083825260208201905060208402830185811115613d8c57613d8b613d51565b5b835b81811015613db55780613da18882613a83565b845260208401935050602081019050613d8e565b5050509392505050565b600082601f830112613dd457613dd3613ca5565b5b8135613de4848260208601613d56565b91505092915050565b600080fd5b600067ffffffffffffffff821115613e0d57613e0c613caa565b5b613e1682613c39565b9050602081019050919050565b82818337600083830152505050565b6000613e45613e4084613df2565b613d0a565b905082815260208101848484011115613e6157613e60613ded565b5b613e6c848285613e23565b509392505050565b600082601f830112613e8957613e88613ca5565b5b8135613e99848260208601613e32565b91505092915050565b600080600080600060a08688031215613ebe57613ebd6139fa565b5b6000613ecc88828901613a4d565b9550506020613edd88828901613a4d565b945050604086013567ffffffffffffffff811115613efe57613efd6139ff565b5b613f0a88828901613dbf565b935050606086013567ffffffffffffffff811115613f2b57613f2a6139ff565b5b613f3788828901613dbf565b925050608086013567ffffffffffffffff811115613f5857613f576139ff565b5b613f6488828901613e74565b9150509295509295909350565b600067ffffffffffffffff821115613f8c57613f8b613caa565b5b602082029050602081019050919050565b6000613fb0613fab84613f71565b613d0a565b90508083825260208201905060208402830185811115613fd357613fd2613d51565b5b835b81811015613ffc5780613fe88882613a4d565b845260208401935050602081019050613fd5565b5050509392505050565b600082601f83011261401b5761401a613ca5565b5b813561402b848260208601613f9d565b91505092915050565b6000806040838503121561404b5761404a6139fa565b5b600083013567ffffffffffffffff811115614069576140686139ff565b5b61407585828601614006565b925050602083013567ffffffffffffffff811115614096576140956139ff565b5b6140a285828601613dbf565b9150509250929050565b600081519050919050565b600082825260208201905092915050565b6000819050602082019050919050565b6140e181613a62565b82525050565b60006140f383836140d8565b60208301905092915050565b6000602082019050919050565b6000614117826140ac565b61412181856140b7565b935061412c836140c8565b8060005b8381101561415d57815161414488826140e7565b975061414f836140ff565b925050600181019050614130565b5085935050505092915050565b60006020820190508181036000830152614184818461410c565b905092915050565b6000806000606084860312156141a5576141a46139fa565b5b60006141b386828701613a4d565b935050602084013567ffffffffffffffff8111156141d4576141d36139ff565b5b6141e086828701613dbf565b925050604084013567ffffffffffffffff811115614201576142006139ff565b5b61420d86828701613dbf565b9150509250925092565b6000806040838503121561422e5761422d6139fa565b5b600061423c85828601613a83565b925050602061424d85828601613a4d565b9150509250929050565b61426081613a24565b82525050565b600067ffffffffffffffff82169050919050565b61428381614266565b82525050565b60006101208201905061429f600083018c614257565b6142ac602083018b613ad8565b6142b9604083018a613ad8565b6142c66060830189613ad8565b81810360808301526142d88188613c4a565b90506142e760a0830187613ad8565b6142f460c083018661427a565b61430160e083018561427a565b61430f61010083018461427a565b9a9950505050505050505050565b600067ffffffffffffffff82111561433857614337613caa565b5b61434182613c39565b9050602081019050919050565b600061436161435c8461431d565b613d0a565b90508281526020810184848401111561437d5761437c613ded565b5b614388848285613e23565b509392505050565b600082601f8301126143a5576143a4613ca5565b5b81356143b584826020860161434e565b91505092915050565b600080604083850312156143d5576143d46139fa565b5b60006143e385828601613a83565b925050602083013567ffffffffffffffff811115614404576144036139ff565b5b61441085828601614390565b9150509250929050565b600060208201905061442f6000830184614257565b92915050565b61443e81613b87565b811461444957600080fd5b50565b60008135905061445b81614435565b92915050565b60008060408385031215614478576144776139fa565b5b600061448685828601613a4d565b92505060206144978582860161444c565b9150509250929050565b6144aa81614266565b81146144b557600080fd5b50565b6000813590506144c7816144a1565b92915050565b600080600080600080600060e0888a0312156144ec576144eb6139fa565b5b60006144fa8a828b01613a4d565b975050602061450b8a828b01613a83565b965050604061451c8a828b01613a83565b955050606061452d8a828b01613a83565b945050608088013567ffffffffffffffff81111561454e5761454d6139ff565b5b61455a8a828b01614390565b93505060a061456b8a828b016144b8565b92505060c061457c8a828b016144b8565b91505092959891949750929550565b6000806000606084860312156145a4576145a36139fa565b5b60006145b286828701613a83565b935050602084013567ffffffffffffffff8111156145d3576145d26139ff565b5b6145df86828701614006565b925050604084013567ffffffffffffffff811115614600576145ff6139ff565b5b61460c86828701613dbf565b9150509250925092565b6000806040838503121561462d5761462c6139fa565b5b600061463b85828601613a83565b925050602061464c85828601613a83565b9150509250929050565b6000806040838503121561466d5761466c6139fa565b5b600061467b85828601613a4d565b925050602061468c85828601613a4d565b9150509250929050565b600080600080600060a086880312156146b2576146b16139fa565b5b60006146c088828901613a4d565b95505060206146d188828901613a4d565b94505060406146e288828901613a83565b93505060606146f388828901613a83565b925050608086013567ffffffffffffffff811115614714576147136139ff565b5b61472088828901613e74565b9150509295509295909350565b600060208284031215614743576147426139fa565b5b600061475184828501613a4d565b91505092915050565b600080600060608486031215614773576147726139fa565b5b600061478186828701613a4d565b935050602061479286828701613a83565b92505060406147a386828701613a83565b9150509250925092565b7f455243313135353a2061646472657373207a65726f206973206e6f742061207660008201527f616c6964206f776e657200000000000000000000000000000000000000000000602082015250565b6000614809602a83613bf5565b9150614814826147ad565b604082019050919050565b60006020820190508181036000830152614838816147fc565b9050919050565b7f4e487b7100000000000000000000000000000000000000000000000000000000600052602260045260246000fd5b6000600282049050600182168061488657607f821691505b6020821081141561489a5761489961483f565b5b50919050565b7f4e487b7100000000000000000000000000000000000000000000000000000000600052601160045260246000fd5b60006148da82613a62565b91506148e583613a62565b9250827fffffffffffffffffffffffffffffffffffffffffffffffffffffffffffffffff0382111561491a576149196148a0565b5b828201905092915050565b7f455243313135353a2063616c6c6572206973206e6f7420746f6b656e206f776e60008201527f6572206e6f7220617070726f7665640000000000000000000000000000000000602082015250565b6000614981602f83613bf5565b915061498c82614925565b604082019050919050565b600060208201905081810360008301526149b081614974565b9050919050565b60006149c282613a62565b91506149cd83613a62565b9250817fffffffffffffffffffffffffffffffffffffffffffffffffffffffffffffffff0483118215151615614a0657614a056148a0565b5b828202905092915050565b7f455243313135353a206163636f756e747320616e6420696473206c656e67746860008201527f206d69736d617463680000000000000000000000000000000000000000000000602082015250565b6000614a6d602983613bf5565b9150614a7882614a11565b604082019050919050565b60006020820190508181036000830152614a9c81614a60565b9050919050565b7f4e487b7100000000000000000000000000000000000000000000000000000000600052603260045260246000fd5b6000614add82613a62565b91507fffffffffffffffffffffffffffffffffffffffffffffffffffffffffffffffff821415614b1057614b0f6148a0565b5b600182019050919050565b6000614b2682613a62565b9150614b3183613a62565b925082821015614b4457614b436148a0565b5b828203905092915050565b6000604082019050614b646000830185613ad8565b614b716020830184613ad8565b9392505050565b7f4f776e61626c653a206e6577206f776e657220697320746865207a65726f206160008201527f6464726573730000000000000000000000000000000000000000000000000000602082015250565b6000614bd4602683613bf5565b9150614bdf82614b78565b604082019050919050565b60006020820190508181036000830152614c0381614bc7565b9050919050565b7f455243313135353a2069647320616e6420616d6f756e7473206c656e6774682060008201527f6d69736d61746368000000000000000000000000000000000000000000000000602082015250565b6000614c66602883613bf5565b9150614c7182614c0a565b604082019050919050565b60006020820190508181036000830152614c9581614c59565b9050919050565b7f455243313135353a207472616e7366657220746f20746865207a65726f20616460008201527f6472657373000000000000000000000000000000000000000000000000000000602082015250565b6000614cf8602583613bf5565b9150614d0382614c9c565b604082019050919050565b60006020820190508181036000830152614d2781614ceb565b9050919050565b7f455243313135353a20696e73756666696369656e742062616c616e636520666f60008201527f72207472616e7366657200000000000000000000000000000000000000000000602082015250565b6000614d8a602a83613bf5565b9150614d9582614d2e565b604082019050919050565b60006020820190508181036000830152614db981614d7d565b9050919050565b60006040820190508181036000830152614dda818561410c565b90508181036020830152614dee818461410c565b90509392505050565b7f4f776e61626c653a2063616c6c6572206973206e6f7420746865206f776e6572600082015250565b6000614e2d602083613bf5565b9150614e3882614df7565b602082019050919050565b60006020820190508181036000830152614e5c81614e20565b9050919050565b7f455243313135353a206275726e2066726f6d20746865207a65726f206164647260008201527f6573730000000000000000000000000000000000000000000000000000000000602082015250565b6000614ebf602383613bf5565b9150614eca82614e63565b604082019050919050565b60006020820190508181036000830152614eee81614eb2565b9050919050565b7f455243313135353a206275726e20616d6f756e7420657863656564732062616c60008201527f616e636500000000000000000000000000000000000000000000000000000000602082015250565b6000614f51602483613bf5565b9150614f5c82614ef5565b604082019050919050565b60006020820190508181036000830152614f8081614f44565b9050919050565b7f455243313135353a2073657474696e6720617070726f76616c2073746174757360008201527f20666f722073656c660000000000000000000000000000000000000000000000602082015250565b6000614fe3602983613bf5565b9150614fee82614f87565b604082019050919050565b6000602082019050818103600083015261501281614fd6565b9050919050565b7f5061757361626c653a2070617573656400000000000000000000000000000000600082015250565b600061504f601083613bf5565b915061505a82615019565b602082019050919050565b6000602082019050818103600083015261507e81615042565b9050919050565b600060408201905061509a6000830185614257565b6150a76020830184613ad8565b9392505050565b7f455243313135353a206d696e7420746f20746865207a65726f2061646472657360008201527f7300000000000000000000000000000000000000000000000000000000000000602082015250565b600061510a602183613bf5565b9150615115826150ae565b604082019050919050565b60006020820190508181036000830152615139816150fd565b9050919050565b60006060820190506151556000830186614257565b6151626020830185614257565b61516f6040830184613ad8565b949350505050565b600081519050919050565b600082825260208201905092915050565b600061519e82615177565b6151a88185615182565b93506151b8818560208601613c06565b6151c181613c39565b840191505092915050565b600060a0820190506151e16000830188614257565b6151ee6020830187614257565b8181036040830152615200818661410c565b90508181036060830152615214818561410c565b905081810360808301526152288184615193565b90509695505050505050565b60008151905061524381613b2e565b92915050565b60006020828403121561525f5761525e6139fa565b5b600061526d84828501615234565b91505092915050565b60008160e01c9050919050565b600060033d11156152a25760046000803e61529f600051615276565b90505b90565b600060443d10156152b557615338565b6152bd6139f0565b60043d036004823e80513d602482011167ffffffffffffffff821117156152e5575050615338565b808201805167ffffffffffffffff8111156153035750505050615338565b80602083010160043d038501811115615320575050505050615338565b61532f82602001850186613cd9565b82955050505050505b90565b7f455243313135353a207472616e7366657220746f206e6f6e204552433131353560008201527f526563656976657220696d706c656d656e746572000000000000000000000000602082015250565b6000615397603483613bf5565b91506153a28261533b565b604082019050919050565b600060208201905081810360008301526153c68161538a565b9050919050565b7f455243313135353a204552433131353552656365697665722072656a6563746560008201527f6420746f6b656e73000000000000000000000000000000000000000000000000602082015250565b6000615429602883613bf5565b9150615434826153cd565b604082019050919050565b600060208201905081810360008301526154588161541c565b9050919050565b7f5061757361626c653a206e6f7420706175736564000000000000000000000000600082015250565b6000615495601483613bf5565b91506154a08261545f565b602082019050919050565b600060208201905081810360008301526154c481615488565b9050919050565b6000815190506154da81614435565b92915050565b6000602082840312156154f6576154f56139fa565b5b6000615504848285016154cb565b91505092915050565b7f5361666545524332303a204552433230206f7065726174696f6e20646964206e60008201527f6f74207375636365656400000000000000000000000000000000000000000000602082015250565b6000615569602a83613bf5565b91506155748261550d565b604082019050919050565b600060208201905081810360008301526155988161555c565b9050919050565b600060a0820190506155b46000830188614257565b6155c16020830187614257565b6155ce6040830186613ad8565b6155db6060830185613ad8565b81810360808301526155ed8184615193565b90509695505050505050565b7f455243313135355061757361626c653a20746f6b656e207472616e736665722060008201527f7768696c65207061757365640000000000000000000000000000000000000000602082015250565b6000615655602c83613bf5565b9150615660826155f9565b604082019050919050565b6000602082019050818103600083015261568481615648565b9050919050565b7f455243313135353a206275726e20616d6f756e74206578636565647320746f7460008201527f616c537570706c79000000000000000000000000000000000000000000000000602082015250565b60006156e7602883613bf5565b91506156f28261568b565b604082019050919050565b60006020820190508181036000830152615716816156da565b9050919050565b7f416464726573733a20696e73756666696369656e742062616c616e636520666f60008201527f722063616c6c0000000000000000000000000000000000000000000000000000602082015250565b6000615779602683613bf5565b91506157848261571d565b604082019050919050565b600060208201905081810360008301526157a88161576c565b9050919050565b7f416464726573733a2063616c6c20746f206e6f6e2d636f6e7472616374000000600082015250565b60006157e5601d83613bf5565b91506157f0826157af565b602082019050919050565b60006020820190508181036000830152615814816157d8565b9050919050565b600081905092915050565b600061583182615177565b61583b818561581b565b935061584b818560208601613c06565b80840191505092915050565b60006158638284615826565b91508190509291505056fea26469706673582212200fd8edd1d38727b5197c970372657a330b9a0fcf3188133e246ed876b1a9fe8964736f6c63430008090033",
  "devdoc": {
    "kind": "dev",
    "methods": {
      "balanceOf(address,uint256)": {
        "details": "See {IERC1155-balanceOf}. Requirements: - `account` cannot be the zero address."
      },
      "balanceOfBatch(address[],uint256[])": {
        "details": "See {IERC1155-balanceOfBatch}. Requirements: - `accounts` and `ids` must have the same length."
      },
      "exists(uint256)": {
        "details": "Indicates whether any token exist with a given id, or not."
      },
      "getTotalDebt(uint256)": {
        "details": "ERC-1155 totalSupply has no decimal. Therefore, just multiply totalSupply * debt per token"
      },
      "isApprovedForAll(address,address)": {
        "details": "See {IERC1155-isApprovedForAll}."
      },
      "owner()": {
        "details": "Returns the address of the current owner."
      },
      "paused()": {
        "details": "Returns true if the contract is paused, and false otherwise."
      },
      "renounceOwnership()": {
        "details": "Leaves the contract without owner. It will not be possible to call `onlyOwner` functions anymore. Can only be called by the current owner. NOTE: Renouncing ownership will leave the contract without an owner, thereby removing any functionality that is only available to the owner."
      },
      "repay(uint256,uint256)": {
        "details": "It is not able to repay after fully repaying the loan. The caller need to approve the repaying token. There are 3 cases. 1. block.timestamp < startTimestamp: repay only the principal. 2. startTs <= block.timestamp <= endTs: repay principal + interest 3. endTs < block.timestamp: repay principal + interest + overdue interest",
        "params": {
          "_amount": "amount of token to repay. type(uint256).max means to repay all.",
          "_id": "token id"
        }
      },
      "safeBatchTransferFrom(address,address,uint256[],uint256[],bytes)": {
        "details": "See {IERC1155-safeBatchTransferFrom}."
      },
      "safeTransferFrom(address,address,uint256,uint256,bytes)": {
        "details": "See {IERC1155-safeTransferFrom}."
      },
      "setApprovalForAll(address,bool)": {
        "details": "See {IERC1155-setApprovalForAll}."
      },
      "supportsInterface(bytes4)": {
        "details": "See {IERC165-supportsInterface}."
      },
      "totalSupply(uint256)": {
        "details": "Total amount of tokens in with a given id."
      },
      "transferOwnership(address)": {
        "details": "Transfers ownership of the contract to a new account (`newOwner`). Can only be called by the current owner."
      }
    },
    "version": 1
  },
  "userdoc": {
    "kind": "user",
    "methods": {
      "claim(address,uint256)": {
        "notice": "Nft holders claim their interest. Users with zero balance are also able to claim because they might have once had it, but transferred."
      },
      "getUnclaimedInterest(address,uint256)": {
        "notice": "Calculate unclaimed interest"
      },
      "getUnitDebt(uint256)": {
        "notice": "Calculate the debt value if it has never been claimed. It does not increase after repaid."
      },
      "getUnpaidDebt(uint256)": {
        "notice": "Calculate the debt value to be fully repaid."
      },
      "isOverdue(uint256)": {
        "notice": "Show whether the loan has not been repaid on time."
      },
      "isRepaid(uint256)": {
        "notice": "Show whether the loan is repaid."
      },
      "previewClaim(address,uint256)": {
        "notice": "Calculate how many tokens to receive on claim."
      }
    },
    "notice": "This repays the interest monthly. At the maturity date, lenders receive the principal and one-month interest.",
    "version": 1
  },
  "storageLayout": {
    "storage": [
      {
        "astId": 246,
        "contract": "contracts/CouponBond.sol:CouponBond",
        "label": "_balances",
        "offset": 0,
        "slot": "0",
        "type": "t_mapping(t_uint256,t_mapping(t_address,t_uint256))"
      },
      {
        "astId": 252,
        "contract": "contracts/CouponBond.sol:CouponBond",
        "label": "_operatorApprovals",
        "offset": 0,
        "slot": "1",
        "type": "t_mapping(t_address,t_mapping(t_address,t_bool))"
      },
      {
        "astId": 254,
        "contract": "contracts/CouponBond.sol:CouponBond",
        "label": "_uri",
        "offset": 0,
        "slot": "2",
        "type": "t_string_storage"
      },
      {
        "astId": 1733,
        "contract": "contracts/CouponBond.sol:CouponBond",
        "label": "_totalSupply",
        "offset": 0,
        "slot": "3",
        "type": "t_mapping(t_uint256,t_uint256)"
      },
      {
        "astId": 130,
        "contract": "contracts/CouponBond.sol:CouponBond",
        "label": "_paused",
        "offset": 0,
        "slot": "4",
        "type": "t_bool"
      },
      {
        "astId": 7,
        "contract": "contracts/CouponBond.sol:CouponBond",
        "label": "_owner",
        "offset": 1,
        "slot": "4",
        "type": "t_address"
      },
      {
        "astId": 2672,
        "contract": "contracts/CouponBond.sol:CouponBond",
        "label": "products",
        "offset": 0,
        "slot": "5",
        "type": "t_mapping(t_uint256,t_struct(Product)3581_storage)"
      },
      {
        "astId": 2674,
        "contract": "contracts/CouponBond.sol:CouponBond",
        "label": "numProducts",
        "offset": 0,
        "slot": "6",
        "type": "t_uint256"
      },
      {
        "astId": 2680,
        "contract": "contracts/CouponBond.sol:CouponBond",
        "label": "lastUpdatedTs",
        "offset": 0,
        "slot": "7",
        "type": "t_mapping(t_uint256,t_mapping(t_address,t_uint256))"
      },
      {
        "astId": 2686,
        "contract": "contracts/CouponBond.sol:CouponBond",
        "label": "unclaimedInterest",
        "offset": 0,
        "slot": "8",
        "type": "t_mapping(t_uint256,t_mapping(t_address,t_uint256))"
      }
    ],
    "types": {
      "t_address": {
        "encoding": "inplace",
        "label": "address",
        "numberOfBytes": "20"
      },
      "t_bool": {
        "encoding": "inplace",
        "label": "bool",
        "numberOfBytes": "1"
      },
      "t_mapping(t_address,t_bool)": {
        "encoding": "mapping",
        "key": "t_address",
        "label": "mapping(address => bool)",
        "numberOfBytes": "32",
        "value": "t_bool"
      },
      "t_mapping(t_address,t_mapping(t_address,t_bool))": {
        "encoding": "mapping",
        "key": "t_address",
        "label": "mapping(address => mapping(address => bool))",
        "numberOfBytes": "32",
        "value": "t_mapping(t_address,t_bool)"
      },
      "t_mapping(t_address,t_uint256)": {
        "encoding": "mapping",
        "key": "t_address",
        "label": "mapping(address => uint256)",
        "numberOfBytes": "32",
        "value": "t_uint256"
      },
      "t_mapping(t_uint256,t_mapping(t_address,t_uint256))": {
        "encoding": "mapping",
        "key": "t_uint256",
        "label": "mapping(uint256 => mapping(address => uint256))",
        "numberOfBytes": "32",
        "value": "t_mapping(t_address,t_uint256)"
      },
      "t_mapping(t_uint256,t_struct(Product)3581_storage)": {
        "encoding": "mapping",
        "key": "t_uint256",
        "label": "mapping(uint256 => struct ICouponBond.Product)",
        "numberOfBytes": "32",
        "value": "t_struct(Product)3581_storage"
      },
      "t_mapping(t_uint256,t_uint256)": {
        "encoding": "mapping",
        "key": "t_uint256",
        "label": "mapping(uint256 => uint256)",
        "numberOfBytes": "32",
        "value": "t_uint256"
      },
      "t_string_storage": {
        "encoding": "bytes",
        "label": "string",
        "numberOfBytes": "32"
      },
      "t_struct(Product)3581_storage": {
        "encoding": "inplace",
        "label": "struct ICouponBond.Product",
        "members": [
          {
            "astId": 3564,
            "contract": "contracts/CouponBond.sol:CouponBond",
            "label": "token",
            "offset": 0,
            "slot": "0",
            "type": "t_address"
          },
          {
            "astId": 3566,
            "contract": "contracts/CouponBond.sol:CouponBond",
            "label": "value",
            "offset": 0,
            "slot": "1",
            "type": "t_uint256"
          },
          {
            "astId": 3568,
            "contract": "contracts/CouponBond.sol:CouponBond",
            "label": "baseInterestPerSecond",
            "offset": 0,
            "slot": "2",
            "type": "t_uint256"
          },
          {
            "astId": 3570,
            "contract": "contracts/CouponBond.sol:CouponBond",
            "label": "overdueInterestPerSecond",
            "offset": 0,
            "slot": "3",
            "type": "t_uint256"
          },
          {
            "astId": 3572,
            "contract": "contracts/CouponBond.sol:CouponBond",
            "label": "uri",
            "offset": 0,
            "slot": "4",
            "type": "t_string_storage"
          },
          {
            "astId": 3574,
            "contract": "contracts/CouponBond.sol:CouponBond",
            "label": "totalRepaid",
            "offset": 0,
            "slot": "5",
            "type": "t_uint256"
          },
          {
            "astId": 3576,
            "contract": "contracts/CouponBond.sol:CouponBond",
            "label": "startTs",
            "offset": 0,
            "slot": "6",
            "type": "t_uint64"
          },
          {
            "astId": 3578,
            "contract": "contracts/CouponBond.sol:CouponBond",
            "label": "endTs",
            "offset": 8,
            "slot": "6",
            "type": "t_uint64"
          },
          {
            "astId": 3580,
            "contract": "contracts/CouponBond.sol:CouponBond",
            "label": "repaidTs",
            "offset": 16,
            "slot": "6",
            "type": "t_uint64"
          }
        ],
        "numberOfBytes": "224"
      },
      "t_uint256": {
        "encoding": "inplace",
        "label": "uint256",
        "numberOfBytes": "32"
      },
      "t_uint64": {
        "encoding": "inplace",
        "label": "uint64",
        "numberOfBytes": "8"
      }
    }
  }
}