{
  "address": "0x8945C570122e36D919A2eAb0Bcc63478E9Cd4f94",
  "abi": [
    {
      "inputs": [],
      "stateMutability": "nonpayable",
      "type": "constructor"
    },
    {
      "inputs": [
        {
          "internalType": "uint256",
          "name": "_id",
          "type": "uint256"
        }
      ],
      "name": "AlreadyRepaid",
      "type": "error"
    },
    {
      "inputs": [
        {
          "internalType": "address",
          "name": "_from",
          "type": "address"
        },
        {
          "internalType": "uint256",
          "name": "_id",
          "type": "uint256"
        }
      ],
      "name": "EarlyClaim",
      "type": "error"
    },
    {
      "inputs": [],
      "name": "EarlyWithdraw",
      "type": "error"
    },
    {
      "inputs": [],
      "name": "InvalidFinalValue",
      "type": "error"
    },
    {
      "inputs": [
        {
          "internalType": "uint256",
          "name": "_id",
          "type": "uint256"
        }
      ],
      "name": "NotRepaid",
      "type": "error"
    },
    {
      "inputs": [],
      "name": "ZeroBalanceClaim",
      "type": "error"
    },
    {
      "inputs": [
        {
          "internalType": "uint256",
          "name": "_id",
          "type": "uint256"
        }
      ],
      "name": "ZeroBalanceWithdraw",
      "type": "error"
    },
    {
      "anonymous": false,
      "inputs": [
        {
          "indexed": true,
          "internalType": "address",
          "name": "account",
          "type": "address"
        },
        {
          "indexed": true,
          "internalType": "address",
          "name": "operator",
          "type": "address"
        },
        {
          "indexed": false,
          "internalType": "bool",
          "name": "approved",
          "type": "bool"
        }
      ],
      "name": "ApprovalForAll",
      "type": "event"
    },
    {
      "anonymous": false,
      "inputs": [
        {
          "indexed": true,
          "internalType": "address",
          "name": "previousOwner",
          "type": "address"
        },
        {
          "indexed": true,
          "internalType": "address",
          "name": "newOwner",
          "type": "address"
        }
      ],
      "name": "OwnershipTransferred",
      "type": "event"
    },
    {
      "anonymous": false,
      "inputs": [
        {
          "indexed": false,
          "internalType": "address",
          "name": "account",
          "type": "address"
        }
      ],
      "name": "Paused",
      "type": "event"
    },
    {
      "anonymous": false,
      "inputs": [
        {
          "indexed": true,
          "internalType": "address",
          "name": "operator",
          "type": "address"
        },
        {
          "indexed": true,
          "internalType": "address",
          "name": "from",
          "type": "address"
        },
        {
          "indexed": true,
          "internalType": "address",
          "name": "to",
          "type": "address"
        },
        {
          "indexed": false,
          "internalType": "uint256[]",
          "name": "ids",
          "type": "uint256[]"
        },
        {
          "indexed": false,
          "internalType": "uint256[]",
          "name": "values",
          "type": "uint256[]"
        }
      ],
      "name": "TransferBatch",
      "type": "event"
    },
    {
      "anonymous": false,
      "inputs": [
        {
          "indexed": true,
          "internalType": "address",
          "name": "operator",
          "type": "address"
        },
        {
          "indexed": true,
          "internalType": "address",
          "name": "from",
          "type": "address"
        },
        {
          "indexed": true,
          "internalType": "address",
          "name": "to",
          "type": "address"
        },
        {
          "indexed": false,
          "internalType": "uint256",
          "name": "id",
          "type": "uint256"
        },
        {
          "indexed": false,
          "internalType": "uint256",
          "name": "value",
          "type": "uint256"
        }
      ],
      "name": "TransferSingle",
      "type": "event"
    },
    {
      "anonymous": false,
      "inputs": [
        {
          "indexed": false,
          "internalType": "string",
          "name": "value",
          "type": "string"
        },
        {
          "indexed": true,
          "internalType": "uint256",
          "name": "id",
          "type": "uint256"
        }
      ],
      "name": "URI",
      "type": "event"
    },
    {
      "anonymous": false,
      "inputs": [
        {
          "indexed": false,
          "internalType": "address",
          "name": "account",
          "type": "address"
        }
      ],
      "name": "Unpaused",
      "type": "event"
    },
    {
      "inputs": [
        {
          "internalType": "uint256",
          "name": "_initialSupply",
          "type": "uint256"
        },
        {
          "internalType": "address",
          "name": "_token",
          "type": "address"
        },
        {
          "internalType": "uint256",
          "name": "_value",
          "type": "uint256"
        },
        {
          "internalType": "uint256",
          "name": "_interestPerSecond",
          "type": "uint256"
        },
        {
          "internalType": "uint256",
          "name": "_overdueInterestPerSecond",
          "type": "uint256"
        },
        {
          "internalType": "string",
          "name": "_uri",
          "type": "string"
        },
        {
          "internalType": "uint64",
          "name": "_startTs",
          "type": "uint64"
        },
        {
          "internalType": "uint64",
          "name": "_endTs",
          "type": "uint64"
        }
      ],
      "name": "addProduct",
      "outputs": [],
      "stateMutability": "nonpayable",
      "type": "function"
    },
    {
      "inputs": [
        {
          "internalType": "address",
          "name": "account",
          "type": "address"
        },
        {
          "internalType": "uint256",
          "name": "id",
          "type": "uint256"
        }
      ],
      "name": "balanceOf",
      "outputs": [
        {
          "internalType": "uint256",
          "name": "",
          "type": "uint256"
        }
      ],
      "stateMutability": "view",
      "type": "function"
    },
    {
      "inputs": [
        {
          "internalType": "address[]",
          "name": "accounts",
          "type": "address[]"
        },
        {
          "internalType": "uint256[]",
          "name": "ids",
          "type": "uint256[]"
        }
      ],
      "name": "balanceOfBatch",
      "outputs": [
        {
          "internalType": "uint256[]",
          "name": "",
          "type": "uint256[]"
        }
      ],
      "stateMutability": "view",
      "type": "function"
    },
    {
      "inputs": [
        {
          "internalType": "address",
          "name": "account",
          "type": "address"
        },
        {
          "internalType": "uint256",
          "name": "id",
          "type": "uint256"
        },
        {
          "internalType": "uint256",
          "name": "value",
          "type": "uint256"
        }
      ],
      "name": "burn",
      "outputs": [],
      "stateMutability": "nonpayable",
      "type": "function"
    },
    {
      "inputs": [
        {
          "internalType": "address",
          "name": "account",
          "type": "address"
        },
        {
          "internalType": "uint256[]",
          "name": "ids",
          "type": "uint256[]"
        },
        {
          "internalType": "uint256[]",
          "name": "values",
          "type": "uint256[]"
        }
      ],
      "name": "burnBatch",
      "outputs": [],
      "stateMutability": "nonpayable",
      "type": "function"
    },
    {
      "inputs": [
        {
          "internalType": "address",
          "name": "_to",
          "type": "address"
        },
        {
          "internalType": "uint256",
          "name": "_id",
          "type": "uint256"
        }
      ],
      "name": "claim",
      "outputs": [],
      "stateMutability": "nonpayable",
      "type": "function"
    },
    {
      "inputs": [
        {
          "internalType": "uint256",
          "name": "id",
          "type": "uint256"
        }
      ],
      "name": "exists",
      "outputs": [
        {
          "internalType": "bool",
          "name": "",
          "type": "bool"
        }
      ],
      "stateMutability": "view",
      "type": "function"
    },
    {
      "inputs": [
        {
          "internalType": "address",
          "name": "_to",
          "type": "address"
        },
        {
          "internalType": "uint256",
          "name": "_id",
          "type": "uint256"
        }
      ],
      "name": "getInterest",
      "outputs": [
        {
          "internalType": "uint256",
          "name": "",
          "type": "uint256"
        }
      ],
      "stateMutability": "view",
      "type": "function"
    },
    {
      "inputs": [
        {
          "internalType": "uint256",
          "name": "_id",
          "type": "uint256"
        }
      ],
      "name": "getUnitDebt",
      "outputs": [
        {
          "internalType": "uint256",
          "name": "",
          "type": "uint256"
        }
      ],
      "stateMutability": "view",
      "type": "function"
    },
    {
      "inputs": [
        {
          "internalType": "uint256",
          "name": "_id",
          "type": "uint256"
        }
      ],
      "name": "getUnpaidDebt",
      "outputs": [
        {
          "internalType": "uint256",
          "name": "",
          "type": "uint256"
        }
      ],
      "stateMutability": "view",
      "type": "function"
    },
    {
      "inputs": [
        {
          "internalType": "address",
          "name": "account",
          "type": "address"
        },
        {
          "internalType": "address",
          "name": "operator",
          "type": "address"
        }
      ],
      "name": "isApprovedForAll",
      "outputs": [
        {
          "internalType": "bool",
          "name": "",
          "type": "bool"
        }
      ],
      "stateMutability": "view",
      "type": "function"
    },
    {
      "inputs": [
        {
          "internalType": "uint256",
          "name": "_id",
          "type": "uint256"
        }
      ],
      "name": "isRepaid",
      "outputs": [
        {
          "internalType": "bool",
          "name": "",
          "type": "bool"
        }
      ],
      "stateMutability": "view",
      "type": "function"
    },
    {
      "inputs": [
        {
          "internalType": "uint256",
          "name": "",
          "type": "uint256"
        },
        {
          "internalType": "address",
          "name": "",
          "type": "address"
        }
      ],
      "name": "lastUpdatedTs",
      "outputs": [
        {
          "internalType": "uint256",
          "name": "",
          "type": "uint256"
        }
      ],
      "stateMutability": "view",
      "type": "function"
    },
    {
      "inputs": [],
      "name": "numProducts",
      "outputs": [
        {
          "internalType": "uint256",
          "name": "",
          "type": "uint256"
        }
      ],
      "stateMutability": "view",
      "type": "function"
    },
    {
      "inputs": [],
      "name": "owner",
      "outputs": [
        {
          "internalType": "address",
          "name": "",
          "type": "address"
        }
      ],
      "stateMutability": "view",
      "type": "function"
    },
    {
      "inputs": [],
      "name": "pause",
      "outputs": [],
      "stateMutability": "nonpayable",
      "type": "function"
    },
    {
      "inputs": [],
      "name": "paused",
      "outputs": [
        {
          "internalType": "bool",
          "name": "",
          "type": "bool"
        }
      ],
      "stateMutability": "view",
      "type": "function"
    },
    {
      "inputs": [
        {
          "internalType": "uint256",
          "name": "",
          "type": "uint256"
        }
      ],
      "name": "products",
      "outputs": [
        {
          "internalType": "address",
          "name": "token",
          "type": "address"
        },
        {
          "internalType": "uint256",
          "name": "value",
          "type": "uint256"
        },
        {
          "internalType": "uint256",
          "name": "interestPerSecond",
          "type": "uint256"
        },
        {
          "internalType": "uint256",
          "name": "overdueInterestPerSecond",
          "type": "uint256"
        },
        {
          "internalType": "string",
          "name": "uri",
          "type": "string"
        },
        {
          "internalType": "uint256",
          "name": "tokenBalance",
          "type": "uint256"
        },
        {
          "internalType": "uint64",
          "name": "startTs",
          "type": "uint64"
        },
        {
          "internalType": "uint64",
          "name": "endTs",
          "type": "uint64"
        },
        {
          "internalType": "uint64",
          "name": "repaidTs",
          "type": "uint64"
        }
      ],
      "stateMutability": "view",
      "type": "function"
    },
    {
      "inputs": [],
      "name": "renounceOwnership",
      "outputs": [],
      "stateMutability": "nonpayable",
      "type": "function"
    },
    {
      "inputs": [
        {
          "internalType": "uint256",
          "name": "_id",
          "type": "uint256"
        },
        {
          "internalType": "uint256",
          "name": "_amount",
          "type": "uint256"
        }
      ],
      "name": "repay",
      "outputs": [],
      "stateMutability": "nonpayable",
      "type": "function"
    },
    {
      "inputs": [
        {
          "internalType": "address",
          "name": "from",
          "type": "address"
        },
        {
          "internalType": "address",
          "name": "to",
          "type": "address"
        },
        {
          "internalType": "uint256[]",
          "name": "ids",
          "type": "uint256[]"
        },
        {
          "internalType": "uint256[]",
          "name": "amounts",
          "type": "uint256[]"
        },
        {
          "internalType": "bytes",
          "name": "data",
          "type": "bytes"
        }
      ],
      "name": "safeBatchTransferFrom",
      "outputs": [],
      "stateMutability": "nonpayable",
      "type": "function"
    },
    {
      "inputs": [
        {
          "internalType": "address",
          "name": "from",
          "type": "address"
        },
        {
          "internalType": "address",
          "name": "to",
          "type": "address"
        },
        {
          "internalType": "uint256",
          "name": "id",
          "type": "uint256"
        },
        {
          "internalType": "uint256",
          "name": "amount",
          "type": "uint256"
        },
        {
          "internalType": "bytes",
          "name": "data",
          "type": "bytes"
        }
      ],
      "name": "safeTransferFrom",
      "outputs": [],
      "stateMutability": "nonpayable",
      "type": "function"
    },
    {
      "inputs": [
        {
          "internalType": "address",
          "name": "operator",
          "type": "address"
        },
        {
          "internalType": "bool",
          "name": "approved",
          "type": "bool"
        }
      ],
      "name": "setApprovalForAll",
      "outputs": [],
      "stateMutability": "nonpayable",
      "type": "function"
    },
    {
      "inputs": [
        {
          "internalType": "uint256",
          "name": "_id",
          "type": "uint256"
        },
        {
          "internalType": "string",
          "name": "_uri",
          "type": "string"
        }
      ],
      "name": "setURI",
      "outputs": [],
      "stateMutability": "nonpayable",
      "type": "function"
    },
    {
      "inputs": [
        {
          "internalType": "bytes4",
          "name": "interfaceId",
          "type": "bytes4"
        }
      ],
      "name": "supportsInterface",
      "outputs": [
        {
          "internalType": "bool",
          "name": "",
          "type": "bool"
        }
      ],
      "stateMutability": "view",
      "type": "function"
    },
    {
      "inputs": [
        {
          "internalType": "uint256",
          "name": "id",
          "type": "uint256"
        }
      ],
      "name": "totalSupply",
      "outputs": [
        {
          "internalType": "uint256",
          "name": "",
          "type": "uint256"
        }
      ],
      "stateMutability": "view",
      "type": "function"
    },
    {
      "inputs": [
        {
          "internalType": "address",
          "name": "newOwner",
          "type": "address"
        }
      ],
      "name": "transferOwnership",
      "outputs": [],
      "stateMutability": "nonpayable",
      "type": "function"
    },
    {
      "inputs": [
        {
          "internalType": "uint256",
          "name": "",
          "type": "uint256"
        },
        {
          "internalType": "address",
          "name": "",
          "type": "address"
        }
      ],
      "name": "unclaimedInterest",
      "outputs": [
        {
          "internalType": "uint256",
          "name": "",
          "type": "uint256"
        }
      ],
      "stateMutability": "view",
      "type": "function"
    },
    {
      "inputs": [],
      "name": "unpause",
      "outputs": [],
      "stateMutability": "nonpayable",
      "type": "function"
    },
    {
      "inputs": [
        {
          "internalType": "uint256",
          "name": "_id",
          "type": "uint256"
        }
      ],
      "name": "uri",
      "outputs": [
        {
          "internalType": "string",
          "name": "",
          "type": "string"
        }
      ],
      "stateMutability": "view",
      "type": "function"
    }
  ],
  "transactionHash": "0xed5a346b48cb35c629c7ac3845cb5669f6601a1807569b34200bdfcdc50970d3",
  "args": [],
  "numDeployments": 1,
  "solcInputHash": "e065c26b51d346bbca49c5c17920dce1",
  "bytecode": "0x60806040523480156200001157600080fd5b506040518060200160405280600081525062000033816200007560201b60201c565b506000600460006101000a81548160ff0219169083151502179055506200006f620000636200009160201b60201c565b6200009960201b60201c565b62000274565b80600290805190602001906200008d9291906200015f565b5050565b600033905090565b6000600460019054906101000a900473ffffffffffffffffffffffffffffffffffffffff16905081600460016101000a81548173ffffffffffffffffffffffffffffffffffffffff021916908373ffffffffffffffffffffffffffffffffffffffff1602179055508173ffffffffffffffffffffffffffffffffffffffff168173ffffffffffffffffffffffffffffffffffffffff167f8be0079c531659141344cd1fd0a4f28419497f9722a3daafe3b4186f6b6457e060405160405180910390a35050565b8280546200016d906200023e565b90600052602060002090601f016020900481019282620001915760008555620001dd565b82601f10620001ac57805160ff1916838001178555620001dd565b82800160010185558215620001dd579182015b82811115620001dc578251825591602001919060010190620001bf565b5b509050620001ec9190620001f0565b5090565b5b808211156200020b576000816000905550600101620001f1565b5090565b7f4e487b7100000000000000000000000000000000000000000000000000000000600052602260045260246000fd5b600060028204905060018216806200025757607f821691505b602082108114156200026e576200026d6200020f565b5b50919050565b6155ca80620002846000396000f3fe608060405234801561001057600080fd5b50600436106101d95760003560e01c80638456cb5911610104578063bd85b039116100a2578063f242432a11610071578063f242432a14610592578063f2fde38b146105ae578063f5298aca146105ca578063fea1e1c2146105e6576101d9565b8063bd85b039146104e6578063d6cf57e614610516578063d8aed14514610546578063e985e9c514610562576101d9565b80638e1eb411116100de5780638e1eb41114610460578063a22cb46514610490578063aad3ec96146104ac578063ac964f21146104c8576101d9565b80638456cb591461041c578063862440e2146104265780638da5cb5b14610442576101d9565b80634f558e791161017c57806371cf76931161014b57806371cf76931461035457806375a397a114610384578063774bc5be146103b45780637acc0b20146103e4576101d9565b80634f558e79146102e05780635c975abb146103105780636b20c4541461032e578063715018a61461034a576101d9565b80630e89341c116101b85780630e89341c1461025a5780632eb2c2d61461028a5780633f4ba83a146102a65780634e1273f4146102b0576101d9565b8062fdd58e146101de57806301ffc9a71461020e57806304cefd831461023e575b600080fd5b6101f860048036038101906101f39190613835565b610616565b6040516102059190613884565b60405180910390f35b610228600480360381019061022391906138f7565b6106df565b604051610235919061393f565b60405180910390f35b61025860048036038101906102539190613ae0565b6107c1565b005b610274600480360381019061026f9190613bb2565b6109bd565b6040516102819190613c67565b60405180910390f35b6102a4600480360381019061029f9190613df2565b610a65565b005b6102ae610b06565b005b6102ca60048036038101906102c59190613f84565b610b18565b6040516102d791906140ba565b60405180910390f35b6102fa60048036038101906102f59190613bb2565b610c31565b604051610307919061393f565b60405180910390f35b610318610c45565b604051610325919061393f565b60405180910390f35b610348600480360381019061034391906140dc565b610c5c565b005b610352610cf9565b005b61036e60048036038101906103699190613bb2565b610d0d565b60405161037b9190613884565b60405180910390f35b61039e60048036038101906103999190614167565b610d58565b6040516103ab9190613884565b60405180910390f35b6103ce60048036038101906103c99190613bb2565b610d7d565b6040516103db9190613884565b60405180910390f35b6103fe60048036038101906103f99190613bb2565b610ef8565b604051610413999897969594939291906141c5565b60405180910390f35b61042461102a565b005b610440600480360381019061043b9190614259565b61103c565b005b61044a611073565b60405161045791906142b5565b60405180910390f35b61047a60048036038101906104759190613bb2565b61109d565b604051610487919061393f565b60405180910390f35b6104aa60048036038101906104a591906142fc565b6110de565b005b6104c660048036038101906104c19190613835565b6110f4565b005b6104d0611357565b6040516104dd9190613884565b60405180910390f35b61050060048036038101906104fb9190613bb2565b61135d565b60405161050d9190613884565b60405180910390f35b610530600480360381019061052b9190613835565b61137a565b60405161053d9190613884565b60405180910390f35b610560600480360381019061055b919061433c565b6114b9565b005b61057c6004803603810190610577919061437c565b611603565b604051610589919061393f565b60405180910390f35b6105ac60048036038101906105a791906143bc565b611697565b005b6105c860048036038101906105c39190614453565b611738565b005b6105e460048036038101906105df9190614480565b6117bc565b005b61060060048036038101906105fb9190614167565b611859565b60405161060d9190613884565b60405180910390f35b60008073ffffffffffffffffffffffffffffffffffffffff168373ffffffffffffffffffffffffffffffffffffffff161415610687576040517f08c379a000000000000000000000000000000000000000000000000000000000815260040161067e90614545565b60405180910390fd5b60008083815260200190815260200160002060008473ffffffffffffffffffffffffffffffffffffffff1673ffffffffffffffffffffffffffffffffffffffff16815260200190815260200160002054905092915050565b60007fd9b67a26000000000000000000000000000000000000000000000000000000007bffffffffffffffffffffffffffffffffffffffffffffffffffffffff1916827bffffffffffffffffffffffffffffffffffffffffffffffffffffffff191614806107aa57507f0e89341c000000000000000000000000000000000000000000000000000000007bffffffffffffffffffffffffffffffffffffffffffffffffffffffff1916827bffffffffffffffffffffffffffffffffffffffffffffffffffffffff1916145b806107ba57506107b98261187e565b5b9050919050565b6107c96118e8565b60006040518061012001604052808973ffffffffffffffffffffffffffffffffffffffff168152602001888152602001878152602001868152602001858152602001600081526020018467ffffffffffffffff1681526020018367ffffffffffffffff168152602001600067ffffffffffffffff1681525090508060056000600654815260200190815260200160002060008201518160000160006101000a81548173ffffffffffffffffffffffffffffffffffffffff021916908373ffffffffffffffffffffffffffffffffffffffff16021790555060208201518160010155604082015181600201556060820151816003015560808201518160040190805190602001906108da9291906136ea565b5060a0820151816005015560c08201518160060160006101000a81548167ffffffffffffffff021916908367ffffffffffffffff16021790555060e08201518160060160086101000a81548167ffffffffffffffff021916908367ffffffffffffffff1602179055506101008201518160060160106101000a81548167ffffffffffffffff021916908367ffffffffffffffff16021790555090505061099a610981611073565b6006548b60405180602001604052806000815250611966565b600660008154809291906109ad90614594565b9190505550505050505050505050565b60606005600083815260200190815260200160002060040180546109e09061460c565b80601f0160208091040260200160405190810160405280929190818152602001828054610a0c9061460c565b8015610a595780601f10610a2e57610100808354040283529160200191610a59565b820191906000526020600020905b815481529060010190602001808311610a3c57829003601f168201915b50505050509050919050565b610a6d611b17565b73ffffffffffffffffffffffffffffffffffffffff168573ffffffffffffffffffffffffffffffffffffffff161480610ab35750610ab285610aad611b17565b611603565b5b610af2576040517f08c379a0000000000000000000000000000000000000000000000000000000008152600401610ae9906146b0565b60405180910390fd5b610aff8585858585611b1f565b5050505050565b610b0e6118e8565b610b16611e41565b565b60608151835114610b5e576040517f08c379a0000000000000000000000000000000000000000000000000000000008152600401610b5590614742565b60405180910390fd5b6000835167ffffffffffffffff811115610b7b57610b7a613975565b5b604051908082528060200260200182016040528015610ba95781602001602082028036833780820191505090505b50905060005b8451811015610c2657610bf6858281518110610bce57610bcd614762565b5b6020026020010151858381518110610be957610be8614762565b5b6020026020010151610616565b828281518110610c0957610c08614762565b5b60200260200101818152505080610c1f90614594565b9050610baf565b508091505092915050565b600080610c3d8361135d565b119050919050565b6000600460009054906101000a900460ff16905090565b610c64611b17565b73ffffffffffffffffffffffffffffffffffffffff168373ffffffffffffffffffffffffffffffffffffffff161480610caa5750610ca983610ca4611b17565b611603565b5b610ce9576040517f08c379a0000000000000000000000000000000000000000000000000000000008152600401610ce0906146b0565b60405180910390fd5b610cf4838383611ea4565b505050565b610d016118e8565b610d0b6000612173565b565b6000806005600084815260200190815260200160002090508060050154610d3384610d7d565b610d3c8561135d565b610d469190614791565b610d5091906147eb565b915050919050565b6007602052816000526040600020602052806000526040600020600091509150505481565b6000806005600084815260200190815260200160002090506000610da08461109d565b15610dcf578160060160109054906101000a900467ffffffffffffffff1667ffffffffffffffff169050610e28565b8160060160009054906101000a900467ffffffffffffffff1667ffffffffffffffff16421015610e23578160060160009054906101000a900467ffffffffffffffff1667ffffffffffffffff169050610e27565b4290505b5b60008260060160009054906101000a900467ffffffffffffffff1667ffffffffffffffff1682610e5891906147eb565b8360020154610e679190614791565b9050818360060160089054906101000a900467ffffffffffffffff1667ffffffffffffffff161015610ede578260060160089054906101000a900467ffffffffffffffff1667ffffffffffffffff1682610ec191906147eb565b8360030154610ed09190614791565b81610edb919061481f565b90505b808360010154610eee919061481f565b9350505050919050565b60056020528060005260406000206000915090508060000160009054906101000a900473ffffffffffffffffffffffffffffffffffffffff1690806001015490806002015490806003015490806004018054610f539061460c565b80601f0160208091040260200160405190810160405280929190818152602001828054610f7f9061460c565b8015610fcc5780601f10610fa157610100808354040283529160200191610fcc565b820191906000526020600020905b815481529060010190602001808311610faf57829003601f168201915b5050505050908060050154908060060160009054906101000a900467ffffffffffffffff16908060060160089054906101000a900467ffffffffffffffff16908060060160109054906101000a900467ffffffffffffffff16905089565b6110326118e8565b61103a612239565b565b6110446118e8565b8060056000848152602001908152602001600020600401908051906020019061106e9291906136ea565b505050565b6000600460019054906101000a900473ffffffffffffffffffffffffffffffffffffffff16905090565b6000806005600084815260200190815260200160002060060160109054906101000a900467ffffffffffffffff1667ffffffffffffffff1614159050919050565b6110f06110e9611b17565b838361229c565b5050565b6110fc612409565b6000600560008381526020019081526020016000209050600061111f8484612453565b428260060160089054906101000a900467ffffffffffffffff1667ffffffffffffffff161115801561115657506111558361109d565b5b156111e85760006111678585610616565b90506008600085815260200190815260200160002060008673ffffffffffffffffffffffffffffffffffffffff1673ffffffffffffffffffffffffffffffffffffffff168152602001908152602001600020548184600101546111ca9190614791565b6111d4919061481f565b91506111e28585600161262a565b5061123c565b6008600084815260200190815260200160002060008573ffffffffffffffffffffffffffffffffffffffff1673ffffffffffffffffffffffffffffffffffffffff1681526020019081526020016000205490505b60006008600085815260200190815260200160002060008673ffffffffffffffffffffffffffffffffffffffff1673ffffffffffffffffffffffffffffffffffffffff16815260200190815260200160002081905550426007600085815260200190815260200160002060008673ffffffffffffffffffffffffffffffffffffffff1673ffffffffffffffffffffffffffffffffffffffff16815260200190815260200160002081905550808260050160008282546112fb91906147eb565b9250508190555061135184828460000160009054906101000a900473ffffffffffffffffffffffffffffffffffffffff1673ffffffffffffffffffffffffffffffffffffffff166128719092919063ffffffff16565b50505050565b60065481565b600060036000838152602001908152602001600020549050919050565b60008060056000848152602001908152602001600020905060008160060160009054906101000a900467ffffffffffffffff1667ffffffffffffffff1610156113c75760009150506114b3565b60006007600085815260200190815260200160002060008673ffffffffffffffffffffffffffffffffffffffff1673ffffffffffffffffffffffffffffffffffffffff16815260200190815260200160002054905061145382600201548360030154838560060160089054906101000a900467ffffffffffffffff1667ffffffffffffffff16426128f7565b6008600086815260200190815260200160002060008773ffffffffffffffffffffffffffffffffffffffff1673ffffffffffffffffffffffffffffffffffffffff168152602001908152602001600020546114ae919061481f565b925050505b92915050565b600060056000848152602001908152602001600020905060008290506114de8461109d565b1561152057836040517f266b64850000000000000000000000000000000000000000000000000000000081526004016115179190613884565b60405180910390fd5b600061152b85610d0d565b90507fffffffffffffffffffffffffffffffffffffffffffffffffffffffffffffffff841415611559578091505b8183600501600082825461156d919061481f565b92505081905550826005015481116115ab57428360060160106101000a81548167ffffffffffffffff021916908367ffffffffffffffff1602179055505b6115fc3330848660000160009054906101000a900473ffffffffffffffffffffffffffffffffffffffff1673ffffffffffffffffffffffffffffffffffffffff16612967909392919063ffffffff16565b5050505050565b6000600160008473ffffffffffffffffffffffffffffffffffffffff1673ffffffffffffffffffffffffffffffffffffffff16815260200190815260200160002060008373ffffffffffffffffffffffffffffffffffffffff1673ffffffffffffffffffffffffffffffffffffffff16815260200190815260200160002060009054906101000a900460ff16905092915050565b61169f611b17565b73ffffffffffffffffffffffffffffffffffffffff168573ffffffffffffffffffffffffffffffffffffffff1614806116e557506116e4856116df611b17565b611603565b5b611724576040517f08c379a000000000000000000000000000000000000000000000000000000000815260040161171b906146b0565b60405180910390fd5b61173185858585856129f0565b5050505050565b6117406118e8565b600073ffffffffffffffffffffffffffffffffffffffff168173ffffffffffffffffffffffffffffffffffffffff1614156117b0576040517f08c379a00000000000000000000000000000000000000000000000000000000081526004016117a7906148e7565b60405180910390fd5b6117b981612173565b50565b6117c4611b17565b73ffffffffffffffffffffffffffffffffffffffff168373ffffffffffffffffffffffffffffffffffffffff16148061180a575061180983611804611b17565b611603565b5b611849576040517f08c379a0000000000000000000000000000000000000000000000000000000008152600401611840906146b0565b60405180910390fd5b61185483838361262a565b505050565b6008602052816000526040600020602052806000526040600020600091509150505481565b60007f01ffc9a7000000000000000000000000000000000000000000000000000000007bffffffffffffffffffffffffffffffffffffffffffffffffffffffff1916827bffffffffffffffffffffffffffffffffffffffffffffffffffffffff1916149050919050565b6118f0611b17565b73ffffffffffffffffffffffffffffffffffffffff1661190e611073565b73ffffffffffffffffffffffffffffffffffffffff1614611964576040517f08c379a000000000000000000000000000000000000000000000000000000000815260040161195b90614953565b60405180910390fd5b565b600073ffffffffffffffffffffffffffffffffffffffff168473ffffffffffffffffffffffffffffffffffffffff1614156119d6576040517f08c379a00000000000000000000000000000000000000000000000000000000081526004016119cd906149e5565b60405180910390fd5b60006119e0611b17565b905060006119ed85612c8c565b905060006119fa85612c8c565b9050611a0b83600089858589612d06565b8460008088815260200190815260200160002060008973ffffffffffffffffffffffffffffffffffffffff1673ffffffffffffffffffffffffffffffffffffffff1681526020019081526020016000206000828254611a6a919061481f565b925050819055508673ffffffffffffffffffffffffffffffffffffffff16600073ffffffffffffffffffffffffffffffffffffffff168473ffffffffffffffffffffffffffffffffffffffff167fc3d58168c5ae7397731d063d5bbf3d657854427343f4c083240f7aacaa2d0f628989604051611ae8929190614a05565b60405180910390a4611aff83600089858589612e16565b611b0e83600089898989612e1e565b50505050505050565b600033905090565b8151835114611b63576040517f08c379a0000000000000000000000000000000000000000000000000000000008152600401611b5a90614aa0565b60405180910390fd5b600073ffffffffffffffffffffffffffffffffffffffff168473ffffffffffffffffffffffffffffffffffffffff161415611bd3576040517f08c379a0000000000000000000000000000000000000000000000000000000008152600401611bca90614b32565b60405180910390fd5b6000611bdd611b17565b9050611bed818787878787612d06565b60005b8451811015611d9e576000858281518110611c0e57611c0d614762565b5b602002602001015190506000858381518110611c2d57611c2c614762565b5b60200260200101519050600080600084815260200190815260200160002060008b73ffffffffffffffffffffffffffffffffffffffff1673ffffffffffffffffffffffffffffffffffffffff16815260200190815260200160002054905081811015611cce576040517f08c379a0000000000000000000000000000000000000000000000000000000008152600401611cc590614bc4565b60405180910390fd5b81810360008085815260200190815260200160002060008c73ffffffffffffffffffffffffffffffffffffffff1673ffffffffffffffffffffffffffffffffffffffff168152602001908152602001600020819055508160008085815260200190815260200160002060008b73ffffffffffffffffffffffffffffffffffffffff1673ffffffffffffffffffffffffffffffffffffffff1681526020019081526020016000206000828254611d83919061481f565b9250508190555050505080611d9790614594565b9050611bf0565b508473ffffffffffffffffffffffffffffffffffffffff168673ffffffffffffffffffffffffffffffffffffffff168273ffffffffffffffffffffffffffffffffffffffff167f4a39dc06d4c0dbc64b70af90fd698a233a518aa5d07e595d983b8c0526c8f7fb8787604051611e15929190614be4565b60405180910390a4611e2b818787878787612e16565b611e39818787878787613005565b505050505050565b611e496131ec565b6000600460006101000a81548160ff0219169083151502179055507f5db9ee0a495bf2e6ff9c91a7834c1ba4fdd244a5e8aa4e537bd38aeae4b073aa611e8d611b17565b604051611e9a91906142b5565b60405180910390a1565b600073ffffffffffffffffffffffffffffffffffffffff168373ffffffffffffffffffffffffffffffffffffffff161415611f14576040517f08c379a0000000000000000000000000000000000000000000000000000000008152600401611f0b90614c8d565b60405180910390fd5b8051825114611f58576040517f08c379a0000000000000000000000000000000000000000000000000000000008152600401611f4f90614aa0565b60405180910390fd5b6000611f62611b17565b9050611f8281856000868660405180602001604052806000815250612d06565b60005b83518110156120cf576000848281518110611fa357611fa2614762565b5b602002602001015190506000848381518110611fc257611fc1614762565b5b60200260200101519050600080600084815260200190815260200160002060008973ffffffffffffffffffffffffffffffffffffffff1673ffffffffffffffffffffffffffffffffffffffff16815260200190815260200160002054905081811015612063576040517f08c379a000000000000000000000000000000000000000000000000000000000815260040161205a90614d1f565b60405180910390fd5b81810360008085815260200190815260200160002060008a73ffffffffffffffffffffffffffffffffffffffff1673ffffffffffffffffffffffffffffffffffffffff1681526020019081526020016000208190555050505080806120c790614594565b915050611f85565b50600073ffffffffffffffffffffffffffffffffffffffff168473ffffffffffffffffffffffffffffffffffffffff168273ffffffffffffffffffffffffffffffffffffffff167f4a39dc06d4c0dbc64b70af90fd698a233a518aa5d07e595d983b8c0526c8f7fb8686604051612147929190614be4565b60405180910390a461216d81856000868660405180602001604052806000815250612e16565b50505050565b6000600460019054906101000a900473ffffffffffffffffffffffffffffffffffffffff16905081600460016101000a81548173ffffffffffffffffffffffffffffffffffffffff021916908373ffffffffffffffffffffffffffffffffffffffff1602179055508173ffffffffffffffffffffffffffffffffffffffff168173ffffffffffffffffffffffffffffffffffffffff167f8be0079c531659141344cd1fd0a4f28419497f9722a3daafe3b4186f6b6457e060405160405180910390a35050565b612241612409565b6001600460006101000a81548160ff0219169083151502179055507f62e78cea01bee320cd4e420270b5ea74000d11b0c9f74754ebdbfc544b05a258612285611b17565b60405161229291906142b5565b60405180910390a1565b8173ffffffffffffffffffffffffffffffffffffffff168373ffffffffffffffffffffffffffffffffffffffff16141561230b576040517f08c379a000000000000000000000000000000000000000000000000000000000815260040161230290614db1565b60405180910390fd5b80600160008573ffffffffffffffffffffffffffffffffffffffff1673ffffffffffffffffffffffffffffffffffffffff16815260200190815260200160002060008473ffffffffffffffffffffffffffffffffffffffff1673ffffffffffffffffffffffffffffffffffffffff16815260200190815260200160002060006101000a81548160ff0219169083151502179055508173ffffffffffffffffffffffffffffffffffffffff168373ffffffffffffffffffffffffffffffffffffffff167f17307eab39ab6107e8899845ad3d59bd9653f200f220920489ca2b5937696c31836040516123fc919061393f565b60405180910390a3505050565b612411610c45565b15612451576040517f08c379a000000000000000000000000000000000000000000000000000000000815260040161244890614e1d565b60405180910390fd5b565b60006005600083815260200190815260200160002090508060060160009054906101000a900467ffffffffffffffff1667ffffffffffffffff1642116124995750612626565b60006007600084815260200190815260200160002060008573ffffffffffffffffffffffffffffffffffffffff1673ffffffffffffffffffffffffffffffffffffffff168152602001908152602001600020549050600081141561251d578160060160009054906101000a900467ffffffffffffffff1667ffffffffffffffff1690505b61255482600201548360030154838560060160089054906101000a900467ffffffffffffffff1667ffffffffffffffff16426128f7565b61255e8585610616565b6125689190614791565b6008600085815260200190815260200160002060008673ffffffffffffffffffffffffffffffffffffffff1673ffffffffffffffffffffffffffffffffffffffff16815260200190815260200160002060008282546125c7919061481f565b92505081905550426007600085815260200190815260200160002060008673ffffffffffffffffffffffffffffffffffffffff1673ffffffffffffffffffffffffffffffffffffffff1681526020019081526020016000208190555050505b5050565b600073ffffffffffffffffffffffffffffffffffffffff168373ffffffffffffffffffffffffffffffffffffffff16141561269a576040517f08c379a000000000000000000000000000000000000000000000000000000000815260040161269190614c8d565b60405180910390fd5b60006126a4611b17565b905060006126b184612c8c565b905060006126be84612c8c565b90506126de83876000858560405180602001604052806000815250612d06565b600080600087815260200190815260200160002060008873ffffffffffffffffffffffffffffffffffffffff1673ffffffffffffffffffffffffffffffffffffffff16815260200190815260200160002054905084811015612775576040517f08c379a000000000000000000000000000000000000000000000000000000000815260040161276c90614d1f565b60405180910390fd5b84810360008088815260200190815260200160002060008973ffffffffffffffffffffffffffffffffffffffff1673ffffffffffffffffffffffffffffffffffffffff16815260200190815260200160002081905550600073ffffffffffffffffffffffffffffffffffffffff168773ffffffffffffffffffffffffffffffffffffffff168573ffffffffffffffffffffffffffffffffffffffff167fc3d58168c5ae7397731d063d5bbf3d657854427343f4c083240f7aacaa2d0f628989604051612842929190614a05565b60405180910390a461286884886000868660405180602001604052806000815250612e16565b50505050505050565b6128f28363a9059cbb60e01b8484604051602401612890929190614e3d565b604051602081830303815290604052907bffffffffffffffffffffffffffffffffffffffffffffffffffffffff19166020820180517bffffffffffffffffffffffffffffffffffffffffffffffffffffffff8381831617835250505050613235565b505050565b600080848361290691906147eb565b9050600081886129169190614791565b90508385101561295957600086861161292f5786612931565b855b9050808561293f91906147eb565b8861294a9190614791565b82612955919061481f565b9150505b809250505095945050505050565b6129ea846323b872dd60e01b85858560405160240161298893929190614e66565b604051602081830303815290604052907bffffffffffffffffffffffffffffffffffffffffffffffffffffffff19166020820180517bffffffffffffffffffffffffffffffffffffffffffffffffffffffff8381831617835250505050613235565b50505050565b600073ffffffffffffffffffffffffffffffffffffffff168473ffffffffffffffffffffffffffffffffffffffff161415612a60576040517f08c379a0000000000000000000000000000000000000000000000000000000008152600401612a5790614b32565b60405180910390fd5b6000612a6a611b17565b90506000612a7785612c8c565b90506000612a8485612c8c565b9050612a94838989858589612d06565b600080600088815260200190815260200160002060008a73ffffffffffffffffffffffffffffffffffffffff1673ffffffffffffffffffffffffffffffffffffffff16815260200190815260200160002054905085811015612b2b576040517f08c379a0000000000000000000000000000000000000000000000000000000008152600401612b2290614bc4565b60405180910390fd5b85810360008089815260200190815260200160002060008b73ffffffffffffffffffffffffffffffffffffffff1673ffffffffffffffffffffffffffffffffffffffff168152602001908152602001600020819055508560008089815260200190815260200160002060008a73ffffffffffffffffffffffffffffffffffffffff1673ffffffffffffffffffffffffffffffffffffffff1681526020019081526020016000206000828254612be0919061481f565b925050819055508773ffffffffffffffffffffffffffffffffffffffff168973ffffffffffffffffffffffffffffffffffffffff168573ffffffffffffffffffffffffffffffffffffffff167fc3d58168c5ae7397731d063d5bbf3d657854427343f4c083240f7aacaa2d0f628a8a604051612c5d929190614a05565b60405180910390a4612c73848a8a86868a612e16565b612c81848a8a8a8a8a612e1e565b505050505050505050565b60606000600167ffffffffffffffff811115612cab57612caa613975565b5b604051908082528060200260200182016040528015612cd95781602001602082028036833780820191505090505b5090508281600081518110612cf157612cf0614762565b5b60200260200101818152505080915050919050565b612d148686868686866132fc565b600073ffffffffffffffffffffffffffffffffffffffff168573ffffffffffffffffffffffffffffffffffffffff1614612d915760005b8351811015612d8f576000848281518110612d6957612d68614762565b5b60200260200101519050612d7d8782612453565b5080612d8890614594565b9050612d4b565b505b600073ffffffffffffffffffffffffffffffffffffffff168473ffffffffffffffffffffffffffffffffffffffff1614612e0e5760005b8351811015612e0c576000848281518110612de657612de5614762565b5b60200260200101519050612dfa8682612453565b5080612e0590614594565b9050612dc8565b505b505050505050565b505050505050565b612e3d8473ffffffffffffffffffffffffffffffffffffffff1661335a565b15612ffd578373ffffffffffffffffffffffffffffffffffffffff1663f23a6e6187878686866040518663ffffffff1660e01b8152600401612e83959493929190614ef2565b602060405180830381600087803b158015612e9d57600080fd5b505af1925050508015612ece57506040513d601f19601f82011682018060405250810190612ecb9190614f61565b60015b612f7457612eda614f9b565b806308c379a01415612f375750612eef614fbd565b80612efa5750612f39565b806040517f08c379a0000000000000000000000000000000000000000000000000000000008152600401612f2e9190613c67565b60405180910390fd5b505b6040517f08c379a0000000000000000000000000000000000000000000000000000000008152600401612f6b906150c5565b60405180910390fd5b63f23a6e6160e01b7bffffffffffffffffffffffffffffffffffffffffffffffffffffffff1916817bffffffffffffffffffffffffffffffffffffffffffffffffffffffff191614612ffb576040517f08c379a0000000000000000000000000000000000000000000000000000000008152600401612ff290615157565b60405180910390fd5b505b505050505050565b6130248473ffffffffffffffffffffffffffffffffffffffff1661335a565b156131e4578373ffffffffffffffffffffffffffffffffffffffff1663bc197c8187878686866040518663ffffffff1660e01b815260040161306a959493929190615177565b602060405180830381600087803b15801561308457600080fd5b505af19250505080156130b557506040513d601f19601f820116820180604052508101906130b29190614f61565b60015b61315b576130c1614f9b565b806308c379a0141561311e57506130d6614fbd565b806130e15750613120565b806040517f08c379a00000000000000000000000000000000000000000000000000000000081526004016131159190613c67565b60405180910390fd5b505b6040517f08c379a0000000000000000000000000000000000000000000000000000000008152600401613152906150c5565b60405180910390fd5b63bc197c8160e01b7bffffffffffffffffffffffffffffffffffffffffffffffffffffffff1916817bffffffffffffffffffffffffffffffffffffffffffffffffffffffff1916146131e2576040517f08c379a00000000000000000000000000000000000000000000000000000000081526004016131d990615157565b60405180910390fd5b505b505050505050565b6131f4610c45565b613233576040517f08c379a000000000000000000000000000000000000000000000000000000000815260040161322a9061522b565b60405180910390fd5b565b6000613297826040518060400160405280602081526020017f5361666545524332303a206c6f772d6c6576656c2063616c6c206661696c65648152508573ffffffffffffffffffffffffffffffffffffffff1661337d9092919063ffffffff16565b90506000815111156132f757808060200190518101906132b79190615260565b6132f6576040517f08c379a00000000000000000000000000000000000000000000000000000000081526004016132ed906152ff565b60405180910390fd5b5b505050565b61330a868686868686613395565b613312610c45565b15613352576040517f08c379a000000000000000000000000000000000000000000000000000000000815260040161334990615391565b60405180910390fd5b505050505050565b6000808273ffffffffffffffffffffffffffffffffffffffff163b119050919050565b606061338c8484600085613567565b90509392505050565b6133a386868686868661367b565b600073ffffffffffffffffffffffffffffffffffffffff168573ffffffffffffffffffffffffffffffffffffffff1614156134555760005b8351811015613453578281815181106133f7576133f6614762565b5b60200260200101516003600086848151811061341657613415614762565b5b60200260200101518152602001908152602001600020600082825461343b919061481f565b925050819055508061344c90614594565b90506133db565b505b600073ffffffffffffffffffffffffffffffffffffffff168473ffffffffffffffffffffffffffffffffffffffff16141561355f5760005b835181101561355d5760008482815181106134ab576134aa614762565b5b6020026020010151905060008483815181106134ca576134c9614762565b5b602002602001015190506000600360008481526020019081526020016000205490508181101561352f576040517f08c379a000000000000000000000000000000000000000000000000000000000815260040161352690615423565b60405180910390fd5b81810360036000858152602001908152602001600020819055505050508061355690614594565b905061348d565b505b505050505050565b6060824710156135ac576040517f08c379a00000000000000000000000000000000000000000000000000000000081526004016135a3906154b5565b60405180910390fd5b6135b58561335a565b6135f4576040517f08c379a00000000000000000000000000000000000000000000000000000000081526004016135eb90615521565b60405180910390fd5b6000808673ffffffffffffffffffffffffffffffffffffffff16858760405161361d919061557d565b60006040518083038185875af1925050503d806000811461365a576040519150601f19603f3d011682016040523d82523d6000602084013e61365f565b606091505b509150915061366f828286613683565b92505050949350505050565b505050505050565b60608315613693578290506136e3565b6000835111156136a65782518084602001fd5b816040517f08c379a00000000000000000000000000000000000000000000000000000000081526004016136da9190613c67565b60405180910390fd5b9392505050565b8280546136f69061460c565b90600052602060002090601f016020900481019282613718576000855561375f565b82601f1061373157805160ff191683800117855561375f565b8280016001018555821561375f579182015b8281111561375e578251825591602001919060010190613743565b5b50905061376c9190613770565b5090565b5b80821115613789576000816000905550600101613771565b5090565b6000604051905090565b600080fd5b600080fd5b600073ffffffffffffffffffffffffffffffffffffffff82169050919050565b60006137cc826137a1565b9050919050565b6137dc816137c1565b81146137e757600080fd5b50565b6000813590506137f9816137d3565b92915050565b6000819050919050565b613812816137ff565b811461381d57600080fd5b50565b60008135905061382f81613809565b92915050565b6000806040838503121561384c5761384b613797565b5b600061385a858286016137ea565b925050602061386b85828601613820565b9150509250929050565b61387e816137ff565b82525050565b60006020820190506138996000830184613875565b92915050565b60007fffffffff0000000000000000000000000000000000000000000000000000000082169050919050565b6138d48161389f565b81146138df57600080fd5b50565b6000813590506138f1816138cb565b92915050565b60006020828403121561390d5761390c613797565b5b600061391b848285016138e2565b91505092915050565b60008115159050919050565b61393981613924565b82525050565b60006020820190506139546000830184613930565b92915050565b600080fd5b600080fd5b6000601f19601f8301169050919050565b7f4e487b7100000000000000000000000000000000000000000000000000000000600052604160045260246000fd5b6139ad82613964565b810181811067ffffffffffffffff821117156139cc576139cb613975565b5b80604052505050565b60006139df61378d565b90506139eb82826139a4565b919050565b600067ffffffffffffffff821115613a0b57613a0a613975565b5b613a1482613964565b9050602081019050919050565b82818337600083830152505050565b6000613a43613a3e846139f0565b6139d5565b905082815260208101848484011115613a5f57613a5e61395f565b5b613a6a848285613a21565b509392505050565b600082601f830112613a8757613a8661395a565b5b8135613a97848260208601613a30565b91505092915050565b600067ffffffffffffffff82169050919050565b613abd81613aa0565b8114613ac857600080fd5b50565b600081359050613ada81613ab4565b92915050565b600080600080600080600080610100898b031215613b0157613b00613797565b5b6000613b0f8b828c01613820565b9850506020613b208b828c016137ea565b9750506040613b318b828c01613820565b9650506060613b428b828c01613820565b9550506080613b538b828c01613820565b94505060a089013567ffffffffffffffff811115613b7457613b7361379c565b5b613b808b828c01613a72565b93505060c0613b918b828c01613acb565b92505060e0613ba28b828c01613acb565b9150509295985092959890939650565b600060208284031215613bc857613bc7613797565b5b6000613bd684828501613820565b91505092915050565b600081519050919050565b600082825260208201905092915050565b60005b83811015613c19578082015181840152602081019050613bfe565b83811115613c28576000848401525b50505050565b6000613c3982613bdf565b613c438185613bea565b9350613c53818560208601613bfb565b613c5c81613964565b840191505092915050565b60006020820190508181036000830152613c818184613c2e565b905092915050565b600067ffffffffffffffff821115613ca457613ca3613975565b5b602082029050602081019050919050565b600080fd5b6000613ccd613cc884613c89565b6139d5565b90508083825260208201905060208402830185811115613cf057613cef613cb5565b5b835b81811015613d195780613d058882613820565b845260208401935050602081019050613cf2565b5050509392505050565b600082601f830112613d3857613d3761395a565b5b8135613d48848260208601613cba565b91505092915050565b600067ffffffffffffffff821115613d6c57613d6b613975565b5b613d7582613964565b9050602081019050919050565b6000613d95613d9084613d51565b6139d5565b905082815260208101848484011115613db157613db061395f565b5b613dbc848285613a21565b509392505050565b600082601f830112613dd957613dd861395a565b5b8135613de9848260208601613d82565b91505092915050565b600080600080600060a08688031215613e0e57613e0d613797565b5b6000613e1c888289016137ea565b9550506020613e2d888289016137ea565b945050604086013567ffffffffffffffff811115613e4e57613e4d61379c565b5b613e5a88828901613d23565b935050606086013567ffffffffffffffff811115613e7b57613e7a61379c565b5b613e8788828901613d23565b925050608086013567ffffffffffffffff811115613ea857613ea761379c565b5b613eb488828901613dc4565b9150509295509295909350565b600067ffffffffffffffff821115613edc57613edb613975565b5b602082029050602081019050919050565b6000613f00613efb84613ec1565b6139d5565b90508083825260208201905060208402830185811115613f2357613f22613cb5565b5b835b81811015613f4c5780613f3888826137ea565b845260208401935050602081019050613f25565b5050509392505050565b600082601f830112613f6b57613f6a61395a565b5b8135613f7b848260208601613eed565b91505092915050565b60008060408385031215613f9b57613f9a613797565b5b600083013567ffffffffffffffff811115613fb957613fb861379c565b5b613fc585828601613f56565b925050602083013567ffffffffffffffff811115613fe657613fe561379c565b5b613ff285828601613d23565b9150509250929050565b600081519050919050565b600082825260208201905092915050565b6000819050602082019050919050565b614031816137ff565b82525050565b60006140438383614028565b60208301905092915050565b6000602082019050919050565b600061406782613ffc565b6140718185614007565b935061407c83614018565b8060005b838110156140ad5781516140948882614037565b975061409f8361404f565b925050600181019050614080565b5085935050505092915050565b600060208201905081810360008301526140d4818461405c565b905092915050565b6000806000606084860312156140f5576140f4613797565b5b6000614103868287016137ea565b935050602084013567ffffffffffffffff8111156141245761412361379c565b5b61413086828701613d23565b925050604084013567ffffffffffffffff8111156141515761415061379c565b5b61415d86828701613d23565b9150509250925092565b6000806040838503121561417e5761417d613797565b5b600061418c85828601613820565b925050602061419d858286016137ea565b9150509250929050565b6141b0816137c1565b82525050565b6141bf81613aa0565b82525050565b6000610120820190506141db600083018c6141a7565b6141e8602083018b613875565b6141f5604083018a613875565b6142026060830189613875565b81810360808301526142148188613c2e565b905061422360a0830187613875565b61423060c08301866141b6565b61423d60e08301856141b6565b61424b6101008301846141b6565b9a9950505050505050505050565b600080604083850312156142705761426f613797565b5b600061427e85828601613820565b925050602083013567ffffffffffffffff81111561429f5761429e61379c565b5b6142ab85828601613a72565b9150509250929050565b60006020820190506142ca60008301846141a7565b92915050565b6142d981613924565b81146142e457600080fd5b50565b6000813590506142f6816142d0565b92915050565b6000806040838503121561431357614312613797565b5b6000614321858286016137ea565b9250506020614332858286016142e7565b9150509250929050565b6000806040838503121561435357614352613797565b5b600061436185828601613820565b925050602061437285828601613820565b9150509250929050565b6000806040838503121561439357614392613797565b5b60006143a1858286016137ea565b92505060206143b2858286016137ea565b9150509250929050565b600080600080600060a086880312156143d8576143d7613797565b5b60006143e6888289016137ea565b95505060206143f7888289016137ea565b945050604061440888828901613820565b935050606061441988828901613820565b925050608086013567ffffffffffffffff81111561443a5761443961379c565b5b61444688828901613dc4565b9150509295509295909350565b60006020828403121561446957614468613797565b5b6000614477848285016137ea565b91505092915050565b60008060006060848603121561449957614498613797565b5b60006144a7868287016137ea565b93505060206144b886828701613820565b92505060406144c986828701613820565b9150509250925092565b7f455243313135353a2061646472657373207a65726f206973206e6f742061207660008201527f616c6964206f776e657200000000000000000000000000000000000000000000602082015250565b600061452f602a83613bea565b915061453a826144d3565b604082019050919050565b6000602082019050818103600083015261455e81614522565b9050919050565b7f4e487b7100000000000000000000000000000000000000000000000000000000600052601160045260246000fd5b600061459f826137ff565b91507fffffffffffffffffffffffffffffffffffffffffffffffffffffffffffffffff8214156145d2576145d1614565565b5b600182019050919050565b7f4e487b7100000000000000000000000000000000000000000000000000000000600052602260045260246000fd5b6000600282049050600182168061462457607f821691505b60208210811415614638576146376145dd565b5b50919050565b7f455243313135353a2063616c6c6572206973206e6f7420746f6b656e206f776e60008201527f6572206e6f7220617070726f7665640000000000000000000000000000000000602082015250565b600061469a602f83613bea565b91506146a58261463e565b604082019050919050565b600060208201905081810360008301526146c98161468d565b9050919050565b7f455243313135353a206163636f756e747320616e6420696473206c656e67746860008201527f206d69736d617463680000000000000000000000000000000000000000000000602082015250565b600061472c602983613bea565b9150614737826146d0565b604082019050919050565b6000602082019050818103600083015261475b8161471f565b9050919050565b7f4e487b7100000000000000000000000000000000000000000000000000000000600052603260045260246000fd5b600061479c826137ff565b91506147a7836137ff565b9250817fffffffffffffffffffffffffffffffffffffffffffffffffffffffffffffffff04831182151516156147e0576147df614565565b5b828202905092915050565b60006147f6826137ff565b9150614801836137ff565b92508282101561481457614813614565565b5b828203905092915050565b600061482a826137ff565b9150614835836137ff565b9250827fffffffffffffffffffffffffffffffffffffffffffffffffffffffffffffffff0382111561486a57614869614565565b5b828201905092915050565b7f4f776e61626c653a206e6577206f776e657220697320746865207a65726f206160008201527f6464726573730000000000000000000000000000000000000000000000000000602082015250565b60006148d1602683613bea565b91506148dc82614875565b604082019050919050565b60006020820190508181036000830152614900816148c4565b9050919050565b7f4f776e61626c653a2063616c6c6572206973206e6f7420746865206f776e6572600082015250565b600061493d602083613bea565b915061494882614907565b602082019050919050565b6000602082019050818103600083015261496c81614930565b9050919050565b7f455243313135353a206d696e7420746f20746865207a65726f2061646472657360008201527f7300000000000000000000000000000000000000000000000000000000000000602082015250565b60006149cf602183613bea565b91506149da82614973565b604082019050919050565b600060208201905081810360008301526149fe816149c2565b9050919050565b6000604082019050614a1a6000830185613875565b614a276020830184613875565b9392505050565b7f455243313135353a2069647320616e6420616d6f756e7473206c656e6774682060008201527f6d69736d61746368000000000000000000000000000000000000000000000000602082015250565b6000614a8a602883613bea565b9150614a9582614a2e565b604082019050919050565b60006020820190508181036000830152614ab981614a7d565b9050919050565b7f455243313135353a207472616e7366657220746f20746865207a65726f20616460008201527f6472657373000000000000000000000000000000000000000000000000000000602082015250565b6000614b1c602583613bea565b9150614b2782614ac0565b604082019050919050565b60006020820190508181036000830152614b4b81614b0f565b9050919050565b7f455243313135353a20696e73756666696369656e742062616c616e636520666f60008201527f72207472616e7366657200000000000000000000000000000000000000000000602082015250565b6000614bae602a83613bea565b9150614bb982614b52565b604082019050919050565b60006020820190508181036000830152614bdd81614ba1565b9050919050565b60006040820190508181036000830152614bfe818561405c565b90508181036020830152614c12818461405c565b90509392505050565b7f455243313135353a206275726e2066726f6d20746865207a65726f206164647260008201527f6573730000000000000000000000000000000000000000000000000000000000602082015250565b6000614c77602383613bea565b9150614c8282614c1b565b604082019050919050565b60006020820190508181036000830152614ca681614c6a565b9050919050565b7f455243313135353a206275726e20616d6f756e7420657863656564732062616c60008201527f616e636500000000000000000000000000000000000000000000000000000000602082015250565b6000614d09602483613bea565b9150614d1482614cad565b604082019050919050565b60006020820190508181036000830152614d3881614cfc565b9050919050565b7f455243313135353a2073657474696e6720617070726f76616c2073746174757360008201527f20666f722073656c660000000000000000000000000000000000000000000000602082015250565b6000614d9b602983613bea565b9150614da682614d3f565b604082019050919050565b60006020820190508181036000830152614dca81614d8e565b9050919050565b7f5061757361626c653a2070617573656400000000000000000000000000000000600082015250565b6000614e07601083613bea565b9150614e1282614dd1565b602082019050919050565b60006020820190508181036000830152614e3681614dfa565b9050919050565b6000604082019050614e5260008301856141a7565b614e5f6020830184613875565b9392505050565b6000606082019050614e7b60008301866141a7565b614e8860208301856141a7565b614e956040830184613875565b949350505050565b600081519050919050565b600082825260208201905092915050565b6000614ec482614e9d565b614ece8185614ea8565b9350614ede818560208601613bfb565b614ee781613964565b840191505092915050565b600060a082019050614f0760008301886141a7565b614f1460208301876141a7565b614f216040830186613875565b614f2e6060830185613875565b8181036080830152614f408184614eb9565b90509695505050505050565b600081519050614f5b816138cb565b92915050565b600060208284031215614f7757614f76613797565b5b6000614f8584828501614f4c565b91505092915050565b60008160e01c9050919050565b600060033d1115614fba5760046000803e614fb7600051614f8e565b90505b90565b600060443d1015614fcd57615050565b614fd561378d565b60043d036004823e80513d602482011167ffffffffffffffff82111715614ffd575050615050565b808201805167ffffffffffffffff81111561501b5750505050615050565b80602083010160043d038501811115615038575050505050615050565b615047826020018501866139a4565b82955050505050505b90565b7f455243313135353a207472616e7366657220746f206e6f6e204552433131353560008201527f526563656976657220696d706c656d656e746572000000000000000000000000602082015250565b60006150af603483613bea565b91506150ba82615053565b604082019050919050565b600060208201905081810360008301526150de816150a2565b9050919050565b7f455243313135353a204552433131353552656365697665722072656a6563746560008201527f6420746f6b656e73000000000000000000000000000000000000000000000000602082015250565b6000615141602883613bea565b915061514c826150e5565b604082019050919050565b6000602082019050818103600083015261517081615134565b9050919050565b600060a08201905061518c60008301886141a7565b61519960208301876141a7565b81810360408301526151ab818661405c565b905081810360608301526151bf818561405c565b905081810360808301526151d38184614eb9565b90509695505050505050565b7f5061757361626c653a206e6f7420706175736564000000000000000000000000600082015250565b6000615215601483613bea565b9150615220826151df565b602082019050919050565b6000602082019050818103600083015261524481615208565b9050919050565b60008151905061525a816142d0565b92915050565b60006020828403121561527657615275613797565b5b60006152848482850161524b565b91505092915050565b7f5361666545524332303a204552433230206f7065726174696f6e20646964206e60008201527f6f74207375636365656400000000000000000000000000000000000000000000602082015250565b60006152e9602a83613bea565b91506152f48261528d565b604082019050919050565b60006020820190508181036000830152615318816152dc565b9050919050565b7f455243313135355061757361626c653a20746f6b656e207472616e736665722060008201527f7768696c65207061757365640000000000000000000000000000000000000000602082015250565b600061537b602c83613bea565b91506153868261531f565b604082019050919050565b600060208201905081810360008301526153aa8161536e565b9050919050565b7f455243313135353a206275726e20616d6f756e74206578636565647320746f7460008201527f616c537570706c79000000000000000000000000000000000000000000000000602082015250565b600061540d602883613bea565b9150615418826153b1565b604082019050919050565b6000602082019050818103600083015261543c81615400565b9050919050565b7f416464726573733a20696e73756666696369656e742062616c616e636520666f60008201527f722063616c6c0000000000000000000000000000000000000000000000000000602082015250565b600061549f602683613bea565b91506154aa82615443565b604082019050919050565b600060208201905081810360008301526154ce81615492565b9050919050565b7f416464726573733a2063616c6c20746f206e6f6e2d636f6e7472616374000000600082015250565b600061550b601d83613bea565b9150615516826154d5565b602082019050919050565b6000602082019050818103600083015261553a816154fe565b9050919050565b600081905092915050565b600061555782614e9d565b6155618185615541565b9350615571818560208601613bfb565b80840191505092915050565b6000615589828461554c565b91508190509291505056fea2646970667358221220764eb1462793898e005120dd5fc29c2caabc3ed1dd8b3cf091ffdb91bcaab33364736f6c63430008090033",
  "devdoc": {
    "kind": "dev",
    "methods": {
      "balanceOf(address,uint256)": {
        "details": "See {IERC1155-balanceOf}. Requirements: - `account` cannot be the zero address."
      },
      "balanceOfBatch(address[],uint256[])": {
        "details": "See {IERC1155-balanceOfBatch}. Requirements: - `accounts` and `ids` must have the same length."
      },
      "exists(uint256)": {
        "details": "Indicates whether any token exist with a given id, or not."
      },
      "isApprovedForAll(address,address)": {
        "details": "See {IERC1155-isApprovedForAll}."
      },
      "owner()": {
        "details": "Returns the address of the current owner."
      },
      "paused()": {
        "details": "Returns true if the contract is paused, and false otherwise."
      },
      "renounceOwnership()": {
        "details": "Leaves the contract without owner. It will not be possible to call `onlyOwner` functions anymore. Can only be called by the current owner. NOTE: Renouncing ownership will leave the contract without an owner, thereby removing any functionality that is only available to the owner."
      },
      "repay(uint256,uint256)": {
        "details": "It is not able to repay after fully repaying the loan. The caller need to approve the repaying token. There are 3 cases. 1. block.timestamp < startTimestamp: repay only the principal. 2. startTs <= block.timestamp <= endTs: repay principal + interest 3. endTs < block.timestamp: repay principal + interest + overdue interest",
        "params": {
          "_amount": "amount of token to repay. type(uint256).max means to repay all.",
          "_id": "token id"
        }
      },
      "safeBatchTransferFrom(address,address,uint256[],uint256[],bytes)": {
        "details": "See {IERC1155-safeBatchTransferFrom}."
      },
      "safeTransferFrom(address,address,uint256,uint256,bytes)": {
        "details": "See {IERC1155-safeTransferFrom}."
      },
      "setApprovalForAll(address,bool)": {
        "details": "See {IERC1155-setApprovalForAll}."
      },
      "supportsInterface(bytes4)": {
        "details": "See {IERC165-supportsInterface}."
      },
      "totalSupply(uint256)": {
        "details": "Total amount of tokens in with a given id."
      },
      "transferOwnership(address)": {
        "details": "Transfers ownership of the contract to a new account (`newOwner`). Can only be called by the current owner."
      }
    },
    "version": 1
  },
  "userdoc": {
    "kind": "user",
    "methods": {
      "claim(address,uint256)": {
        "notice": "Nft holders claim their interest. NOTE: Users with zero balance are also able to claim."
      },
      "getUnitDebt(uint256)": {
        "notice": "The debt does not increase after repaid."
      }
    },
    "notice": "This repays the interest monthly. At the maturity date, lenders receive the principal and one-month interest.",
    "version": 1
  },
  "storageLayout": {
    "storage": [
      {
        "astId": 246,
        "contract": "contracts/CouponBond.sol:CouponBond",
        "label": "_balances",
        "offset": 0,
        "slot": "0",
        "type": "t_mapping(t_uint256,t_mapping(t_address,t_uint256))"
      },
      {
        "astId": 252,
        "contract": "contracts/CouponBond.sol:CouponBond",
        "label": "_operatorApprovals",
        "offset": 0,
        "slot": "1",
        "type": "t_mapping(t_address,t_mapping(t_address,t_bool))"
      },
      {
        "astId": 254,
        "contract": "contracts/CouponBond.sol:CouponBond",
        "label": "_uri",
        "offset": 0,
        "slot": "2",
        "type": "t_string_storage"
      },
      {
        "astId": 1733,
        "contract": "contracts/CouponBond.sol:CouponBond",
        "label": "_totalSupply",
        "offset": 0,
        "slot": "3",
        "type": "t_mapping(t_uint256,t_uint256)"
      },
      {
        "astId": 130,
        "contract": "contracts/CouponBond.sol:CouponBond",
        "label": "_paused",
        "offset": 0,
        "slot": "4",
        "type": "t_bool"
      },
      {
        "astId": 7,
        "contract": "contracts/CouponBond.sol:CouponBond",
        "label": "_owner",
        "offset": 1,
        "slot": "4",
        "type": "t_address"
      },
      {
        "astId": 2712,
        "contract": "contracts/CouponBond.sol:CouponBond",
        "label": "products",
        "offset": 0,
        "slot": "5",
        "type": "t_mapping(t_uint256,t_struct(Product)2707_storage)"
      },
      {
        "astId": 2714,
        "contract": "contracts/CouponBond.sol:CouponBond",
        "label": "numProducts",
        "offset": 0,
        "slot": "6",
        "type": "t_uint256"
      },
      {
        "astId": 2720,
        "contract": "contracts/CouponBond.sol:CouponBond",
        "label": "lastUpdatedTs",
        "offset": 0,
        "slot": "7",
        "type": "t_mapping(t_uint256,t_mapping(t_address,t_uint256))"
      },
      {
        "astId": 2726,
        "contract": "contracts/CouponBond.sol:CouponBond",
        "label": "unclaimedInterest",
        "offset": 0,
        "slot": "8",
        "type": "t_mapping(t_uint256,t_mapping(t_address,t_uint256))"
      }
    ],
    "types": {
      "t_address": {
        "encoding": "inplace",
        "label": "address",
        "numberOfBytes": "20"
      },
      "t_bool": {
        "encoding": "inplace",
        "label": "bool",
        "numberOfBytes": "1"
      },
      "t_mapping(t_address,t_bool)": {
        "encoding": "mapping",
        "key": "t_address",
        "label": "mapping(address => bool)",
        "numberOfBytes": "32",
        "value": "t_bool"
      },
      "t_mapping(t_address,t_mapping(t_address,t_bool))": {
        "encoding": "mapping",
        "key": "t_address",
        "label": "mapping(address => mapping(address => bool))",
        "numberOfBytes": "32",
        "value": "t_mapping(t_address,t_bool)"
      },
      "t_mapping(t_address,t_uint256)": {
        "encoding": "mapping",
        "key": "t_address",
        "label": "mapping(address => uint256)",
        "numberOfBytes": "32",
        "value": "t_uint256"
      },
      "t_mapping(t_uint256,t_mapping(t_address,t_uint256))": {
        "encoding": "mapping",
        "key": "t_uint256",
        "label": "mapping(uint256 => mapping(address => uint256))",
        "numberOfBytes": "32",
        "value": "t_mapping(t_address,t_uint256)"
      },
      "t_mapping(t_uint256,t_struct(Product)2707_storage)": {
        "encoding": "mapping",
        "key": "t_uint256",
        "label": "mapping(uint256 => struct CouponBond.Product)",
        "numberOfBytes": "32",
        "value": "t_struct(Product)2707_storage"
      },
      "t_mapping(t_uint256,t_uint256)": {
        "encoding": "mapping",
        "key": "t_uint256",
        "label": "mapping(uint256 => uint256)",
        "numberOfBytes": "32",
        "value": "t_uint256"
      },
      "t_string_storage": {
        "encoding": "bytes",
        "label": "string",
        "numberOfBytes": "32"
      },
      "t_struct(Product)2707_storage": {
        "encoding": "inplace",
        "label": "struct CouponBond.Product",
        "members": [
          {
            "astId": 2690,
            "contract": "contracts/CouponBond.sol:CouponBond",
            "label": "token",
            "offset": 0,
            "slot": "0",
            "type": "t_address"
          },
          {
            "astId": 2692,
            "contract": "contracts/CouponBond.sol:CouponBond",
            "label": "value",
            "offset": 0,
            "slot": "1",
            "type": "t_uint256"
          },
          {
            "astId": 2694,
            "contract": "contracts/CouponBond.sol:CouponBond",
            "label": "interestPerSecond",
            "offset": 0,
            "slot": "2",
            "type": "t_uint256"
          },
          {
            "astId": 2696,
            "contract": "contracts/CouponBond.sol:CouponBond",
            "label": "overdueInterestPerSecond",
            "offset": 0,
            "slot": "3",
            "type": "t_uint256"
          },
          {
            "astId": 2698,
            "contract": "contracts/CouponBond.sol:CouponBond",
            "label": "uri",
            "offset": 0,
            "slot": "4",
            "type": "t_string_storage"
          },
          {
            "astId": 2700,
            "contract": "contracts/CouponBond.sol:CouponBond",
            "label": "tokenBalance",
            "offset": 0,
            "slot": "5",
            "type": "t_uint256"
          },
          {
            "astId": 2702,
            "contract": "contracts/CouponBond.sol:CouponBond",
            "label": "startTs",
            "offset": 0,
            "slot": "6",
            "type": "t_uint64"
          },
          {
            "astId": 2704,
            "contract": "contracts/CouponBond.sol:CouponBond",
            "label": "endTs",
            "offset": 8,
            "slot": "6",
            "type": "t_uint64"
          },
          {
            "astId": 2706,
            "contract": "contracts/CouponBond.sol:CouponBond",
            "label": "repaidTs",
            "offset": 16,
            "slot": "6",
            "type": "t_uint64"
          }
        ],
        "numberOfBytes": "224"
      },
      "t_uint256": {
        "encoding": "inplace",
        "label": "uint256",
        "numberOfBytes": "32"
      },
      "t_uint64": {
        "encoding": "inplace",
        "label": "uint64",
        "numberOfBytes": "8"
      }
    }
  }
}