{
  "address": "0xBb8A5ece08499c5ECF06d1A394260C12fd09FB83",
  "abi": [
    {
      "inputs": [],
      "stateMutability": "nonpayable",
      "type": "constructor"
    },
    {
      "inputs": [
        {
          "internalType": "address",
          "name": "_from",
          "type": "address"
        },
        {
          "internalType": "uint256",
          "name": "_id",
          "type": "uint256"
        }
      ],
      "name": "EarlyClaim",
      "type": "error"
    },
    {
      "inputs": [],
      "name": "EarlyWithdraw",
      "type": "error"
    },
    {
      "inputs": [],
      "name": "InvalidFinalValue",
      "type": "error"
    },
    {
      "inputs": [
        {
          "internalType": "uint256",
          "name": "_id",
          "type": "uint256"
        }
      ],
      "name": "NotRepaid",
      "type": "error"
    },
    {
      "inputs": [],
      "name": "ZeroBalanceClaim",
      "type": "error"
    },
    {
      "inputs": [
        {
          "internalType": "uint256",
          "name": "_id",
          "type": "uint256"
        }
      ],
      "name": "ZeroBalanceWithdraw",
      "type": "error"
    },
    {
      "anonymous": false,
      "inputs": [
        {
          "indexed": true,
          "internalType": "address",
          "name": "account",
          "type": "address"
        },
        {
          "indexed": true,
          "internalType": "address",
          "name": "operator",
          "type": "address"
        },
        {
          "indexed": false,
          "internalType": "bool",
          "name": "approved",
          "type": "bool"
        }
      ],
      "name": "ApprovalForAll",
      "type": "event"
    },
    {
      "anonymous": false,
      "inputs": [
        {
          "indexed": true,
          "internalType": "address",
          "name": "previousOwner",
          "type": "address"
        },
        {
          "indexed": true,
          "internalType": "address",
          "name": "newOwner",
          "type": "address"
        }
      ],
      "name": "OwnershipTransferred",
      "type": "event"
    },
    {
      "anonymous": false,
      "inputs": [
        {
          "indexed": false,
          "internalType": "address",
          "name": "account",
          "type": "address"
        }
      ],
      "name": "Paused",
      "type": "event"
    },
    {
      "anonymous": false,
      "inputs": [
        {
          "indexed": true,
          "internalType": "address",
          "name": "operator",
          "type": "address"
        },
        {
          "indexed": true,
          "internalType": "address",
          "name": "from",
          "type": "address"
        },
        {
          "indexed": true,
          "internalType": "address",
          "name": "to",
          "type": "address"
        },
        {
          "indexed": false,
          "internalType": "uint256[]",
          "name": "ids",
          "type": "uint256[]"
        },
        {
          "indexed": false,
          "internalType": "uint256[]",
          "name": "values",
          "type": "uint256[]"
        }
      ],
      "name": "TransferBatch",
      "type": "event"
    },
    {
      "anonymous": false,
      "inputs": [
        {
          "indexed": true,
          "internalType": "address",
          "name": "operator",
          "type": "address"
        },
        {
          "indexed": true,
          "internalType": "address",
          "name": "from",
          "type": "address"
        },
        {
          "indexed": true,
          "internalType": "address",
          "name": "to",
          "type": "address"
        },
        {
          "indexed": false,
          "internalType": "uint256",
          "name": "id",
          "type": "uint256"
        },
        {
          "indexed": false,
          "internalType": "uint256",
          "name": "value",
          "type": "uint256"
        }
      ],
      "name": "TransferSingle",
      "type": "event"
    },
    {
      "anonymous": false,
      "inputs": [
        {
          "indexed": false,
          "internalType": "string",
          "name": "value",
          "type": "string"
        },
        {
          "indexed": true,
          "internalType": "uint256",
          "name": "id",
          "type": "uint256"
        }
      ],
      "name": "URI",
      "type": "event"
    },
    {
      "anonymous": false,
      "inputs": [
        {
          "indexed": false,
          "internalType": "address",
          "name": "account",
          "type": "address"
        }
      ],
      "name": "Unpaused",
      "type": "event"
    },
    {
      "inputs": [
        {
          "internalType": "uint256",
          "name": "_initialSupply",
          "type": "uint256"
        },
        {
          "internalType": "address",
          "name": "_token",
          "type": "address"
        },
        {
          "internalType": "uint256",
          "name": "_value",
          "type": "uint256"
        },
        {
          "internalType": "string",
          "name": "_uri",
          "type": "string"
        },
        {
          "internalType": "uint64",
          "name": "_startTs",
          "type": "uint64"
        },
        {
          "internalType": "uint64",
          "name": "_endTs",
          "type": "uint64"
        }
      ],
      "name": "addProduct",
      "outputs": [],
      "stateMutability": "nonpayable",
      "type": "function"
    },
    {
      "inputs": [
        {
          "internalType": "address",
          "name": "account",
          "type": "address"
        },
        {
          "internalType": "uint256",
          "name": "id",
          "type": "uint256"
        }
      ],
      "name": "balanceOf",
      "outputs": [
        {
          "internalType": "uint256",
          "name": "",
          "type": "uint256"
        }
      ],
      "stateMutability": "view",
      "type": "function"
    },
    {
      "inputs": [
        {
          "internalType": "address[]",
          "name": "accounts",
          "type": "address[]"
        },
        {
          "internalType": "uint256[]",
          "name": "ids",
          "type": "uint256[]"
        }
      ],
      "name": "balanceOfBatch",
      "outputs": [
        {
          "internalType": "uint256[]",
          "name": "",
          "type": "uint256[]"
        }
      ],
      "stateMutability": "view",
      "type": "function"
    },
    {
      "inputs": [
        {
          "internalType": "address",
          "name": "account",
          "type": "address"
        },
        {
          "internalType": "uint256",
          "name": "id",
          "type": "uint256"
        },
        {
          "internalType": "uint256",
          "name": "value",
          "type": "uint256"
        }
      ],
      "name": "burn",
      "outputs": [],
      "stateMutability": "nonpayable",
      "type": "function"
    },
    {
      "inputs": [
        {
          "internalType": "address",
          "name": "account",
          "type": "address"
        },
        {
          "internalType": "uint256[]",
          "name": "ids",
          "type": "uint256[]"
        },
        {
          "internalType": "uint256[]",
          "name": "values",
          "type": "uint256[]"
        }
      ],
      "name": "burnBatch",
      "outputs": [],
      "stateMutability": "nonpayable",
      "type": "function"
    },
    {
      "inputs": [
        {
          "internalType": "address",
          "name": "_to",
          "type": "address"
        },
        {
          "internalType": "uint256",
          "name": "_id",
          "type": "uint256"
        }
      ],
      "name": "claim",
      "outputs": [],
      "stateMutability": "nonpayable",
      "type": "function"
    },
    {
      "inputs": [
        {
          "internalType": "uint256",
          "name": "id",
          "type": "uint256"
        }
      ],
      "name": "exists",
      "outputs": [
        {
          "internalType": "bool",
          "name": "",
          "type": "bool"
        }
      ],
      "stateMutability": "view",
      "type": "function"
    },
    {
      "inputs": [
        {
          "internalType": "address",
          "name": "account",
          "type": "address"
        },
        {
          "internalType": "address",
          "name": "operator",
          "type": "address"
        }
      ],
      "name": "isApprovedForAll",
      "outputs": [
        {
          "internalType": "bool",
          "name": "",
          "type": "bool"
        }
      ],
      "stateMutability": "view",
      "type": "function"
    },
    {
      "inputs": [],
      "name": "numProducts",
      "outputs": [
        {
          "internalType": "uint256",
          "name": "",
          "type": "uint256"
        }
      ],
      "stateMutability": "view",
      "type": "function"
    },
    {
      "inputs": [],
      "name": "owner",
      "outputs": [
        {
          "internalType": "address",
          "name": "",
          "type": "address"
        }
      ],
      "stateMutability": "view",
      "type": "function"
    },
    {
      "inputs": [],
      "name": "pause",
      "outputs": [],
      "stateMutability": "nonpayable",
      "type": "function"
    },
    {
      "inputs": [],
      "name": "paused",
      "outputs": [
        {
          "internalType": "bool",
          "name": "",
          "type": "bool"
        }
      ],
      "stateMutability": "view",
      "type": "function"
    },
    {
      "inputs": [
        {
          "internalType": "uint256",
          "name": "",
          "type": "uint256"
        }
      ],
      "name": "products",
      "outputs": [
        {
          "internalType": "address",
          "name": "token",
          "type": "address"
        },
        {
          "internalType": "uint256",
          "name": "value",
          "type": "uint256"
        },
        {
          "internalType": "uint256",
          "name": "finalValue",
          "type": "uint256"
        },
        {
          "internalType": "string",
          "name": "uri",
          "type": "string"
        },
        {
          "internalType": "uint64",
          "name": "startTs",
          "type": "uint64"
        },
        {
          "internalType": "uint64",
          "name": "endTs",
          "type": "uint64"
        }
      ],
      "stateMutability": "view",
      "type": "function"
    },
    {
      "inputs": [],
      "name": "renounceOwnership",
      "outputs": [],
      "stateMutability": "nonpayable",
      "type": "function"
    },
    {
      "inputs": [
        {
          "internalType": "uint256",
          "name": "_id",
          "type": "uint256"
        },
        {
          "internalType": "uint256",
          "name": "_finalValue",
          "type": "uint256"
        },
        {
          "internalType": "uint256",
          "name": "_totalFinalValue",
          "type": "uint256"
        }
      ],
      "name": "repay",
      "outputs": [],
      "stateMutability": "nonpayable",
      "type": "function"
    },
    {
      "inputs": [
        {
          "internalType": "address",
          "name": "from",
          "type": "address"
        },
        {
          "internalType": "address",
          "name": "to",
          "type": "address"
        },
        {
          "internalType": "uint256[]",
          "name": "ids",
          "type": "uint256[]"
        },
        {
          "internalType": "uint256[]",
          "name": "amounts",
          "type": "uint256[]"
        },
        {
          "internalType": "bytes",
          "name": "data",
          "type": "bytes"
        }
      ],
      "name": "safeBatchTransferFrom",
      "outputs": [],
      "stateMutability": "nonpayable",
      "type": "function"
    },
    {
      "inputs": [
        {
          "internalType": "address",
          "name": "from",
          "type": "address"
        },
        {
          "internalType": "address",
          "name": "to",
          "type": "address"
        },
        {
          "internalType": "uint256",
          "name": "id",
          "type": "uint256"
        },
        {
          "internalType": "uint256",
          "name": "amount",
          "type": "uint256"
        },
        {
          "internalType": "bytes",
          "name": "data",
          "type": "bytes"
        }
      ],
      "name": "safeTransferFrom",
      "outputs": [],
      "stateMutability": "nonpayable",
      "type": "function"
    },
    {
      "inputs": [
        {
          "internalType": "address",
          "name": "operator",
          "type": "address"
        },
        {
          "internalType": "bool",
          "name": "approved",
          "type": "bool"
        }
      ],
      "name": "setApprovalForAll",
      "outputs": [],
      "stateMutability": "nonpayable",
      "type": "function"
    },
    {
      "inputs": [
        {
          "internalType": "uint256",
          "name": "_id",
          "type": "uint256"
        },
        {
          "internalType": "string",
          "name": "_uri",
          "type": "string"
        }
      ],
      "name": "setURI",
      "outputs": [],
      "stateMutability": "nonpayable",
      "type": "function"
    },
    {
      "inputs": [
        {
          "internalType": "bytes4",
          "name": "interfaceId",
          "type": "bytes4"
        }
      ],
      "name": "supportsInterface",
      "outputs": [
        {
          "internalType": "bool",
          "name": "",
          "type": "bool"
        }
      ],
      "stateMutability": "view",
      "type": "function"
    },
    {
      "inputs": [
        {
          "internalType": "uint256",
          "name": "id",
          "type": "uint256"
        }
      ],
      "name": "totalSupply",
      "outputs": [
        {
          "internalType": "uint256",
          "name": "",
          "type": "uint256"
        }
      ],
      "stateMutability": "view",
      "type": "function"
    },
    {
      "inputs": [
        {
          "internalType": "address",
          "name": "newOwner",
          "type": "address"
        }
      ],
      "name": "transferOwnership",
      "outputs": [],
      "stateMutability": "nonpayable",
      "type": "function"
    },
    {
      "inputs": [],
      "name": "unpause",
      "outputs": [],
      "stateMutability": "nonpayable",
      "type": "function"
    },
    {
      "inputs": [
        {
          "internalType": "uint256",
          "name": "_id",
          "type": "uint256"
        }
      ],
      "name": "uri",
      "outputs": [
        {
          "internalType": "string",
          "name": "",
          "type": "string"
        }
      ],
      "stateMutability": "view",
      "type": "function"
    },
    {
      "inputs": [
        {
          "internalType": "uint256",
          "name": "_id",
          "type": "uint256"
        }
      ],
      "name": "withdrawResidue",
      "outputs": [],
      "stateMutability": "nonpayable",
      "type": "function"
    }
  ],
  "transactionHash": "0xb7c99548ebc17d938ab8c2b4e93225541754dc0c8f8d17be4b7bb23b9618e932",
  "args": [],
  "numDeployments": 1,
  "solcInputHash": "b572382b182d6cb56d710bd84c51361e",
  "bytecode": "0x60806040523480156200001157600080fd5b506040518060200160405280600081525062000033816200007560201b60201c565b5062000054620000486200009160201b60201c565b6200009960201b60201c565b6000600460146101000a81548160ff02191690831515021790555062000274565b80600290805190602001906200008d9291906200015f565b5050565b600033905090565b6000600460009054906101000a900473ffffffffffffffffffffffffffffffffffffffff16905081600460006101000a81548173ffffffffffffffffffffffffffffffffffffffff021916908373ffffffffffffffffffffffffffffffffffffffff1602179055508173ffffffffffffffffffffffffffffffffffffffff168173ffffffffffffffffffffffffffffffffffffffff167f8be0079c531659141344cd1fd0a4f28419497f9722a3daafe3b4186f6b6457e060405160405180910390a35050565b8280546200016d906200023e565b90600052602060002090601f016020900481019282620001915760008555620001dd565b82601f10620001ac57805160ff1916838001178555620001dd565b82800160010185558215620001dd579182015b82811115620001dc578251825591602001919060010190620001bf565b5b509050620001ec9190620001f0565b5090565b5b808211156200020b576000816000905550600101620001f1565b5090565b7f4e487b7100000000000000000000000000000000000000000000000000000000600052602260045260246000fd5b600060028204905060018216806200025757607f821691505b602082108114156200026e576200026d6200020f565b5b50919050565b614c0580620002846000396000f3fe608060405234801561001057600080fd5b50600436106101725760003560e01c80637acc0b20116100de578063aad3ec9611610097578063e985e9c511610071578063e985e9c514610424578063f242432a14610454578063f2fde38b14610470578063f5298aca1461048c57610172565b8063aad3ec96146103ba578063ac964f21146103d6578063bd85b039146103f457610172565b80637acc0b20146103095780638456cb591461033e578063862440e214610348578063895a7485146103645780638da5cb5b14610380578063a22cb4651461039e57610172565b80633f4ba83a116101305780633f4ba83a1461025b5780634e1273f4146102655780634f558e79146102955780635c975abb146102c55780636b20c454146102e3578063715018a6146102ff57610172565b8062fdd58e1461017757806301ffc9a7146101a75780630e89341c146101d75780631dad542d146102075780632e045a64146102235780632eb2c2d61461023f575b600080fd5b610191600480360381019061018c9190612f7a565b6104a8565b60405161019e9190612fc9565b60405180910390f35b6101c160048036038101906101bc919061303c565b610571565b6040516101ce9190613084565b60405180910390f35b6101f160048036038101906101ec919061309f565b610653565b6040516101fe9190613165565b60405180910390f35b610221600480360381019061021c919061309f565b6106fb565b005b61023d600480360381019061023891906132fc565b610891565b005b6102596004803603810190610254919061350e565b610a29565b005b610263610aca565b005b61027f600480360381019061027a91906136a0565b610adc565b60405161028c91906137d6565b60405180910390f35b6102af60048036038101906102aa919061309f565b610bf5565b6040516102bc9190613084565b60405180910390f35b6102cd610c09565b6040516102da9190613084565b60405180910390f35b6102fd60048036038101906102f891906137f8565b610c20565b005b610307610cbd565b005b610323600480360381019061031e919061309f565b610cd1565b604051610335969594939291906138a1565b60405180910390f35b610346610ddd565b005b610362600480360381019061035d9190613909565b610def565b005b61037e60048036038101906103799190613965565b610e26565b005b610388610f0a565b60405161039591906139b8565b60405180910390f35b6103b860048036038101906103b391906139ff565b610f34565b005b6103d460048036038101906103cf9190612f7a565b610f4a565b005b6103de6110e1565b6040516103eb9190612fc9565b60405180910390f35b61040e6004803603810190610409919061309f565b6110e7565b60405161041b9190612fc9565b60405180910390f35b61043e60048036038101906104399190613a3f565b611104565b60405161044b9190613084565b60405180910390f35b61046e60048036038101906104699190613a7f565b611198565b005b61048a60048036038101906104859190613b16565b611239565b005b6104a660048036038101906104a19190613b43565b6112bd565b005b60008073ffffffffffffffffffffffffffffffffffffffff168373ffffffffffffffffffffffffffffffffffffffff161415610519576040517f08c379a000000000000000000000000000000000000000000000000000000000815260040161051090613c08565b60405180910390fd5b60008083815260200190815260200160002060008473ffffffffffffffffffffffffffffffffffffffff1673ffffffffffffffffffffffffffffffffffffffff16815260200190815260200160002054905092915050565b60007fd9b67a26000000000000000000000000000000000000000000000000000000007bffffffffffffffffffffffffffffffffffffffffffffffffffffffff1916827bffffffffffffffffffffffffffffffffffffffffffffffffffffffff1916148061063c57507f0e89341c000000000000000000000000000000000000000000000000000000007bffffffffffffffffffffffffffffffffffffffffffffffffffffffff1916827bffffffffffffffffffffffffffffffffffffffffffffffffffffffff1916145b8061064c575061064b8261135a565b5b9050919050565b606060056000838152602001908152602001600020600301805461067690613c57565b80601f01602080910402602001604051908101604052809291908181526020018280546106a290613c57565b80156106ef5780601f106106c4576101008083540402835291602001916106ef565b820191906000526020600020905b8154815290600101906020018083116106d257829003601f168201915b50505050509050919050565b6107036113c4565b600060056000838152602001908152602001600020905060008160020154141561076457816040517fd97915d200000000000000000000000000000000000000000000000000000000815260040161075b9190612fc9565b60405180910390fd5b6249d4008160040160089054906101000a900467ffffffffffffffff1661078b9190613cb8565b67ffffffffffffffff164210156107ce576040517f507a88b200000000000000000000000000000000000000000000000000000000815260040160405180910390fd5b60006107d9836110e7565b9050600081141561082157826040517f76f7b7250000000000000000000000000000000000000000000000000000000081526004016108189190612fc9565b60405180910390fd5b60008183600201546108339190613cf6565b905061088b610840610f0a565b828560000160009054906101000a900473ffffffffffffffffffffffffffffffffffffffff1673ffffffffffffffffffffffffffffffffffffffff166114429092919063ffffffff16565b50505050565b6108996113c4565b60006040518060c001604052808773ffffffffffffffffffffffffffffffffffffffff168152602001868152602001600081526020018581526020018467ffffffffffffffff1681526020018367ffffffffffffffff1681525090508060056000600654815260200190815260200160002060008201518160000160006101000a81548173ffffffffffffffffffffffffffffffffffffffff021916908373ffffffffffffffffffffffffffffffffffffffff16021790555060208201518160010155604082015181600201556060820151816003019080519060200190610982929190612e2f565b5060808201518160040160006101000a81548167ffffffffffffffff021916908367ffffffffffffffff16021790555060a08201518160040160086101000a81548167ffffffffffffffff021916908367ffffffffffffffff160217905550905050610a086109ef610f0a565b60065489604051806020016040528060008152506114c8565b60066000815480929190610a1b90613d50565b919050555050505050505050565b610a31611679565b73ffffffffffffffffffffffffffffffffffffffff168573ffffffffffffffffffffffffffffffffffffffff161480610a775750610a7685610a71611679565b611104565b5b610ab6576040517f08c379a0000000000000000000000000000000000000000000000000000000008152600401610aad90613e0b565b60405180910390fd5b610ac38585858585611681565b5050505050565b610ad26113c4565b610ada6119a3565b565b60608151835114610b22576040517f08c379a0000000000000000000000000000000000000000000000000000000008152600401610b1990613e9d565b60405180910390fd5b6000835167ffffffffffffffff811115610b3f57610b3e613191565b5b604051908082528060200260200182016040528015610b6d5781602001602082028036833780820191505090505b50905060005b8451811015610bea57610bba858281518110610b9257610b91613ebd565b5b6020026020010151858381518110610bad57610bac613ebd565b5b60200260200101516104a8565b828281518110610bcd57610bcc613ebd565b5b60200260200101818152505080610be390613d50565b9050610b73565b508091505092915050565b600080610c01836110e7565b119050919050565b6000600460149054906101000a900460ff16905090565b610c28611679565b73ffffffffffffffffffffffffffffffffffffffff168373ffffffffffffffffffffffffffffffffffffffff161480610c6e5750610c6d83610c68611679565b611104565b5b610cad576040517f08c379a0000000000000000000000000000000000000000000000000000000008152600401610ca490613e0b565b60405180910390fd5b610cb8838383611a06565b505050565b610cc56113c4565b610ccf6000611cd5565b565b60056020528060005260406000206000915090508060000160009054906101000a900473ffffffffffffffffffffffffffffffffffffffff1690806001015490806002015490806003018054610d2690613c57565b80601f0160208091040260200160405190810160405280929190818152602001828054610d5290613c57565b8015610d9f5780601f10610d7457610100808354040283529160200191610d9f565b820191906000526020600020905b815481529060010190602001808311610d8257829003601f168201915b5050505050908060040160009054906101000a900467ffffffffffffffff16908060040160089054906101000a900467ffffffffffffffff16905086565b610de56113c4565b610ded611d9b565b565b610df76113c4565b80600560008481526020019081526020016000206003019080519060200190610e21929190612e2f565b505050565b610e2e611dfe565b600060056000858152602001908152602001600020905081610e4f856110e7565b84610e5a9190613cf6565b14610e91576040517fc63b259b00000000000000000000000000000000000000000000000000000000815260040160405180910390fd5b82816002016000828254610ea59190613eec565b92505081905550610f04610eb7611679565b30848460000160009054906101000a900473ffffffffffffffffffffffffffffffffffffffff1673ffffffffffffffffffffffffffffffffffffffff16611e48909392919063ffffffff16565b50505050565b6000600460009054906101000a900473ffffffffffffffffffffffffffffffffffffffff16905090565b610f46610f3f611679565b8383611ed1565b5050565b610f52611dfe565b6000600560008381526020019081526020016000209050600081600201541415610fb357816040517fd97915d2000000000000000000000000000000000000000000000000000000008152600401610faa9190612fc9565b60405180910390fd5b8060040160089054906101000a900467ffffffffffffffff1667ffffffffffffffff1642101561102357610fe5611679565b826040517f714a2b9000000000000000000000000000000000000000000000000000000000815260040161101a929190613f42565b60405180910390fd5b600061102f84846104a8565b9050600081141561106c576040517fbd33d40800000000000000000000000000000000000000000000000000000000815260040160405180910390fd5b61107784848361203e565b60008183600201546110899190613cf6565b90506110da85828560000160009054906101000a900473ffffffffffffffffffffffffffffffffffffffff1673ffffffffffffffffffffffffffffffffffffffff166114429092919063ffffffff16565b5050505050565b60065481565b600060036000838152602001908152602001600020549050919050565b6000600160008473ffffffffffffffffffffffffffffffffffffffff1673ffffffffffffffffffffffffffffffffffffffff16815260200190815260200160002060008373ffffffffffffffffffffffffffffffffffffffff1673ffffffffffffffffffffffffffffffffffffffff16815260200190815260200160002060009054906101000a900460ff16905092915050565b6111a0611679565b73ffffffffffffffffffffffffffffffffffffffff168573ffffffffffffffffffffffffffffffffffffffff1614806111e657506111e5856111e0611679565b611104565b5b611225576040517f08c379a000000000000000000000000000000000000000000000000000000000815260040161121c90613e0b565b60405180910390fd5b6112328585858585612285565b5050505050565b6112416113c4565b600073ffffffffffffffffffffffffffffffffffffffff168173ffffffffffffffffffffffffffffffffffffffff1614156112b1576040517f08c379a00000000000000000000000000000000000000000000000000000000081526004016112a890613fdd565b60405180910390fd5b6112ba81611cd5565b50565b6112c5611679565b73ffffffffffffffffffffffffffffffffffffffff168373ffffffffffffffffffffffffffffffffffffffff16148061130b575061130a83611305611679565b611104565b5b61134a576040517f08c379a000000000000000000000000000000000000000000000000000000000815260040161134190613e0b565b60405180910390fd5b61135583838361203e565b505050565b60007f01ffc9a7000000000000000000000000000000000000000000000000000000007bffffffffffffffffffffffffffffffffffffffffffffffffffffffff1916827bffffffffffffffffffffffffffffffffffffffffffffffffffffffff1916149050919050565b6113cc611679565b73ffffffffffffffffffffffffffffffffffffffff166113ea610f0a565b73ffffffffffffffffffffffffffffffffffffffff1614611440576040517f08c379a000000000000000000000000000000000000000000000000000000000815260040161143790614049565b60405180910390fd5b565b6114c38363a9059cbb60e01b8484604051602401611461929190613f42565b604051602081830303815290604052907bffffffffffffffffffffffffffffffffffffffffffffffffffffffff19166020820180517bffffffffffffffffffffffffffffffffffffffffffffffffffffffff8381831617835250505050612521565b505050565b600073ffffffffffffffffffffffffffffffffffffffff168473ffffffffffffffffffffffffffffffffffffffff161415611538576040517f08c379a000000000000000000000000000000000000000000000000000000000815260040161152f906140db565b60405180910390fd5b6000611542611679565b9050600061154f856125e8565b9050600061155c856125e8565b905061156d83600089858589612662565b8460008088815260200190815260200160002060008973ffffffffffffffffffffffffffffffffffffffff1673ffffffffffffffffffffffffffffffffffffffff16815260200190815260200160002060008282546115cc9190613eec565b925050819055508673ffffffffffffffffffffffffffffffffffffffff16600073ffffffffffffffffffffffffffffffffffffffff168473ffffffffffffffffffffffffffffffffffffffff167fc3d58168c5ae7397731d063d5bbf3d657854427343f4c083240f7aacaa2d0f62898960405161164a9291906140fb565b60405180910390a461166183600089858589612680565b61167083600089898989612688565b50505050505050565b600033905090565b81518351146116c5576040517f08c379a00000000000000000000000000000000000000000000000000000000081526004016116bc90614196565b60405180910390fd5b600073ffffffffffffffffffffffffffffffffffffffff168473ffffffffffffffffffffffffffffffffffffffff161415611735576040517f08c379a000000000000000000000000000000000000000000000000000000000815260040161172c90614228565b60405180910390fd5b600061173f611679565b905061174f818787878787612662565b60005b84518110156119005760008582815181106117705761176f613ebd565b5b60200260200101519050600085838151811061178f5761178e613ebd565b5b60200260200101519050600080600084815260200190815260200160002060008b73ffffffffffffffffffffffffffffffffffffffff1673ffffffffffffffffffffffffffffffffffffffff16815260200190815260200160002054905081811015611830576040517f08c379a0000000000000000000000000000000000000000000000000000000008152600401611827906142ba565b60405180910390fd5b81810360008085815260200190815260200160002060008c73ffffffffffffffffffffffffffffffffffffffff1673ffffffffffffffffffffffffffffffffffffffff168152602001908152602001600020819055508160008085815260200190815260200160002060008b73ffffffffffffffffffffffffffffffffffffffff1673ffffffffffffffffffffffffffffffffffffffff16815260200190815260200160002060008282546118e59190613eec565b92505081905550505050806118f990613d50565b9050611752565b508473ffffffffffffffffffffffffffffffffffffffff168673ffffffffffffffffffffffffffffffffffffffff168273ffffffffffffffffffffffffffffffffffffffff167f4a39dc06d4c0dbc64b70af90fd698a233a518aa5d07e595d983b8c0526c8f7fb87876040516119779291906142da565b60405180910390a461198d818787878787612680565b61199b81878787878761286f565b505050505050565b6119ab612a56565b6000600460146101000a81548160ff0219169083151502179055507f5db9ee0a495bf2e6ff9c91a7834c1ba4fdd244a5e8aa4e537bd38aeae4b073aa6119ef611679565b6040516119fc91906139b8565b60405180910390a1565b600073ffffffffffffffffffffffffffffffffffffffff168373ffffffffffffffffffffffffffffffffffffffff161415611a76576040517f08c379a0000000000000000000000000000000000000000000000000000000008152600401611a6d90614383565b60405180910390fd5b8051825114611aba576040517f08c379a0000000000000000000000000000000000000000000000000000000008152600401611ab190614196565b60405180910390fd5b6000611ac4611679565b9050611ae481856000868660405180602001604052806000815250612662565b60005b8351811015611c31576000848281518110611b0557611b04613ebd565b5b602002602001015190506000848381518110611b2457611b23613ebd565b5b60200260200101519050600080600084815260200190815260200160002060008973ffffffffffffffffffffffffffffffffffffffff1673ffffffffffffffffffffffffffffffffffffffff16815260200190815260200160002054905081811015611bc5576040517f08c379a0000000000000000000000000000000000000000000000000000000008152600401611bbc90614415565b60405180910390fd5b81810360008085815260200190815260200160002060008a73ffffffffffffffffffffffffffffffffffffffff1673ffffffffffffffffffffffffffffffffffffffff168152602001908152602001600020819055505050508080611c2990613d50565b915050611ae7565b50600073ffffffffffffffffffffffffffffffffffffffff168473ffffffffffffffffffffffffffffffffffffffff168273ffffffffffffffffffffffffffffffffffffffff167f4a39dc06d4c0dbc64b70af90fd698a233a518aa5d07e595d983b8c0526c8f7fb8686604051611ca99291906142da565b60405180910390a4611ccf81856000868660405180602001604052806000815250612680565b50505050565b6000600460009054906101000a900473ffffffffffffffffffffffffffffffffffffffff16905081600460006101000a81548173ffffffffffffffffffffffffffffffffffffffff021916908373ffffffffffffffffffffffffffffffffffffffff1602179055508173ffffffffffffffffffffffffffffffffffffffff168173ffffffffffffffffffffffffffffffffffffffff167f8be0079c531659141344cd1fd0a4f28419497f9722a3daafe3b4186f6b6457e060405160405180910390a35050565b611da3611dfe565b6001600460146101000a81548160ff0219169083151502179055507f62e78cea01bee320cd4e420270b5ea74000d11b0c9f74754ebdbfc544b05a258611de7611679565b604051611df491906139b8565b60405180910390a1565b611e06610c09565b15611e46576040517f08c379a0000000000000000000000000000000000000000000000000000000008152600401611e3d90614481565b60405180910390fd5b565b611ecb846323b872dd60e01b858585604051602401611e69939291906144a1565b604051602081830303815290604052907bffffffffffffffffffffffffffffffffffffffffffffffffffffffff19166020820180517bffffffffffffffffffffffffffffffffffffffffffffffffffffffff8381831617835250505050612521565b50505050565b8173ffffffffffffffffffffffffffffffffffffffff168373ffffffffffffffffffffffffffffffffffffffff161415611f40576040517f08c379a0000000000000000000000000000000000000000000000000000000008152600401611f379061454a565b60405180910390fd5b80600160008573ffffffffffffffffffffffffffffffffffffffff1673ffffffffffffffffffffffffffffffffffffffff16815260200190815260200160002060008473ffffffffffffffffffffffffffffffffffffffff1673ffffffffffffffffffffffffffffffffffffffff16815260200190815260200160002060006101000a81548160ff0219169083151502179055508173ffffffffffffffffffffffffffffffffffffffff168373ffffffffffffffffffffffffffffffffffffffff167f17307eab39ab6107e8899845ad3d59bd9653f200f220920489ca2b5937696c31836040516120319190613084565b60405180910390a3505050565b600073ffffffffffffffffffffffffffffffffffffffff168373ffffffffffffffffffffffffffffffffffffffff1614156120ae576040517f08c379a00000000000000000000000000000000000000000000000000000000081526004016120a590614383565b60405180910390fd5b60006120b8611679565b905060006120c5846125e8565b905060006120d2846125e8565b90506120f283876000858560405180602001604052806000815250612662565b600080600087815260200190815260200160002060008873ffffffffffffffffffffffffffffffffffffffff1673ffffffffffffffffffffffffffffffffffffffff16815260200190815260200160002054905084811015612189576040517f08c379a000000000000000000000000000000000000000000000000000000000815260040161218090614415565b60405180910390fd5b84810360008088815260200190815260200160002060008973ffffffffffffffffffffffffffffffffffffffff1673ffffffffffffffffffffffffffffffffffffffff16815260200190815260200160002081905550600073ffffffffffffffffffffffffffffffffffffffff168773ffffffffffffffffffffffffffffffffffffffff168573ffffffffffffffffffffffffffffffffffffffff167fc3d58168c5ae7397731d063d5bbf3d657854427343f4c083240f7aacaa2d0f6289896040516122569291906140fb565b60405180910390a461227c84886000868660405180602001604052806000815250612680565b50505050505050565b600073ffffffffffffffffffffffffffffffffffffffff168473ffffffffffffffffffffffffffffffffffffffff1614156122f5576040517f08c379a00000000000000000000000000000000000000000000000000000000081526004016122ec90614228565b60405180910390fd5b60006122ff611679565b9050600061230c856125e8565b90506000612319856125e8565b9050612329838989858589612662565b600080600088815260200190815260200160002060008a73ffffffffffffffffffffffffffffffffffffffff1673ffffffffffffffffffffffffffffffffffffffff168152602001908152602001600020549050858110156123c0576040517f08c379a00000000000000000000000000000000000000000000000000000000081526004016123b7906142ba565b60405180910390fd5b85810360008089815260200190815260200160002060008b73ffffffffffffffffffffffffffffffffffffffff1673ffffffffffffffffffffffffffffffffffffffff168152602001908152602001600020819055508560008089815260200190815260200160002060008a73ffffffffffffffffffffffffffffffffffffffff1673ffffffffffffffffffffffffffffffffffffffff16815260200190815260200160002060008282546124759190613eec565b925050819055508773ffffffffffffffffffffffffffffffffffffffff168973ffffffffffffffffffffffffffffffffffffffff168573ffffffffffffffffffffffffffffffffffffffff167fc3d58168c5ae7397731d063d5bbf3d657854427343f4c083240f7aacaa2d0f628a8a6040516124f29291906140fb565b60405180910390a4612508848a8a86868a612680565b612516848a8a8a8a8a612688565b505050505050505050565b6000612583826040518060400160405280602081526020017f5361666545524332303a206c6f772d6c6576656c2063616c6c206661696c65648152508573ffffffffffffffffffffffffffffffffffffffff16612a9f9092919063ffffffff16565b90506000815111156125e357808060200190518101906125a3919061457f565b6125e2576040517f08c379a00000000000000000000000000000000000000000000000000000000081526004016125d99061461e565b60405180910390fd5b5b505050565b60606000600167ffffffffffffffff81111561260757612606613191565b5b6040519080825280602002602001820160405280156126355781602001602082028036833780820191505090505b509050828160008151811061264d5761264c613ebd565b5b60200260200101818152505080915050919050565b61266a611dfe565b612678868686868686612ab7565b505050505050565b505050505050565b6126a78473ffffffffffffffffffffffffffffffffffffffff16612c89565b15612867578373ffffffffffffffffffffffffffffffffffffffff1663f23a6e6187878686866040518663ffffffff1660e01b81526004016126ed959493929190614693565b602060405180830381600087803b15801561270757600080fd5b505af192505050801561273857506040513d601f19601f820116820180604052508101906127359190614702565b60015b6127de5761274461473c565b806308c379a014156127a1575061275961475e565b8061276457506127a3565b806040517f08c379a00000000000000000000000000000000000000000000000000000000081526004016127989190613165565b60405180910390fd5b505b6040517f08c379a00000000000000000000000000000000000000000000000000000000081526004016127d590614866565b60405180910390fd5b63f23a6e6160e01b7bffffffffffffffffffffffffffffffffffffffffffffffffffffffff1916817bffffffffffffffffffffffffffffffffffffffffffffffffffffffff191614612865576040517f08c379a000000000000000000000000000000000000000000000000000000000815260040161285c906148f8565b60405180910390fd5b505b505050505050565b61288e8473ffffffffffffffffffffffffffffffffffffffff16612c89565b15612a4e578373ffffffffffffffffffffffffffffffffffffffff1663bc197c8187878686866040518663ffffffff1660e01b81526004016128d4959493929190614918565b602060405180830381600087803b1580156128ee57600080fd5b505af192505050801561291f57506040513d601f19601f8201168201806040525081019061291c9190614702565b60015b6129c55761292b61473c565b806308c379a01415612988575061294061475e565b8061294b575061298a565b806040517f08c379a000000000000000000000000000000000000000000000000000000000815260040161297f9190613165565b60405180910390fd5b505b6040517f08c379a00000000000000000000000000000000000000000000000000000000081526004016129bc90614866565b60405180910390fd5b63bc197c8160e01b7bffffffffffffffffffffffffffffffffffffffffffffffffffffffff1916817bffffffffffffffffffffffffffffffffffffffffffffffffffffffff191614612a4c576040517f08c379a0000000000000000000000000000000000000000000000000000000008152600401612a43906148f8565b60405180910390fd5b505b505050505050565b612a5e610c09565b612a9d576040517f08c379a0000000000000000000000000000000000000000000000000000000008152600401612a94906149cc565b60405180910390fd5b565b6060612aae8484600085612cac565b90509392505050565b612ac5868686868686612dc0565b600073ffffffffffffffffffffffffffffffffffffffff168573ffffffffffffffffffffffffffffffffffffffff161415612b775760005b8351811015612b7557828181518110612b1957612b18613ebd565b5b602002602001015160036000868481518110612b3857612b37613ebd565b5b602002602001015181526020019081526020016000206000828254612b5d9190613eec565b9250508190555080612b6e90613d50565b9050612afd565b505b600073ffffffffffffffffffffffffffffffffffffffff168473ffffffffffffffffffffffffffffffffffffffff161415612c815760005b8351811015612c7f576000848281518110612bcd57612bcc613ebd565b5b602002602001015190506000848381518110612bec57612beb613ebd565b5b6020026020010151905060006003600084815260200190815260200160002054905081811015612c51576040517f08c379a0000000000000000000000000000000000000000000000000000000008152600401612c4890614a5e565b60405180910390fd5b818103600360008581526020019081526020016000208190555050505080612c7890613d50565b9050612baf565b505b505050505050565b6000808273ffffffffffffffffffffffffffffffffffffffff163b119050919050565b606082471015612cf1576040517f08c379a0000000000000000000000000000000000000000000000000000000008152600401612ce890614af0565b60405180910390fd5b612cfa85612c89565b612d39576040517f08c379a0000000000000000000000000000000000000000000000000000000008152600401612d3090614b5c565b60405180910390fd5b6000808673ffffffffffffffffffffffffffffffffffffffff168587604051612d629190614bb8565b60006040518083038185875af1925050503d8060008114612d9f576040519150601f19603f3d011682016040523d82523d6000602084013e612da4565b606091505b5091509150612db4828286612dc8565b92505050949350505050565b505050505050565b60608315612dd857829050612e28565b600083511115612deb5782518084602001fd5b816040517f08c379a0000000000000000000000000000000000000000000000000000000008152600401612e1f9190613165565b60405180910390fd5b9392505050565b828054612e3b90613c57565b90600052602060002090601f016020900481019282612e5d5760008555612ea4565b82601f10612e7657805160ff1916838001178555612ea4565b82800160010185558215612ea4579182015b82811115612ea3578251825591602001919060010190612e88565b5b509050612eb19190612eb5565b5090565b5b80821115612ece576000816000905550600101612eb6565b5090565b6000604051905090565b600080fd5b600080fd5b600073ffffffffffffffffffffffffffffffffffffffff82169050919050565b6000612f1182612ee6565b9050919050565b612f2181612f06565b8114612f2c57600080fd5b50565b600081359050612f3e81612f18565b92915050565b6000819050919050565b612f5781612f44565b8114612f6257600080fd5b50565b600081359050612f7481612f4e565b92915050565b60008060408385031215612f9157612f90612edc565b5b6000612f9f85828601612f2f565b9250506020612fb085828601612f65565b9150509250929050565b612fc381612f44565b82525050565b6000602082019050612fde6000830184612fba565b92915050565b60007fffffffff0000000000000000000000000000000000000000000000000000000082169050919050565b61301981612fe4565b811461302457600080fd5b50565b60008135905061303681613010565b92915050565b60006020828403121561305257613051612edc565b5b600061306084828501613027565b91505092915050565b60008115159050919050565b61307e81613069565b82525050565b60006020820190506130996000830184613075565b92915050565b6000602082840312156130b5576130b4612edc565b5b60006130c384828501612f65565b91505092915050565b600081519050919050565b600082825260208201905092915050565b60005b838110156131065780820151818401526020810190506130eb565b83811115613115576000848401525b50505050565b6000601f19601f8301169050919050565b6000613137826130cc565b61314181856130d7565b93506131518185602086016130e8565b61315a8161311b565b840191505092915050565b6000602082019050818103600083015261317f818461312c565b905092915050565b600080fd5b600080fd5b7f4e487b7100000000000000000000000000000000000000000000000000000000600052604160045260246000fd5b6131c98261311b565b810181811067ffffffffffffffff821117156131e8576131e7613191565b5b80604052505050565b60006131fb612ed2565b905061320782826131c0565b919050565b600067ffffffffffffffff82111561322757613226613191565b5b6132308261311b565b9050602081019050919050565b82818337600083830152505050565b600061325f61325a8461320c565b6131f1565b90508281526020810184848401111561327b5761327a61318c565b5b61328684828561323d565b509392505050565b600082601f8301126132a3576132a2613187565b5b81356132b384826020860161324c565b91505092915050565b600067ffffffffffffffff82169050919050565b6132d9816132bc565b81146132e457600080fd5b50565b6000813590506132f6816132d0565b92915050565b60008060008060008060c0878903121561331957613318612edc565b5b600061332789828a01612f65565b965050602061333889828a01612f2f565b955050604061334989828a01612f65565b945050606087013567ffffffffffffffff81111561336a57613369612ee1565b5b61337689828a0161328e565b935050608061338789828a016132e7565b92505060a061339889828a016132e7565b9150509295509295509295565b600067ffffffffffffffff8211156133c0576133bf613191565b5b602082029050602081019050919050565b600080fd5b60006133e96133e4846133a5565b6131f1565b9050808382526020820190506020840283018581111561340c5761340b6133d1565b5b835b8181101561343557806134218882612f65565b84526020840193505060208101905061340e565b5050509392505050565b600082601f83011261345457613453613187565b5b81356134648482602086016133d6565b91505092915050565b600067ffffffffffffffff82111561348857613487613191565b5b6134918261311b565b9050602081019050919050565b60006134b16134ac8461346d565b6131f1565b9050828152602081018484840111156134cd576134cc61318c565b5b6134d884828561323d565b509392505050565b600082601f8301126134f5576134f4613187565b5b813561350584826020860161349e565b91505092915050565b600080600080600060a0868803121561352a57613529612edc565b5b600061353888828901612f2f565b955050602061354988828901612f2f565b945050604086013567ffffffffffffffff81111561356a57613569612ee1565b5b6135768882890161343f565b935050606086013567ffffffffffffffff81111561359757613596612ee1565b5b6135a38882890161343f565b925050608086013567ffffffffffffffff8111156135c4576135c3612ee1565b5b6135d0888289016134e0565b9150509295509295909350565b600067ffffffffffffffff8211156135f8576135f7613191565b5b602082029050602081019050919050565b600061361c613617846135dd565b6131f1565b9050808382526020820190506020840283018581111561363f5761363e6133d1565b5b835b8181101561366857806136548882612f2f565b845260208401935050602081019050613641565b5050509392505050565b600082601f83011261368757613686613187565b5b8135613697848260208601613609565b91505092915050565b600080604083850312156136b7576136b6612edc565b5b600083013567ffffffffffffffff8111156136d5576136d4612ee1565b5b6136e185828601613672565b925050602083013567ffffffffffffffff81111561370257613701612ee1565b5b61370e8582860161343f565b9150509250929050565b600081519050919050565b600082825260208201905092915050565b6000819050602082019050919050565b61374d81612f44565b82525050565b600061375f8383613744565b60208301905092915050565b6000602082019050919050565b600061378382613718565b61378d8185613723565b935061379883613734565b8060005b838110156137c95781516137b08882613753565b97506137bb8361376b565b92505060018101905061379c565b5085935050505092915050565b600060208201905081810360008301526137f08184613778565b905092915050565b60008060006060848603121561381157613810612edc565b5b600061381f86828701612f2f565b935050602084013567ffffffffffffffff8111156138405761383f612ee1565b5b61384c8682870161343f565b925050604084013567ffffffffffffffff81111561386d5761386c612ee1565b5b6138798682870161343f565b9150509250925092565b61388c81612f06565b82525050565b61389b816132bc565b82525050565b600060c0820190506138b66000830189613883565b6138c36020830188612fba565b6138d06040830187612fba565b81810360608301526138e2818661312c565b90506138f16080830185613892565b6138fe60a0830184613892565b979650505050505050565b600080604083850312156139205761391f612edc565b5b600061392e85828601612f65565b925050602083013567ffffffffffffffff81111561394f5761394e612ee1565b5b61395b8582860161328e565b9150509250929050565b60008060006060848603121561397e5761397d612edc565b5b600061398c86828701612f65565b935050602061399d86828701612f65565b92505060406139ae86828701612f65565b9150509250925092565b60006020820190506139cd6000830184613883565b92915050565b6139dc81613069565b81146139e757600080fd5b50565b6000813590506139f9816139d3565b92915050565b60008060408385031215613a1657613a15612edc565b5b6000613a2485828601612f2f565b9250506020613a35858286016139ea565b9150509250929050565b60008060408385031215613a5657613a55612edc565b5b6000613a6485828601612f2f565b9250506020613a7585828601612f2f565b9150509250929050565b600080600080600060a08688031215613a9b57613a9a612edc565b5b6000613aa988828901612f2f565b9550506020613aba88828901612f2f565b9450506040613acb88828901612f65565b9350506060613adc88828901612f65565b925050608086013567ffffffffffffffff811115613afd57613afc612ee1565b5b613b09888289016134e0565b9150509295509295909350565b600060208284031215613b2c57613b2b612edc565b5b6000613b3a84828501612f2f565b91505092915050565b600080600060608486031215613b5c57613b5b612edc565b5b6000613b6a86828701612f2f565b9350506020613b7b86828701612f65565b9250506040613b8c86828701612f65565b9150509250925092565b7f455243313135353a2061646472657373207a65726f206973206e6f742061207660008201527f616c6964206f776e657200000000000000000000000000000000000000000000602082015250565b6000613bf2602a836130d7565b9150613bfd82613b96565b604082019050919050565b60006020820190508181036000830152613c2181613be5565b9050919050565b7f4e487b7100000000000000000000000000000000000000000000000000000000600052602260045260246000fd5b60006002820490506001821680613c6f57607f821691505b60208210811415613c8357613c82613c28565b5b50919050565b7f4e487b7100000000000000000000000000000000000000000000000000000000600052601160045260246000fd5b6000613cc3826132bc565b9150613cce836132bc565b92508267ffffffffffffffff03821115613ceb57613cea613c89565b5b828201905092915050565b6000613d0182612f44565b9150613d0c83612f44565b9250817fffffffffffffffffffffffffffffffffffffffffffffffffffffffffffffffff0483118215151615613d4557613d44613c89565b5b828202905092915050565b6000613d5b82612f44565b91507fffffffffffffffffffffffffffffffffffffffffffffffffffffffffffffffff821415613d8e57613d8d613c89565b5b600182019050919050565b7f455243313135353a2063616c6c6572206973206e6f7420746f6b656e206f776e60008201527f6572206e6f7220617070726f7665640000000000000000000000000000000000602082015250565b6000613df5602f836130d7565b9150613e0082613d99565b604082019050919050565b60006020820190508181036000830152613e2481613de8565b9050919050565b7f455243313135353a206163636f756e747320616e6420696473206c656e67746860008201527f206d69736d617463680000000000000000000000000000000000000000000000602082015250565b6000613e876029836130d7565b9150613e9282613e2b565b604082019050919050565b60006020820190508181036000830152613eb681613e7a565b9050919050565b7f4e487b7100000000000000000000000000000000000000000000000000000000600052603260045260246000fd5b6000613ef782612f44565b9150613f0283612f44565b9250827fffffffffffffffffffffffffffffffffffffffffffffffffffffffffffffffff03821115613f3757613f36613c89565b5b828201905092915050565b6000604082019050613f576000830185613883565b613f646020830184612fba565b9392505050565b7f4f776e61626c653a206e6577206f776e657220697320746865207a65726f206160008201527f6464726573730000000000000000000000000000000000000000000000000000602082015250565b6000613fc76026836130d7565b9150613fd282613f6b565b604082019050919050565b60006020820190508181036000830152613ff681613fba565b9050919050565b7f4f776e61626c653a2063616c6c6572206973206e6f7420746865206f776e6572600082015250565b60006140336020836130d7565b915061403e82613ffd565b602082019050919050565b6000602082019050818103600083015261406281614026565b9050919050565b7f455243313135353a206d696e7420746f20746865207a65726f2061646472657360008201527f7300000000000000000000000000000000000000000000000000000000000000602082015250565b60006140c56021836130d7565b91506140d082614069565b604082019050919050565b600060208201905081810360008301526140f4816140b8565b9050919050565b60006040820190506141106000830185612fba565b61411d6020830184612fba565b9392505050565b7f455243313135353a2069647320616e6420616d6f756e7473206c656e6774682060008201527f6d69736d61746368000000000000000000000000000000000000000000000000602082015250565b60006141806028836130d7565b915061418b82614124565b604082019050919050565b600060208201905081810360008301526141af81614173565b9050919050565b7f455243313135353a207472616e7366657220746f20746865207a65726f20616460008201527f6472657373000000000000000000000000000000000000000000000000000000602082015250565b60006142126025836130d7565b915061421d826141b6565b604082019050919050565b6000602082019050818103600083015261424181614205565b9050919050565b7f455243313135353a20696e73756666696369656e742062616c616e636520666f60008201527f72207472616e7366657200000000000000000000000000000000000000000000602082015250565b60006142a4602a836130d7565b91506142af82614248565b604082019050919050565b600060208201905081810360008301526142d381614297565b9050919050565b600060408201905081810360008301526142f48185613778565b905081810360208301526143088184613778565b90509392505050565b7f455243313135353a206275726e2066726f6d20746865207a65726f206164647260008201527f6573730000000000000000000000000000000000000000000000000000000000602082015250565b600061436d6023836130d7565b915061437882614311565b604082019050919050565b6000602082019050818103600083015261439c81614360565b9050919050565b7f455243313135353a206275726e20616d6f756e7420657863656564732062616c60008201527f616e636500000000000000000000000000000000000000000000000000000000602082015250565b60006143ff6024836130d7565b915061440a826143a3565b604082019050919050565b6000602082019050818103600083015261442e816143f2565b9050919050565b7f5061757361626c653a2070617573656400000000000000000000000000000000600082015250565b600061446b6010836130d7565b915061447682614435565b602082019050919050565b6000602082019050818103600083015261449a8161445e565b9050919050565b60006060820190506144b66000830186613883565b6144c36020830185613883565b6144d06040830184612fba565b949350505050565b7f455243313135353a2073657474696e6720617070726f76616c2073746174757360008201527f20666f722073656c660000000000000000000000000000000000000000000000602082015250565b60006145346029836130d7565b915061453f826144d8565b604082019050919050565b6000602082019050818103600083015261456381614527565b9050919050565b600081519050614579816139d3565b92915050565b60006020828403121561459557614594612edc565b5b60006145a38482850161456a565b91505092915050565b7f5361666545524332303a204552433230206f7065726174696f6e20646964206e60008201527f6f74207375636365656400000000000000000000000000000000000000000000602082015250565b6000614608602a836130d7565b9150614613826145ac565b604082019050919050565b60006020820190508181036000830152614637816145fb565b9050919050565b600081519050919050565b600082825260208201905092915050565b60006146658261463e565b61466f8185614649565b935061467f8185602086016130e8565b6146888161311b565b840191505092915050565b600060a0820190506146a86000830188613883565b6146b56020830187613883565b6146c26040830186612fba565b6146cf6060830185612fba565b81810360808301526146e1818461465a565b90509695505050505050565b6000815190506146fc81613010565b92915050565b60006020828403121561471857614717612edc565b5b6000614726848285016146ed565b91505092915050565b60008160e01c9050919050565b600060033d111561475b5760046000803e61475860005161472f565b90505b90565b600060443d101561476e576147f1565b614776612ed2565b60043d036004823e80513d602482011167ffffffffffffffff8211171561479e5750506147f1565b808201805167ffffffffffffffff8111156147bc57505050506147f1565b80602083010160043d0385018111156147d95750505050506147f1565b6147e8826020018501866131c0565b82955050505050505b90565b7f455243313135353a207472616e7366657220746f206e6f6e204552433131353560008201527f526563656976657220696d706c656d656e746572000000000000000000000000602082015250565b60006148506034836130d7565b915061485b826147f4565b604082019050919050565b6000602082019050818103600083015261487f81614843565b9050919050565b7f455243313135353a204552433131353552656365697665722072656a6563746560008201527f6420746f6b656e73000000000000000000000000000000000000000000000000602082015250565b60006148e26028836130d7565b91506148ed82614886565b604082019050919050565b60006020820190508181036000830152614911816148d5565b9050919050565b600060a08201905061492d6000830188613883565b61493a6020830187613883565b818103604083015261494c8186613778565b905081810360608301526149608185613778565b90508181036080830152614974818461465a565b90509695505050505050565b7f5061757361626c653a206e6f7420706175736564000000000000000000000000600082015250565b60006149b66014836130d7565b91506149c182614980565b602082019050919050565b600060208201905081810360008301526149e5816149a9565b9050919050565b7f455243313135353a206275726e20616d6f756e74206578636565647320746f7460008201527f616c537570706c79000000000000000000000000000000000000000000000000602082015250565b6000614a486028836130d7565b9150614a53826149ec565b604082019050919050565b60006020820190508181036000830152614a7781614a3b565b9050919050565b7f416464726573733a20696e73756666696369656e742062616c616e636520666f60008201527f722063616c6c0000000000000000000000000000000000000000000000000000602082015250565b6000614ada6026836130d7565b9150614ae582614a7e565b604082019050919050565b60006020820190508181036000830152614b0981614acd565b9050919050565b7f416464726573733a2063616c6c20746f206e6f6e2d636f6e7472616374000000600082015250565b6000614b46601d836130d7565b9150614b5182614b10565b602082019050919050565b60006020820190508181036000830152614b7581614b39565b9050919050565b600081905092915050565b6000614b928261463e565b614b9c8185614b7c565b9350614bac8185602086016130e8565b80840191505092915050565b6000614bc48284614b87565b91508190509291505056fea26469706673582212208873aa3155d847d787a0e3ccb0cee222446e101d7e03b7fb24e4e56d9ce92be764736f6c63430008090033",
  "devdoc": {
    "kind": "dev",
    "methods": {
      "balanceOf(address,uint256)": {
        "details": "See {IERC1155-balanceOf}. Requirements: - `account` cannot be the zero address."
      },
      "balanceOfBatch(address[],uint256[])": {
        "details": "See {IERC1155-balanceOfBatch}. Requirements: - `accounts` and `ids` must have the same length."
      },
      "exists(uint256)": {
        "details": "Indicates whether any token exist with a given id, or not."
      },
      "isApprovedForAll(address,address)": {
        "details": "See {IERC1155-isApprovedForAll}."
      },
      "owner()": {
        "details": "Returns the address of the current owner."
      },
      "paused()": {
        "details": "Returns true if the contract is paused, and false otherwise."
      },
      "renounceOwnership()": {
        "details": "Leaves the contract without owner. It will not be possible to call `onlyOwner` functions anymore. Can only be called by the current owner. NOTE: Renouncing ownership will leave the contract without an owner, thereby removing any functionality that is only available to the owner."
      },
      "safeBatchTransferFrom(address,address,uint256[],uint256[],bytes)": {
        "details": "See {IERC1155-safeBatchTransferFrom}."
      },
      "safeTransferFrom(address,address,uint256,uint256,bytes)": {
        "details": "See {IERC1155-safeTransferFrom}."
      },
      "setApprovalForAll(address,bool)": {
        "details": "See {IERC1155-setApprovalForAll}."
      },
      "supportsInterface(bytes4)": {
        "details": "See {IERC165-supportsInterface}."
      },
      "totalSupply(uint256)": {
        "details": "Total amount of tokens in with a given id."
      },
      "transferOwnership(address)": {
        "details": "Transfers ownership of the contract to a new account (`newOwner`). Can only be called by the current owner."
      }
    },
    "version": 1
  },
  "userdoc": {
    "kind": "user",
    "methods": {
      "claim(address,uint256)": {
        "notice": "Nft holders claim their interest and principal."
      },
      "repay(uint256,uint256,uint256)": {
        "notice": "Admin repays to let users claim. You can repay several times because all `_finalValue`s are summed up."
      },
      "withdrawResidue(uint256)": {
        "notice": "Admin withdraws the money to repay later when users do not claim for a long time. NOTE: Do not _burn to allow users claim later."
      }
    },
    "notice": "This repays the interest & principal at once until the maturity date. This contract has no need to The admin mint and sell NFT",
    "version": 1
  },
  "storageLayout": {
    "storage": [
      {
        "astId": 246,
        "contract": "contracts/BulletBond.sol:BulletBond",
        "label": "_balances",
        "offset": 0,
        "slot": "0",
        "type": "t_mapping(t_uint256,t_mapping(t_address,t_uint256))"
      },
      {
        "astId": 252,
        "contract": "contracts/BulletBond.sol:BulletBond",
        "label": "_operatorApprovals",
        "offset": 0,
        "slot": "1",
        "type": "t_mapping(t_address,t_mapping(t_address,t_bool))"
      },
      {
        "astId": 254,
        "contract": "contracts/BulletBond.sol:BulletBond",
        "label": "_uri",
        "offset": 0,
        "slot": "2",
        "type": "t_string_storage"
      },
      {
        "astId": 1733,
        "contract": "contracts/BulletBond.sol:BulletBond",
        "label": "_totalSupply",
        "offset": 0,
        "slot": "3",
        "type": "t_mapping(t_uint256,t_uint256)"
      },
      {
        "astId": 7,
        "contract": "contracts/BulletBond.sol:BulletBond",
        "label": "_owner",
        "offset": 0,
        "slot": "4",
        "type": "t_address"
      },
      {
        "astId": 130,
        "contract": "contracts/BulletBond.sol:BulletBond",
        "label": "_paused",
        "offset": 20,
        "slot": "4",
        "type": "t_bool"
      },
      {
        "astId": 3313,
        "contract": "contracts/BulletBond.sol:BulletBond",
        "label": "products",
        "offset": 0,
        "slot": "5",
        "type": "t_mapping(t_uint256,t_struct(Product)3308_storage)"
      },
      {
        "astId": 3315,
        "contract": "contracts/BulletBond.sol:BulletBond",
        "label": "numProducts",
        "offset": 0,
        "slot": "6",
        "type": "t_uint256"
      }
    ],
    "types": {
      "t_address": {
        "encoding": "inplace",
        "label": "address",
        "numberOfBytes": "20"
      },
      "t_bool": {
        "encoding": "inplace",
        "label": "bool",
        "numberOfBytes": "1"
      },
      "t_mapping(t_address,t_bool)": {
        "encoding": "mapping",
        "key": "t_address",
        "label": "mapping(address => bool)",
        "numberOfBytes": "32",
        "value": "t_bool"
      },
      "t_mapping(t_address,t_mapping(t_address,t_bool))": {
        "encoding": "mapping",
        "key": "t_address",
        "label": "mapping(address => mapping(address => bool))",
        "numberOfBytes": "32",
        "value": "t_mapping(t_address,t_bool)"
      },
      "t_mapping(t_address,t_uint256)": {
        "encoding": "mapping",
        "key": "t_address",
        "label": "mapping(address => uint256)",
        "numberOfBytes": "32",
        "value": "t_uint256"
      },
      "t_mapping(t_uint256,t_mapping(t_address,t_uint256))": {
        "encoding": "mapping",
        "key": "t_uint256",
        "label": "mapping(uint256 => mapping(address => uint256))",
        "numberOfBytes": "32",
        "value": "t_mapping(t_address,t_uint256)"
      },
      "t_mapping(t_uint256,t_struct(Product)3308_storage)": {
        "encoding": "mapping",
        "key": "t_uint256",
        "label": "mapping(uint256 => struct BulletBond.Product)",
        "numberOfBytes": "32",
        "value": "t_struct(Product)3308_storage"
      },
      "t_mapping(t_uint256,t_uint256)": {
        "encoding": "mapping",
        "key": "t_uint256",
        "label": "mapping(uint256 => uint256)",
        "numberOfBytes": "32",
        "value": "t_uint256"
      },
      "t_string_storage": {
        "encoding": "bytes",
        "label": "string",
        "numberOfBytes": "32"
      },
      "t_struct(Product)3308_storage": {
        "encoding": "inplace",
        "label": "struct BulletBond.Product",
        "members": [
          {
            "astId": 3297,
            "contract": "contracts/BulletBond.sol:BulletBond",
            "label": "token",
            "offset": 0,
            "slot": "0",
            "type": "t_address"
          },
          {
            "astId": 3299,
            "contract": "contracts/BulletBond.sol:BulletBond",
            "label": "value",
            "offset": 0,
            "slot": "1",
            "type": "t_uint256"
          },
          {
            "astId": 3301,
            "contract": "contracts/BulletBond.sol:BulletBond",
            "label": "finalValue",
            "offset": 0,
            "slot": "2",
            "type": "t_uint256"
          },
          {
            "astId": 3303,
            "contract": "contracts/BulletBond.sol:BulletBond",
            "label": "uri",
            "offset": 0,
            "slot": "3",
            "type": "t_string_storage"
          },
          {
            "astId": 3305,
            "contract": "contracts/BulletBond.sol:BulletBond",
            "label": "startTs",
            "offset": 0,
            "slot": "4",
            "type": "t_uint64"
          },
          {
            "astId": 3307,
            "contract": "contracts/BulletBond.sol:BulletBond",
            "label": "endTs",
            "offset": 8,
            "slot": "4",
            "type": "t_uint64"
          }
        ],
        "numberOfBytes": "160"
      },
      "t_uint256": {
        "encoding": "inplace",
        "label": "uint256",
        "numberOfBytes": "32"
      },
      "t_uint64": {
        "encoding": "inplace",
        "label": "uint64",
        "numberOfBytes": "8"
      }
    }
  }
}